{"contracts/MockQuantumOracle.sol":{"MockQuantumOracle":{"abi":[{"anonymous":false,"inputs":[{"indexed":false,"internalType":"bytes32","name":"entropy","type":"bytes32"},{"indexed":false,"internalType":"uint256","name":"timestamp","type":"uint256"}],"name":"QuantumEntropyGenerated","type":"event"},{"inputs":[],"name":"generateQuantumEntropy","outputs":[{"internalType":"bytes32","name":"","type":"bytes32"}],"stateMutability":"nonpayable","type":"function"},{"inputs":[],"name":"getLatestEntropy","outputs":[{"internalType":"bytes32","name":"","type":"bytes32"}],"stateMutability":"view","type":"function"}],"evm":{"bytecode":{"linkReferences":{},"object":"6080806040523461001657610199908161001c8239f35b600080fdfe6080604090808252600436101561001557600080fd5b600090813560e01c90816303bba21d1461009f57506344e800bc1461003957600080fd5b3461009c578060031936011261009c578054825160208101914283524485830152606082015260608152608081019281841067ffffffffffffffff851117610088575082602094525190208152f35b634e487b7160e01b81526041600452602490fd5b80fd5b9050823461015f578260031936011261015f5782546000199081811461014b5760010190818555430143811161014b576020840191428352448486015260608501524060808401523360601b60a08401526094835260c083019383851067ffffffffffffffff861117610088575081847fb85486f4075c22155246288058985d1bb396f6d234c830699db32986d6163ae2926020968352855190209485825260e042910152a151908152f35b634e487b7160e01b85526011600452602485fd5b8280fdfea26469706673582212206848e9c6557940d6fcb8052bf65de061b3a4cd05f4d313ede2485ca4abef4f5d64736f6c63430008140033","opcodes":"PUSH1 0x80 DUP1 PUSH1 0x40 MSTORE CALLVALUE PUSH2 0x16 JUMPI PUSH2 0x199 SWAP1 DUP2 PUSH2 0x1C DUP3 CODECOPY RETURN JUMPDEST PUSH1 0x0 DUP1 REVERT INVALID PUSH1 0x80 PUSH1 0x40 SWAP1 DUP1 DUP3 MSTORE PUSH1 0x4 CALLDATASIZE LT ISZERO PUSH2 0x15 JUMPI PUSH1 0x0 DUP1 REVERT JUMPDEST PUSH1 0x0 SWAP1 DUP2 CALLDATALOAD PUSH1 0xE0 SHR SWAP1 DUP2 PUSH4 0x3BBA21D EQ PUSH2 0x9F JUMPI POP PUSH4 0x44E800BC EQ PUSH2 0x39 JUMPI PUSH1 0x0 DUP1 REVERT JUMPDEST CALLVALUE PUSH2 0x9C JUMPI DUP1 PUSH1 0x3 NOT CALLDATASIZE ADD SLT PUSH2 0x9C JUMPI DUP1 SLOAD DUP3 MLOAD PUSH1 0x20 DUP2 ADD SWAP2 TIMESTAMP DUP4 MSTORE PREVRANDAO DUP6 DUP4 ADD MSTORE PUSH1 0x60 DUP3 ADD MSTORE PUSH1 0x60 DUP2 MSTORE PUSH1 0x80 DUP2 ADD SWAP3 DUP2 DUP5 LT PUSH8 0xFFFFFFFFFFFFFFFF DUP6 GT OR PUSH2 0x88 JUMPI POP DUP3 PUSH1 0x20 SWAP5 MSTORE MLOAD SWAP1 KECCAK256 DUP2 MSTORE RETURN JUMPDEST PUSH4 0x4E487B71 PUSH1 0xE0 SHL DUP2 MSTORE PUSH1 0x41 PUSH1 0x4 MSTORE PUSH1 0x24 SWAP1 REVERT JUMPDEST DUP1 REVERT JUMPDEST SWAP1 POP DUP3 CALLVALUE PUSH2 0x15F JUMPI DUP3 PUSH1 0x3 NOT CALLDATASIZE ADD SLT PUSH2 0x15F JUMPI DUP3 SLOAD PUSH1 0x0 NOT SWAP1 DUP2 DUP2 EQ PUSH2 0x14B JUMPI PUSH1 0x1 ADD SWAP1 DUP2 DUP6 SSTORE NUMBER ADD NUMBER DUP2 GT PUSH2 0x14B JUMPI PUSH1 0x20 DUP5 ADD SWAP2 TIMESTAMP DUP4 MSTORE PREVRANDAO DUP5 DUP7 ADD MSTORE PUSH1 0x60 DUP6 ADD MSTORE BLOCKHASH PUSH1 0x80 DUP5 ADD MSTORE CALLER PUSH1 0x60 SHL PUSH1 0xA0 DUP5 ADD MSTORE PUSH1 0x94 DUP4 MSTORE PUSH1 0xC0 DUP4 ADD SWAP4 DUP4 DUP6 LT PUSH8 0xFFFFFFFFFFFFFFFF DUP7 GT OR PUSH2 0x88 JUMPI POP DUP2 DUP5 PUSH32 0xB85486F4075C22155246288058985D1BB396F6D234C830699DB32986D6163AE2 SWAP3 PUSH1 0x20 SWAP7 DUP4 MSTORE DUP6 MLOAD SWAP1 KECCAK256 SWAP5 DUP6 DUP3 MSTORE PUSH1 0xE0 TIMESTAMP SWAP2 ADD MSTORE LOG1 MLOAD SWAP1 DUP2 MSTORE RETURN JUMPDEST PUSH4 0x4E487B71 PUSH1 0xE0 SHL DUP6 MSTORE PUSH1 0x11 PUSH1 0x4 MSTORE PUSH1 0x24 DUP6 REVERT JUMPDEST DUP3 DUP1 REVERT INVALID LOG2 PUSH5 0x6970667358 0x22 SLT KECCAK256 PUSH9 0x48E9C6557940D6FCB8 SDIV 0x2B 0xF6 0x5D 0xE0 PUSH2 0xB3A4 0xCD SDIV DELEGATECALL 0xD3 SGT 0xED 0xE2 BASEFEE 0x5C LOG4 0xAB 0xEF 0x4F 0x5D PUSH5 0x736F6C6343 STOP ADDMOD EQ STOP CALLER "},"methodIdentifiers":{"generateQuantumEntropy()":"03bba21d","getLatestEntropy()":"44e800bc"}}}}}