{"contracts/QRLTrade.sol":{"QRLTrade":{"abi":[{"inputs":[{"internalType":"address","name":"_quantumOracle","type":"address"}],"stateMutability":"nonpayable","type":"constructor"},{"inputs":[],"name":"AccessControlBadConfirmation","type":"error"},{"inputs":[{"internalType":"address","name":"account","type":"address"},{"internalType":"bytes32","name":"neededRole","type":"bytes32"}],"name":"AccessControlUnauthorizedAccount","type":"error"},{"inputs":[],"name":"EnforcedPause","type":"error"},{"inputs":[],"name":"ExpectedPause","type":"error"},{"inputs":[],"name":"ReentrancyGuardReentrantCall","type":"error"},{"anonymous":false,"inputs":[{"indexed":false,"internalType":"address","name":"account","type":"address"}],"name":"Paused","type":"event"},{"anonymous":false,"inputs":[{"indexed":false,"internalType":"bytes32","name":"entropy","type":"bytes32"},{"indexed":false,"internalType":"uint256","name":"timestamp","type":"uint256"}],"name":"QuantumEntropyUsed","type":"event"},{"anonymous":false,"inputs":[{"indexed":true,"internalType":"address","name":"user","type":"address"},{"indexed":false,"internalType":"bytes32","name":"keyHash","type":"bytes32"}],"name":"QuantumKeyRegistered","type":"event"},{"anonymous":false,"inputs":[{"indexed":true,"internalType":"uint256","name":"tradeId","type":"uint256"},{"indexed":true,"internalType":"address","name":"signer","type":"address"}],"name":"QuantumSignatureVerified","type":"event"},{"anonymous":false,"inputs":[{"indexed":true,"internalType":"bytes32","name":"role","type":"bytes32"},{"indexed":true,"internalType":"bytes32","name":"previousAdminRole","type":"bytes32"},{"indexed":true,"internalType":"bytes32","name":"newAdminRole","type":"bytes32"}],"name":"RoleAdminChanged","type":"event"},{"anonymous":false,"inputs":[{"indexed":true,"internalType":"bytes32","name":"role","type":"bytes32"},{"indexed":true,"internalType":"address","name":"account","type":"address"},{"indexed":true,"internalType":"address","name":"sender","type":"address"}],"name":"RoleGranted","type":"event"},{"anonymous":false,"inputs":[{"indexed":true,"internalType":"bytes32","name":"role","type":"bytes32"},{"indexed":true,"internalType":"address","name":"account","type":"address"},{"indexed":true,"internalType":"address","name":"sender","type":"address"}],"name":"RoleRevoked","type":"event"},{"anonymous":false,"inputs":[{"indexed":true,"internalType":"uint256","name":"tradeId","type":"uint256"},{"indexed":false,"internalType":"string","name":"reason","type":"string"}],"name":"TradeCancelled","type":"event"},{"anonymous":false,"inputs":[{"indexed":true,"internalType":"uint256","name":"tradeId","type":"uint256"},{"indexed":false,"internalType":"bytes32","name":"quantumHash","type":"bytes32"}],"name":"TradeConfirmed","type":"event"},{"anonymous":false,"inputs":[{"indexed":true,"internalType":"uint256","name":"tradeId","type":"uint256"},{"indexed":true,"internalType":"address","name":"buyer","type":"address"},{"indexed":true,"internalType":"address","name":"seller","type":"address"},{"indexed":false,"internalType":"enum QRLTrade.CommodityType","name":"commodity","type":"uint8"},{"indexed":false,"internalType":"uint256","name":"quantity","type":"uint256"},{"indexed":false,"internalType":"uint256","name":"price","type":"uint256"}],"name":"TradeCreated","type":"event"},{"anonymous":false,"inputs":[{"indexed":true,"internalType":"uint256","name":"tradeId","type":"uint256"},{"indexed":false,"internalType":"uint256","name":"settlementTime","type":"uint256"}],"name":"TradeSettled","type":"event"},{"anonymous":false,"inputs":[{"indexed":false,"internalType":"address","name":"account","type":"address"}],"name":"Unpaused","type":"event"},{"inputs":[],"name":"DEFAULT_ADMIN_ROLE","outputs":[{"internalType":"bytes32","name":"","type":"bytes32"}],"stateMutability":"view","type":"function"},{"inputs":[],"name":"ORACLE_ROLE","outputs":[{"internalType":"bytes32","name":"","type":"bytes32"}],"stateMutability":"view","type":"function"},{"inputs":[],"name":"QUANTUM_VALIDATOR_ROLE","outputs":[{"internalType":"bytes32","name":"","type":"bytes32"}],"stateMutability":"view","type":"function"},{"inputs":[],"name":"TRADER_ROLE","outputs":[{"internalType":"bytes32","name":"","type":"bytes32"}],"stateMutability":"view","type":"function"},{"inputs":[{"internalType":"uint256","name":"tradeId","type":"uint256"},{"internalType":"string","name":"reason","type":"string"}],"name":"cancelTrade","outputs":[],"stateMutability":"nonpayable","type":"function"},{"inputs":[{"internalType":"uint256","name":"tradeId","type":"uint256"},{"internalType":"bytes","name":"signature","type":"bytes"},{"internalType":"bytes32","name":"quantumEntropy","type":"bytes32"}],"name":"confirmTrade","outputs":[],"stateMutability":"nonpayable","type":"function"},{"inputs":[{"internalType":"address","name":"seller","type":"address"},{"internalType":"enum QRLTrade.CommodityType","name":"commodity","type":"uint8"},{"internalType":"uint256","name":"quantity","type":"uint256"},{"internalType":"uint256","name":"price","type":"uint256"},{"internalType":"uint256","name":"deliveryDate","type":"uint256"},{"internalType":"bytes32","name":"quantumEntropy","type":"bytes32"}],"name":"createTrade","outputs":[{"internalType":"uint256","name":"tradeId","type":"uint256"}],"stateMutability":"nonpayable","type":"function"},{"inputs":[],"name":"generateQuantumEntropy","outputs":[{"internalType":"bytes32","name":"","type":"bytes32"}],"stateMutability":"nonpayable","type":"function"},{"inputs":[],"name":"getPlatformStats","outputs":[{"internalType":"uint256","name":"volume","type":"uint256"},{"internalType":"uint256","name":"value","type":"uint256"},{"internalType":"uint256","name":"tradeCount","type":"uint256"}],"stateMutability":"view","type":"function"},{"inputs":[{"internalType":"address","name":"user","type":"address"}],"name":"getQuantumKey","outputs":[{"components":[{"internalType":"bytes32","name":"keyHash","type":"bytes32"},{"internalType":"bytes","name":"publicKey","type":"bytes"},{"internalType":"uint256","name":"createdAt","type":"uint256"},{"internalType":"uint256","name":"expiresAt","type":"uint256"},{"internalType":"bool","name":"isActive","type":"bool"},{"internalType":"uint256","name":"usageCount","type":"uint256"}],"internalType":"struct QRLTrade.QuantumKey","name":"","type":"tuple"}],"stateMutability":"view","type":"function"},{"inputs":[{"internalType":"bytes32","name":"role","type":"bytes32"}],"name":"getRoleAdmin","outputs":[{"internalType":"bytes32","name":"","type":"bytes32"}],"stateMutability":"view","type":"function"},{"inputs":[{"internalType":"uint256","name":"tradeId","type":"uint256"}],"name":"getTrade","outputs":[{"components":[{"internalType":"uint256","name":"tradeId","type":"uint256"},{"internalType":"address","name":"buyer","type":"address"},{"internalType":"address","name":"seller","type":"address"},{"internalType":"enum QRLTrade.CommodityType","name":"commodity","type":"uint8"},{"internalType":"uint256","name":"quantity","type":"uint256"},{"internalType":"uint256","name":"price","type":"uint256"},{"internalType":"uint256","name":"deliveryDate","type":"uint256"},{"internalType":"uint256","name":"createdAt","type":"uint256"},{"internalType":"enum QRLTrade.TradeStatus","name":"status","type":"uint8"},{"components":[{"internalType":"bytes32","name":"messageHash","type":"bytes32"},{"internalType":"bytes","name":"signature","type":"bytes"},{"internalType":"uint256","name":"timestamp","type":"uint256"},{"internalType":"bytes32","name":"quantumEntropy","type":"bytes32"},{"internalType":"bool","name":"verified","type":"bool"}],"internalType":"struct QRLTrade.QuantumSignature","name":"buyerSignature","type":"tuple"},{"components":[{"internalType":"bytes32","name":"messageHash","type":"bytes32"},{"internalType":"bytes","name":"signature","type":"bytes"},{"internalType":"uint256","name":"timestamp","type":"uint256"},{"internalType":"bytes32","name":"quantumEntropy","type":"bytes32"},{"internalType":"bool","name":"verified","type":"bool"}],"internalType":"struct QRLTrade.QuantumSignature","name":"sellerSignature","type":"tuple"},{"internalType":"bytes32","name":"quantumTradeHash","type":"bytes32"},{"internalType":"bool","name":"quantumVerified","type":"bool"}],"internalType":"struct QRLTrade.EnergyTrade","name":"","type":"tuple"}],"stateMutability":"view","type":"function"},{"inputs":[{"internalType":"address","name":"user","type":"address"}],"name":"getUserTrades","outputs":[{"internalType":"uint256[]","name":"","type":"uint256[]"}],"stateMutability":"view","type":"function"},{"inputs":[{"internalType":"bytes32","name":"role","type":"bytes32"},{"internalType":"address","name":"account","type":"address"}],"name":"grantRole","outputs":[],"stateMutability":"nonpayable","type":"function"},{"inputs":[{"internalType":"bytes32","name":"role","type":"bytes32"},{"internalType":"address","name":"account","type":"address"}],"name":"hasRole","outputs":[{"internalType":"bool","name":"","type":"bool"}],"stateMutability":"view","type":"function"},{"inputs":[{"internalType":"bytes32","name":"entropy","type":"bytes32"}],"name":"isQuantumEntropyUsed","outputs":[{"internalType":"bool","name":"","type":"bool"}],"stateMutability":"view","type":"function"},{"inputs":[],"name":"pause","outputs":[],"stateMutability":"nonpayable","type":"function"},{"inputs":[],"name":"paused","outputs":[{"internalType":"bool","name":"","type":"bool"}],"stateMutability":"view","type":"function"},{"inputs":[],"name":"quantumEntropyNonce","outputs":[{"internalType":"uint256","name":"","type":"uint256"}],"stateMutability":"view","type":"function"},{"inputs":[],"name":"quantumOracle","outputs":[{"internalType":"address","name":"","type":"address"}],"stateMutability":"view","type":"function"},{"inputs":[{"internalType":"bytes","name":"publicKey","type":"bytes"},{"internalType":"uint256","name":"validityPeriod","type":"uint256"}],"name":"registerQuantumKey","outputs":[],"stateMutability":"nonpayable","type":"function"},{"inputs":[{"internalType":"bytes32","name":"role","type":"bytes32"},{"internalType":"address","name":"callerConfirmation","type":"address"}],"name":"renounceRole","outputs":[],"stateMutability":"nonpayable","type":"function"},{"inputs":[{"internalType":"bytes32","name":"role","type":"bytes32"},{"internalType":"address","name":"account","type":"address"}],"name":"revokeRole","outputs":[],"stateMutability":"nonpayable","type":"function"},{"inputs":[{"internalType":"uint256","name":"tradeId","type":"uint256"}],"name":"settleTrade","outputs":[],"stateMutability":"payable","type":"function"},{"inputs":[{"internalType":"bytes4","name":"interfaceId","type":"bytes4"}],"name":"supportsInterface","outputs":[{"internalType":"bool","name":"","type":"bool"}],"stateMutability":"view","type":"function"},{"inputs":[],"name":"totalValue","outputs":[{"internalType":"uint256","name":"","type":"uint256"}],"stateMutability":"view","type":"function"},{"inputs":[],"name":"totalVolume","outputs":[{"internalType":"uint256","name":"","type":"uint256"}],"stateMutability":"view","type":"function"},{"inputs":[{"internalType":"uint256","name":"","type":"uint256"}],"name":"trades","outputs":[{"internalType":"uint256","name":"tradeId","type":"uint256"},{"internalType":"address","name":"buyer","type":"address"},{"internalType":"address","name":"seller","type":"address"},{"internalType":"enum QRLTrade.CommodityType","name":"commodity","type":"uint8"},{"internalType":"uint256","name":"quantity","type":"uint256"},{"internalType":"uint256","name":"price","type":"uint256"},{"internalType":"uint256","name":"deliveryDate","type":"uint256"},{"internalType":"uint256","name":"createdAt","type":"uint256"},{"internalType":"enum QRLTrade.TradeStatus","name":"status","type":"uint8"},{"components":[{"internalType":"bytes32","name":"messageHash","type":"bytes32"},{"internalType":"bytes","name":"signature","type":"bytes"},{"internalType":"uint256","name":"timestamp","type":"uint256"},{"internalType":"bytes32","name":"quantumEntropy","type":"bytes32"},{"internalType":"bool","name":"verified","type":"bool"}],"internalType":"struct QRLTrade.QuantumSignature","name":"buyerSignature","type":"tuple"},{"components":[{"internalType":"bytes32","name":"messageHash","type":"bytes32"},{"internalType":"bytes","name":"signature","type":"bytes"},{"internalType":"uint256","name":"timestamp","type":"uint256"},{"internalType":"bytes32","name":"quantumEntropy","type":"bytes32"},{"internalType":"bool","name":"verified","type":"bool"}],"internalType":"struct QRLTrade.QuantumSignature","name":"sellerSignature","type":"tuple"},{"internalType":"bytes32","name":"quantumTradeHash","type":"bytes32"},{"internalType":"bool","name":"quantumVerified","type":"bool"}],"stateMutability":"view","type":"function"},{"inputs":[],"name":"unpause","outputs":[],"stateMutability":"nonpayable","type":"function"},{"inputs":[{"internalType":"address","name":"newOracle","type":"address"}],"name":"updateQuantumOracle","outputs":[],"stateMutability":"nonpayable","type":"function"},{"inputs":[{"internalType":"bytes32","name":"","type":"bytes32"}],"name":"usedQuantumEntropy","outputs":[{"internalType":"bool","name":"","type":"bool"}],"stateMutability":"view","type":"function"},{"inputs":[{"internalType":"address","name":"","type":"address"}],"name":"userQuantumKeys","outputs":[{"internalType":"bytes32","name":"keyHash","type":"bytes32"},{"internalType":"bytes","name":"publicKey","type":"bytes"},{"internalType":"uint256","name":"createdAt","type":"uint256"},{"internalType":"uint256","name":"expiresAt","type":"uint256"},{"internalType":"bool","name":"isActive","type":"bool"},{"internalType":"uint256","name":"usageCount","type":"uint256"}],"stateMutability":"view","type":"function"},{"inputs":[{"internalType":"address","name":"","type":"address"},{"internalType":"uint256","name":"","type":"uint256"}],"name":"userTrades","outputs":[{"internalType":"uint256","name":"","type":"uint256"}],"stateMutability":"view","type":"function"},{"stateMutability":"payable","type":"receive"}],"evm":{"bytecode":{"linkReferences":{},"object":"6080346200009c57601f62002ff138819003918201601f19168301916001600160401b03831184841017620000a1578084926020946040528339810103126200009c57516001600160a01b038116908181036200009c57620000729060016000556200006b33620000b7565b5062000138565b50600a80546001600160a01b0319169190911790556001600755604051612df59081620001dc8239f35b600080fd5b634e487b7160e01b600052604160045260246000fd5b6001600160a01b031660008181527fa6eef7e35abe7026729641147f7915573c7e97b47efa546f5f6e3230263bcb49602052604081205490919060ff16620001345781805260016020526040822081835260205260408220600160ff19825416179055339160008051602062002fd18339815191528180a4600190565b5090565b6001600160a01b031660008181527ff7c11a6d0ec535894a90c88b42cba2ccb348cb15b5e3ad22a710d1d4ac63281960205260408120549091907f68e79a7bf1e0bc45d0a330c573bc367f9cf464fd326078812f301165fbda4ef19060ff16620001d65780835260016020526040832082845260205260408320600160ff1982541617905560008051602062002fd1833981519152339380a4600190565b50509056fe6080604052600436101561006d575b361561001957600080fd5b60405162461bcd60e51b815260206004820152602660248201527f51524c54726164653a20446972656374207061796d656e7473206e6f7420616360448201526518d95c1d195960d21b6064820152608490fd5b60003560e01c806248456c14611ea4578062e07a4814611e7b57806301ffc9a714611e2557806303bba21d14611d5c57806307e2cea514611d335780630c7648fa14610344578063135dec5014611c3c578063136d888314611c00578063183c0072146119025780631abfcefe146118195780631e6c598e14611713578063248a9ca3146116e45780632db25e05146114be5780632f2ff15d1461147f57806336568abe146114385780633f4ba83a146113ce5780634f5de44a146113b0578063513f7cbc146111d05780635c975abb146111ad5780635f81a57c1461118f578063632381321461086657806373422d93146105445780638456cb59146104ea57806391d148541461049d578063927c7742146103e9578063a217fddf146103cd578063b1b1ffab14610375578063bf3b0f0b14610344578063d4c3eea014610326578063d547741f146102e5578063dcc577eb146102aa578063f0a56fc81461026f5763fa5f24ba0361000e573461026a57602036600319011261026a576001600160a01b036101fc612606565b1660005260046020526040600020805461021860018301612742565b91600281015490600381015490600560ff6004830154169101549161024f604051968796875260c0602088015260c0870190612655565b93604086015260608501521515608084015260a08301520390f35b600080fd5b3461026a57600036600319011261026a5760206040517ffacaf2747a7486cf5730e9265973fb54447d3ace6e7e4711f6360826b07319418152f35b3461026a57600036600319011261026a5760206040517f31cae59f465ac92b04160088ed0c3ab981b8a7a1333388990d0514edd3a837088152f35b3461026a57604036600319011261026a5761032460043561030461261c565b9080600052600160205261031f6001604060002001546128f8565b612ad4565b005b3461026a57600036600319011261026a576020600954604051908152f35b3461026a57602036600319011261026a576004356000526005602052602060ff604060002054166040519015158152f35b3461026a57604036600319011261026a5761038e612606565b6001600160a01b031660009081526006602052604090208054602435919082101561026a576020916103bf91612890565b90546040519160031b1c8152f35b3461026a57600036600319011261026a57602060405160008152f35b3461026a5760208060031936011261026a576001600160a01b0361040b612606565b1660005260068152604060002060405190818382549182815201908192600052846000209060005b8682821061048957868661044982880383612721565b604051928392818401908285525180915260408401929160005b82811061047257505050500390f35b835185528695509381019392810192600101610463565b835485529093019260019283019201610433565b3461026a57604036600319011261026a576104b661261c565b600435600052600160205260406000209060018060a01b0316600052602052602060ff604060002054166040519015158152f35b3461026a57600036600319011261026a576105036128be565b61050b612ce6565b600160ff1960025416176002557f62e78cea01bee320cd4e420270b5ea74000d11b0c9f74754ebdbfc544b05a2586020604051338152a1005b60208060031936011261026a5760043590816000526003815260ff601360406000200154161561081657610576612d04565b61057e612ce6565b8160005260038152604060002060078101600160ff82541661059f81612830565b036107d15760018201546001600160a01b0392908316330361078c576003810192835460048301549081810291818304149015171561077657340361072657600582015442106106d55760008080938193600234920154165af13d156106d0573d61060981612b58565b906106176040519283612721565b81526000853d92013e5b1561068157805460ff19166002179055546008547f3a065da622a5998bc080739b644efc5a9cef4dd337b2fd39f8a050699b1062a6929161066191612b4b565b60085561067034600954612b4b565b600955604051428152a26001600055005b60405162461bcd60e51b815260048101849052602160248201527f51524c54726164653a205061796d656e74207472616e73666572206661696c656044820152601960fa1b6064820152608490fd5b610621565b60405162461bcd60e51b815260048101869052602360248201527f51524c54726164653a2044656c69766572792064617465206e6f7420726561636044820152621a195960ea1b6064820152608490fd5b60405162461bcd60e51b815260048101869052602260248201527f51524c54726164653a20496e636f7272656374207061796d656e7420616d6f756044820152611b9d60f21b6064820152608490fd5b634e487b7160e01b600052601160045260246000fd5b60405162461bcd60e51b815260048101859052601f60248201527f51524c54726164653a204f6e6c792062757965722063616e20736574746c65006044820152606490fd5b60405162461bcd60e51b815260048101849052601d60248201527f51524c54726164653a205472616465206e6f7420636f6e6669726d65640000006044820152606490fd5b6084906040519062461bcd60e51b825260048201526024808201527f51524c54726164653a205472616465206e6f74207175616e74756d2076657269604482015263199a595960e21b6064820152fd5b3461026a5760c036600319011261026a5761087f612606565b6005602435101561026a573360005260046020526108a760ff60046040600020015416612baa565b3360005260046020526108c36003604060002001544210612bf6565b60018060a01b03811660005260046020526108e860ff60046040600020015416612baa565b60018060a01b038116600052600460205261090c4260036040600020015411612bf6565b610914612d04565b61091c612ce6565b6001600160a01b038116331461113e57604435156110ed57606435156110a9574260843511156110525760a435600052600560205261096360ff6040600020541615612c42565b600060a435805b61103b57506064811015908161102f575b5015610fe05760075461098d81612c9d565b600755604051918160208401523360601b60408401526001600160601b03198160601b1660548401526109c1602435612830565b60243560f81b60688401526044356069840152606435608984015260843560a984015260a43560c98401524260e984015260e98352826101208101106001600160401b0361012085011117610f0257610120830160405282516020840120610a2c61012085016126cf565b6000610120850152604051610a4081612706565b600081526101408501526000610160850152600061018085015260006101a0850152604051610a6e816126cf565b60008152604051610a7e81612706565b60008152602082015260006040820152600060608201526000608082015261012060405195610aac876126ea565b8587523360208801526001600160a01b0385166040880152610acf602435612830565b6024356060880152604435608088015260643560a088015260843560c08801524260e088015260006101008801520161012086015261014085015261016084015260006101808401528160005260036020526040600020835181556001810160018060a01b036020860151166001600160601b0360a01b8254161790556002810160018060a01b036040860151168154906060870151610b6e81612830565b610b7781612830565b6001600160a81b03199092161760a091821b60ff60a01b161790915560808501516003830155840151600482015560c0840151600582015560e084015160068201556101008401516007820190610bcd81612830565b610bd681612830565b60ff801983541691161790556101208401518051600883015560208101518051906001600160401b038211610f0257610c12600985015461267a565b601f8111610f99575b50602090601f8311600114610f23579180610c819492608094600092610f18575b50508160011b916000199060031b1c19161760098501555b6040810151600a8501556060810151600b85015501511515600c83019060ff801983541691151516179055565b610140840151938451600d83015560208501519485516001600160401b038111610f0257610cb2600e85015461267a565b96601f8811610ebb575b602097508790601f8311600114610e3d5760806013948461018095610d50999895610d2e95600092610e32575b50508160011b916000199060031b1c191617600e8801555b6040810151600f8801556060810151601088015501511515601186019060ff801983541691151516179055565b61016081015160128501550151151591019060ff801983541691151516179055565b3360005260068352610d66826040600020612cac565b60018060a01b03811660005260068352610d84826040600020612cac565b60a435600052600583526040600020600160ff1982541617905560405190610dad602435612830565b60243582526044358483015260643560408301526001600160a01b031690339083907fbd567df9b9489c301f77254b572b65ae91208fe4668325ceea3136fe5d3efb4390606090a47f83f66337b809447001604ace11a9a88f56110ef4f1107a241f4e4c79763b84cf6040805160a43581524285820152a16001600055604051908152f35b015190508d80610ce9565b90600e8601600052886000209160005b601f1985168110610ea45750601394600185610d50999895610d2e9560809561018099601f19811610610e8b575b505050811b01600e880155610d01565b015160001960f88460031b161c191690558d8080610e7b565b91928a600181928685015181550194019201610e4d565b600e85016000526020600020601f830160051c810160208410610efb575b601f8a0160051c82018110610eef575050610cbc565b60008155600101610ed9565b5080610ed9565b634e487b7160e01b600052604160045260246000fd5b015190508980610c3c565b906009850160005260206000209160005b601f1985168110610f81575092610c81949260019260809583601f19811610610f68575b505050811b016009850155610c54565b015160001960f88460031b161c19169055898080610f58565b91926020600181928685015181550194019201610f34565b600985016000526020600020601f840160051c810160208510610fd9575b601f830160051c82018110610fcd575050610c1b565b60008155600101610fb7565b5080610fb7565b60405162461bcd60e51b815260206004820152602160248201527f51524c54726164653a20496e76616c6964207175616e74756d20656e74726f706044820152607960f81b6064820152608490fd5b609c915011158261097b565b61104a60019283831690612b4b565b911c8061096a565b60405162461bcd60e51b815260206004820152602960248201527f51524c54726164653a2044656c69766572792064617465206d75737420626520604482015268696e2066757475726560b81b6064820152608490fd5b606460405162461bcd60e51b815260206004820152602060248201527f51524c54726164653a205072696365206d75737420626520706f7369746976656044820152fd5b60405162461bcd60e51b815260206004820152602360248201527f51524c54726164653a205175616e74697479206d75737420626520706f73697460448201526269766560e81b6064820152608490fd5b60405162461bcd60e51b8152602060048201526024808201527f51524c54726164653a2043616e6e6f74207472616465207769746820796f757260448201526339b2b63360e11b6064820152608490fd5b3461026a57600036600319011261026a576020600854604051908152f35b3461026a57600036600319011261026a57602060ff600254166040519015158152f35b3461026a57604036600319011261026a576004356024356001600160401b03811161026a576112039036906004016125d9565b61120e929192612d04565b611216612ce6565b8160005260209260038452604060002061123281541515612d27565b600781019081549060ff821661124781612830565b61135f576001810154336001600160a01b039182161491821561134e575b5050801561132c575b156112d157836040937fc742381126185889f1ed17e46bced0266b422cdd0ee6e26d1ccac51250ff63c69697936003839460ff19161790558451958487958652850152848401376000828201840152601f01601f19168101030190a26001600055005b60405162461bcd60e51b815260048101879052602d60248201527f51524c54726164653a204e6f7420617574686f72697a656420746f2063616e6360448201526c656c207468697320747261646560981b6064820152608490fd5b506000805260018652604060002033600052865260ff6040600020541661126e565b600291925001541633148780611265565b60405162461bcd60e51b815260048101889052602360248201527f51524c54726164653a2054726164652063616e6e6f742062652063616e63656c6044820152621b195960ea1b6064820152608490fd5b3461026a57600036600319011261026a576020600b54604051908152f35b3461026a57600036600319011261026a576113e76128be565b60025460ff8116156114265760ff19166002557f5db9ee0a495bf2e6ff9c91a7834c1ba4fdd244a5e8aa4e537bd38aeae4b073aa6020604051338152a1005b604051638dfc202b60e01b8152600490fd5b3461026a57604036600319011261026a5761145161261c565b336001600160a01b0382160361146d5761032490600435612ad4565b60405163334bd91960e11b8152600490fd5b3461026a57604036600319011261026a5761032460043561149e61261c565b908060005260016020526114b96001604060002001546128f8565b6129bf565b3461026a57602036600319011261026a5760006101806040516114e0816126ea565b8281528260208201528260408201528260608201528260808201528260a08201528260c08201528260e08201528261010082015261151c612d73565b61012082015261152a612d73565b6101408201528261016082015201526004356000526003602052604060002060ff60136040519261155a846126ea565b8054845260018101546001600160a01b0390811660208601526002820154908116604086015260a01c831661158e81612830565b606085015260038101546080850152600481015460a0850152600581015460c0850152600681015460e0850152826007820154166115cb81612830565b6101008501526115dd600882016127e8565b6101208501526115ef600d82016127e8565b610140850152601281015461016085015201541615156101808201526040518091602082528051602083015260018060a01b03602082015116604083015260018060a01b036040820151166060830152606081015161164d81612830565b6080830152608081015160a083015260a081015160c083015260c081015160e083015260e081015161010083015261010081015161168a81612830565b6101208301526101208101516101806116cd6116b56101a093846101408801526101c0870190612850565b610140850151868203601f1901610160880152612850565b926101608101518286015201511515908301520390f35b3461026a57602036600319011261026a5760043560005260016020526020600160406000200154604051908152f35b3461026a57602036600319011261026a57600435600052600360205260406000208054600160a01b600190039182600182015416926002820154600383015460048401546005850154600686015490600787015460ff169260088801611778906127e8565b94611785600d8a016127e8565b9660128a0154996013015460ff16986040519c8d9c8d5260208d0152811660408c015260a01c60ff166117b781612830565b60608b015260808a015260a089015260c088015260e08701526117d981612830565b6101008601526101a08061012087015285016117f491612850565b84810361014086015261180691612850565b9161016084015215156101808301520390f35b3461026a57602036600319011261026a57611832612606565b61183a6128be565b6001600160a01b038181169182156118be576118a591600a5416611886600080516020612da0833981519152918260005260016020526118816001604060002001546128f8565b612a3a565b5060005260016020526118a06001604060002001546128f8565b61291e565b506001600160601b0360a01b600a541617600a55600080f35b606460405162461bcd60e51b815260206004820152602060248201527f51524c54726164653a20496e76616c6964206f7261636c6520616464726573736044820152fd5b3461026a57604036600319011261026a576001600160401b0360043581811161026a576119339036906004016125d9565b6024359260208210611baf576301e133808411611b5f576119a461198c6040516020810190858783376119826054828881013360601b6020820152426034820152036034810184520182612721565b5190209542612b4b565b936040519361199a856126b4565b8685523691612b73565b9260208301938452426040840152606083015260016080830152600060a083015233600052600460205260406000209282518455518051918211610f02576119ef600185015461267a565b601f8111611b14575b50602090601f8311600114611aa15791806005949260a094600092611a96575b50508160011b916000199060031b1c19161760018501555b6040810151600285015560608101516003850155611a6360808201511515600486019060ff801983541691151516179055565b01519101556040519081527ffe20466623bf997b9345fce4f083c5fa8bba90e4725cd89455e9afc9ee381fb760203392a2005b015190508780611a18565b90601f198316916001860160005260206000209260005b818110611afc575092600192859260a0966005989610611ae3575b505050811b016001850155611a30565b015160001960f88460031b161c19169055878080611ad3565b92936020600181928786015181550195019301611ab8565b600185016000526020600020601f840160051c81019160208510611b55575b601f0160051c01905b818110611b4957506119f8565b60008155600101611b3c565b9091508190611b33565b60405162461bcd60e51b815260206004820152602260248201527f51524c54726164653a2056616c696469747920706572696f6420746f6f206c6f6044820152616e6760f01b6064820152608490fd5b60405162461bcd60e51b815260206004820152602360248201527f51524c54726164653a20496e76616c6964207075626c6963206b6579206c656e6044820152620cee8d60eb1b6064820152608490fd5b3461026a57600036600319011261026a576008546009549060075460001981019081116107765760609260405192835260208301526040820152f35b3461026a5760208060031936011261026a57611c56612606565b600060a0604051611c66816126b4565b828152606085820152826040820152826060820152826080820152015260018060a01b031660005260048152604060002060405190611ca4826126b4565b80548252611cb460018201612742565b83830190815260028201549160408401928352600381015460608501908152611d14600560ff6004850154169360808801941515855201549360a0870194855260405197889781895251908801525160c0604088015260e0870190612655565b9351606086015251608085015251151560a08401525160c08301520390f35b3461026a57600036600319011261026a576020604051600080516020612da08339815191528152f35b3461026a57600036600319011261026a573360009081527ff7c11a6d0ec535894a90c88b42cba2ccb348cb15b5e3ad22a710d1d4ac6328196020526040902054600080516020612da08339815191529060ff1615611e0757611dbf600b54612c9d565b80600b55600019430190438211610776576020916040519083820192428452446040840152606083015240608082015260808152611dfc816126cf565b519020604051908152f35b6044906040519063e2517d3f60e01b82523360048301526024820152fd5b3461026a57602036600319011261026a5760043563ffffffff60e01b811680910361026a57602090637965db0b60e01b8114908115611e6a575b506040519015158152f35b6301ffc9a760e01b14905082611e5f565b3461026a57600036600319011261026a57600a546040516001600160a01b039091168152602090f35b3461026a57606036600319011261026a576024356001600160401b03811161026a57611ed49036906004016125d9565b90336000526004602052611ef260ff60046040600020015416612baa565b336000526004602052611f0e6003604060002001544210612bf6565b611f16612d04565b611f1e612ce6565b6004356000526003602052604060002091611f3b83541515612d27565b60ff600784015416611f4c81612830565b612594576001830154336001600160a01b0391821614919082908115612584575b5015612528576044356000526005602052611f9060ff6040600020541615612c42565b60128401546040516020810191600435835260408201523360601b6060820152604435607482015260748152611fc5816126cf565b51902092336000526004602052604060002060405190611fe4826126b4565b80548252611ff460018201612742565b60208301526002810154604083015260038101546060830152600560ff600483015416159182156080850152015460a08301526124e3576020015160405161206d6054826020810194898652612054815180926020604086019101612632565b81013360601b6040820152036034810184520182612721565b51902061207b368484612b73565b6020815191012003612492576120a19160405194612098866126cf565b85523691612b73565b602083018181524260408501526044356060850152600160808501529115612330575081516008840155518051906001600160401b038211610f02576120ea600985015461267a565b601f81116122e9575b50602090601f831160011461227457918061215794926080946000926122695750508160011b916000199060031b1c19161760098501556040810151600a8501556060810151600b85015501511515600c83019060ff801983541691151516179055565b60ff600c820154168061225b575b612203575b60443560005260056020526040600020600160ff1982541617905533600052600460205260056040600020016121a08154612c9d565b90557f83f66337b809447001604ace11a9a88f56110ef4f1107a241f4e4c79763b84cf60408051336004357f6f2fc0168e577c2d847b430c6b05a88c6a40ab1ff4c45ebf20cc89f64bf9fade600080a36044358152426020820152a16001600055005b60129060ff196001816007840154161760078301556001601383019182541617905501546040519081527f32cfb1d59ccb25544919a13a38c885dd9dbbfdf3f35da4f2577e1a427259bc8d602060043592a28061216a565b5060ff601182015416612165565b015190508680610c3c565b906009850160005260206000209160005b601f19851681106122d1575092612157949260019260809583601f198116106122b857505050811b016009850155610c54565b015160001960f88460031b161c19169055868080610f58565b91926020600181928685015181550194019201612285565b600985016000526020600020601f840160051c810160208510612329575b601f830160051c8201811061231d5750506120f3565b60008155600101612307565b5080612307565b8251600d850155805191506001600160401b038211610f0257612356600e85015461267a565b601f811161244b575b50602090601f83116001146123d55791806123c594926080946000926123ca575b50508160011b916000199060031b1c191617600e8501555b6040810151600f8501556060810151601085015501511515601183019060ff801983541691151516179055565b612157565b015190508680612380565b90600e850160005260206000209160005b601f19851681106124335750926123c5949260019260809583601f1981161061241a575b505050811b01600e850155612398565b015160001960f88460031b161c1916905586808061240a565b919260206001819286850151815501940192016123e6565b600e85016000526020600020601f840160051c81016020851061248b575b601f830160051c8201811061247f57505061235f565b60008155600101612469565b5080612469565b60405162461bcd60e51b815260206004820152602360248201527f51524c54726164653a20496e76616c6964207175616e74756d207369676e617460448201526275726560e81b6064820152608490fd5b60405162461bcd60e51b815260206004820152601f60248201527f51524c54726164653a205369676e6572206b6579206e6f7420616374697665006044820152606490fd5b60405162461bcd60e51b815260206004820152602e60248201527f51524c54726164653a204e6f7420617574686f72697a656420746f20636f6e6660448201526d69726d207468697320747261646560901b6064820152608490fd5b9050600285015416331485611f6d565b60405162461bcd60e51b815260206004820152601b60248201527f51524c54726164653a205472616465206e6f742070656e64696e6700000000006044820152606490fd5b9181601f8401121561026a578235916001600160401b03831161026a576020838186019501011161026a57565b600435906001600160a01b038216820361026a57565b602435906001600160a01b038216820361026a57565b60005b8381106126455750506000910152565b8181015183820152602001612635565b9060209161266e81518092818552858086019101612632565b601f01601f1916010190565b90600182811c921680156126aa575b602083101461269457565b634e487b7160e01b600052602260045260246000fd5b91607f1691612689565b60c081019081106001600160401b03821117610f0257604052565b60a081019081106001600160401b03821117610f0257604052565b6101a081019081106001600160401b03821117610f0257604052565b602081019081106001600160401b03821117610f0257604052565b90601f801991011681019081106001600160401b03821117610f0257604052565b90604051918260008254926127568461267a565b9081845260019485811690816000146127c55750600114612782575b505061278092500383612721565b565b9093915060005260209081600020936000915b8183106127ad57505061278093508201013880612772565b85548884018501529485019487945091830191612795565b91505061278094506020925060ff191682840152151560051b8201013880612772565b906040516127f5816126cf565b608060ff600483958054855261280d60018201612742565b602086015260028101546040860152600381015460608601520154161515910152565b6005111561283a57565b634e487b7160e01b600052602160045260246000fd5b9081518152608080612871602085015160a0602086015260a0850190612655565b9360408101516040850152606081015160608501520151151591015290565b80548210156128a85760005260206000200190600090565b634e487b7160e01b600052603260045260246000fd5b3360009081527fa6eef7e35abe7026729641147f7915573c7e97b47efa546f5f6e3230263bcb49602052604081205460ff1615611e075750565b80600052600160205260406000203360005260205260ff6040600020541615611e075750565b6001600160a01b031660008181527ff7c11a6d0ec535894a90c88b42cba2ccb348cb15b5e3ad22a710d1d4ac6328196020526040812054909190600080516020612da08339815191529060ff166129ba5780835260016020526040832082845260205260408320600160ff198254161790557f2f8788117e7eff1d82e926ec794901d17c78024a50270940304540a733656f0d339380a4600190565b505090565b906000918083526001602052604083209160018060a01b03169182845260205260ff604084205416156000146129ba5780835260016020526040832082845260205260408320600160ff198254161790557f2f8788117e7eff1d82e926ec794901d17c78024a50270940304540a733656f0d339380a4600190565b6001600160a01b031660008181527ff7c11a6d0ec535894a90c88b42cba2ccb348cb15b5e3ad22a710d1d4ac6328196020526040812054909190600080516020612da08339815191529060ff16156129ba578083526001602052604083208284526020526040832060ff1981541690557ff6391f5c32d9c69d2a47ea670b442974b53935d1edc7fd64eb21e047a839171b339380a4600190565b906000918083526001602052604083209160018060a01b03169182845260205260ff6040842054166000146129ba578083526001602052604083208284526020526040832060ff1981541690557ff6391f5c32d9c69d2a47ea670b442974b53935d1edc7fd64eb21e047a839171b339380a4600190565b9190820180921161077657565b6001600160401b038111610f0257601f01601f191660200190565b929192612b7f82612b58565b91612b8d6040519384612721565b82948184528183011161026a578281602093846000960137010152565b15612bb157565b60405162461bcd60e51b815260206004820152601d60248201527f51524c54726164653a20496e76616c6964207175616e74756d206b65790000006044820152606490fd5b15612bfd57565b60405162461bcd60e51b815260206004820152601d60248201527f51524c54726164653a205175616e74756d206b657920657870697265640000006044820152606490fd5b15612c4957565b60405162461bcd60e51b815260206004820152602660248201527f51524c54726164653a205175616e74756d20656e74726f707920616c726561646044820152651e481d5cd95960d21b6064820152608490fd5b60001981146107765760010190565b805468010000000000000000811015610f0257612cce91600182018155612890565b819291549060031b91821b91600019901b1916179055565b60ff60025416612cf257565b60405163d93c066560e01b8152600490fd5b600260005414612d15576002600055565b604051633ee5aeb560e01b8152600490fd5b15612d2e57565b60405162461bcd60e51b815260206004820152601e60248201527f51524c54726164653a20547261646520646f6573206e6f7420657869737400006044820152606490fd5b60405190612d80826126cf565b600060808382815260606020820152826040820152826060820152015256fe68e79a7bf1e0bc45d0a330c573bc367f9cf464fd326078812f301165fbda4ef1a2646970667358221220c6338bf34915d3f5ba3b7d48b3082827bf713ecad032f2dda514d6f230bef1e064736f6c634300081400332f8788117e7eff1d82e926ec794901d17c78024a50270940304540a733656f0d","opcodes":"PUSH1 0x80 CALLVALUE PUSH3 0x9C JUMPI PUSH1 0x1F PUSH3 0x2FF1 CODESIZE DUP2 SWAP1 SUB SWAP2 DUP3 ADD PUSH1 0x1F NOT AND DUP4 ADD SWAP2 PUSH1 0x1 PUSH1 0x1 PUSH1 0x40 SHL SUB DUP4 GT DUP5 DUP5 LT OR PUSH3 0xA1 JUMPI DUP1 DUP5 SWAP3 PUSH1 0x20 SWAP5 PUSH1 0x40 MSTORE DUP4 CODECOPY DUP2 ADD SUB SLT PUSH3 0x9C JUMPI MLOAD PUSH1 0x1 PUSH1 0x1 PUSH1 0xA0 SHL SUB DUP2 AND SWAP1 DUP2 DUP2 SUB PUSH3 0x9C JUMPI PUSH3 0x72 SWAP1 PUSH1 0x1 PUSH1 0x0 SSTORE PUSH3 0x6B CALLER PUSH3 0xB7 JUMP JUMPDEST POP PUSH3 0x138 JUMP JUMPDEST POP PUSH1 0xA DUP1 SLOAD PUSH1 0x1 PUSH1 0x1 PUSH1 0xA0 SHL SUB NOT AND SWAP2 SWAP1 SWAP2 OR SWAP1 SSTORE PUSH1 0x1 PUSH1 0x7 SSTORE PUSH1 0x40 MLOAD PUSH2 0x2DF5 SWAP1 DUP2 PUSH3 0x1DC DUP3 CODECOPY RETURN JUMPDEST PUSH1 0x0 DUP1 REVERT JUMPDEST PUSH4 0x4E487B71 PUSH1 0xE0 SHL PUSH1 0x0 MSTORE PUSH1 0x41 PUSH1 0x4 MSTORE PUSH1 0x24 PUSH1 0x0 REVERT JUMPDEST PUSH1 0x1 PUSH1 0x1 PUSH1 0xA0 SHL SUB AND PUSH1 0x0 DUP2 DUP2 MSTORE PUSH32 0xA6EEF7E35ABE7026729641147F7915573C7E97B47EFA546F5F6E3230263BCB49 PUSH1 0x20 MSTORE PUSH1 0x40 DUP2 KECCAK256 SLOAD SWAP1 SWAP2 SWAP1 PUSH1 0xFF AND PUSH3 0x134 JUMPI DUP2 DUP1 MSTORE PUSH1 0x1 PUSH1 0x20 MSTORE PUSH1 0x40 DUP3 KECCAK256 DUP2 DUP4 MSTORE PUSH1 0x20 MSTORE PUSH1 0x40 DUP3 KECCAK256 PUSH1 0x1 PUSH1 0xFF NOT DUP3 SLOAD AND OR SWAP1 SSTORE CALLER SWAP2 PUSH1 0x0 DUP1 MLOAD PUSH1 0x20 PUSH3 0x2FD1 DUP4 CODECOPY DUP2 MLOAD SWAP2 MSTORE DUP2 DUP1 LOG4 PUSH1 0x1 SWAP1 JUMP JUMPDEST POP SWAP1 JUMP JUMPDEST PUSH1 0x1 PUSH1 0x1 PUSH1 0xA0 SHL SUB AND PUSH1 0x0 DUP2 DUP2 MSTORE PUSH32 0xF7C11A6D0EC535894A90C88B42CBA2CCB348CB15B5E3AD22A710D1D4AC632819 PUSH1 0x20 MSTORE PUSH1 0x40 DUP2 KECCAK256 SLOAD SWAP1 SWAP2 SWAP1 PUSH32 0x68E79A7BF1E0BC45D0A330C573BC367F9CF464FD326078812F301165FBDA4EF1 SWAP1 PUSH1 0xFF AND PUSH3 0x1D6 JUMPI DUP1 DUP4 MSTORE PUSH1 0x1 PUSH1 0x20 MSTORE PUSH1 0x40 DUP4 KECCAK256 DUP3 DUP5 MSTORE PUSH1 0x20 MSTORE PUSH1 0x40 DUP4 KECCAK256 PUSH1 0x1 PUSH1 0xFF NOT DUP3 SLOAD AND OR SWAP1 SSTORE PUSH1 0x0 DUP1 MLOAD PUSH1 0x20 PUSH3 0x2FD1 DUP4 CODECOPY DUP2 MLOAD SWAP2 MSTORE CALLER SWAP4 DUP1 LOG4 PUSH1 0x1 SWAP1 JUMP JUMPDEST POP POP SWAP1 JUMP INVALID PUSH1 0x80 PUSH1 0x40 MSTORE PUSH1 0x4 CALLDATASIZE LT ISZERO PUSH2 0x6D JUMPI JUMPDEST CALLDATASIZE ISZERO PUSH2 0x19 JUMPI PUSH1 0x0 DUP1 REVERT JUMPDEST PUSH1 0x40 MLOAD PUSH3 0x461BCD PUSH1 0xE5 SHL DUP2 MSTORE PUSH1 0x20 PUSH1 0x4 DUP3 ADD MSTORE PUSH1 0x26 PUSH1 0x24 DUP3 ADD MSTORE PUSH32 0x51524C54726164653A20446972656374207061796D656E7473206E6F74206163 PUSH1 0x44 DUP3 ADD MSTORE PUSH6 0x18D95C1D1959 PUSH1 0xD2 SHL PUSH1 0x64 DUP3 ADD MSTORE PUSH1 0x84 SWAP1 REVERT JUMPDEST PUSH1 0x0 CALLDATALOAD PUSH1 0xE0 SHR DUP1 PUSH3 0x48456C EQ PUSH2 0x1EA4 JUMPI DUP1 PUSH3 0xE07A48 EQ PUSH2 0x1E7B JUMPI DUP1 PUSH4 0x1FFC9A7 EQ PUSH2 0x1E25 JUMPI DUP1 PUSH4 0x3BBA21D EQ PUSH2 0x1D5C JUMPI DUP1 PUSH4 0x7E2CEA5 EQ PUSH2 0x1D33 JUMPI DUP1 PUSH4 0xC7648FA EQ PUSH2 0x344 JUMPI DUP1 PUSH4 0x135DEC50 EQ PUSH2 0x1C3C JUMPI DUP1 PUSH4 0x136D8883 EQ PUSH2 0x1C00 JUMPI DUP1 PUSH4 0x183C0072 EQ PUSH2 0x1902 JUMPI DUP1 PUSH4 0x1ABFCEFE EQ PUSH2 0x1819 JUMPI DUP1 PUSH4 0x1E6C598E EQ PUSH2 0x1713 JUMPI DUP1 PUSH4 0x248A9CA3 EQ PUSH2 0x16E4 JUMPI DUP1 PUSH4 0x2DB25E05 EQ PUSH2 0x14BE JUMPI DUP1 PUSH4 0x2F2FF15D EQ PUSH2 0x147F JUMPI DUP1 PUSH4 0x36568ABE EQ PUSH2 0x1438 JUMPI DUP1 PUSH4 0x3F4BA83A EQ PUSH2 0x13CE JUMPI DUP1 PUSH4 0x4F5DE44A EQ PUSH2 0x13B0 JUMPI DUP1 PUSH4 0x513F7CBC EQ PUSH2 0x11D0 JUMPI DUP1 PUSH4 0x5C975ABB EQ PUSH2 0x11AD JUMPI DUP1 PUSH4 0x5F81A57C EQ PUSH2 0x118F JUMPI DUP1 PUSH4 0x63238132 EQ PUSH2 0x866 JUMPI DUP1 PUSH4 0x73422D93 EQ PUSH2 0x544 JUMPI DUP1 PUSH4 0x8456CB59 EQ PUSH2 0x4EA JUMPI DUP1 PUSH4 0x91D14854 EQ PUSH2 0x49D JUMPI DUP1 PUSH4 0x927C7742 EQ PUSH2 0x3E9 JUMPI DUP1 PUSH4 0xA217FDDF EQ PUSH2 0x3CD JUMPI DUP1 PUSH4 0xB1B1FFAB EQ PUSH2 0x375 JUMPI DUP1 PUSH4 0xBF3B0F0B EQ PUSH2 0x344 JUMPI DUP1 PUSH4 0xD4C3EEA0 EQ PUSH2 0x326 JUMPI DUP1 PUSH4 0xD547741F EQ PUSH2 0x2E5 JUMPI DUP1 PUSH4 0xDCC577EB EQ PUSH2 0x2AA JUMPI DUP1 PUSH4 0xF0A56FC8 EQ PUSH2 0x26F JUMPI PUSH4 0xFA5F24BA SUB PUSH2 0xE JUMPI CALLVALUE PUSH2 0x26A JUMPI PUSH1 0x20 CALLDATASIZE PUSH1 0x3 NOT ADD SLT PUSH2 0x26A JUMPI PUSH1 0x1 PUSH1 0x1 PUSH1 0xA0 SHL SUB PUSH2 0x1FC PUSH2 0x2606 JUMP JUMPDEST AND PUSH1 0x0 MSTORE PUSH1 0x4 PUSH1 0x20 MSTORE PUSH1 0x40 PUSH1 0x0 KECCAK256 DUP1 SLOAD PUSH2 0x218 PUSH1 0x1 DUP4 ADD PUSH2 0x2742 JUMP JUMPDEST SWAP2 PUSH1 0x2 DUP2 ADD SLOAD SWAP1 PUSH1 0x3 DUP2 ADD SLOAD SWAP1 PUSH1 0x5 PUSH1 0xFF PUSH1 0x4 DUP4 ADD SLOAD AND SWAP2 ADD SLOAD SWAP2 PUSH2 0x24F PUSH1 0x40 MLOAD SWAP7 DUP8 SWAP7 DUP8 MSTORE PUSH1 0xC0 PUSH1 0x20 DUP9 ADD MSTORE PUSH1 0xC0 DUP8 ADD SWAP1 PUSH2 0x2655 JUMP JUMPDEST SWAP4 PUSH1 0x40 DUP7 ADD MSTORE PUSH1 0x60 DUP6 ADD MSTORE ISZERO ISZERO PUSH1 0x80 DUP5 ADD MSTORE PUSH1 0xA0 DUP4 ADD MSTORE SUB SWAP1 RETURN JUMPDEST PUSH1 0x0 DUP1 REVERT JUMPDEST CALLVALUE PUSH2 0x26A JUMPI PUSH1 0x0 CALLDATASIZE PUSH1 0x3 NOT ADD SLT PUSH2 0x26A JUMPI PUSH1 0x20 PUSH1 0x40 MLOAD PUSH32 0xFACAF2747A7486CF5730E9265973FB54447D3ACE6E7E4711F6360826B0731941 DUP2 MSTORE RETURN JUMPDEST CALLVALUE PUSH2 0x26A JUMPI PUSH1 0x0 CALLDATASIZE PUSH1 0x3 NOT ADD SLT PUSH2 0x26A JUMPI PUSH1 0x20 PUSH1 0x40 MLOAD PUSH32 0x31CAE59F465AC92B04160088ED0C3AB981B8A7A1333388990D0514EDD3A83708 DUP2 MSTORE RETURN JUMPDEST CALLVALUE PUSH2 0x26A JUMPI PUSH1 0x40 CALLDATASIZE PUSH1 0x3 NOT ADD SLT PUSH2 0x26A JUMPI PUSH2 0x324 PUSH1 0x4 CALLDATALOAD PUSH2 0x304 PUSH2 0x261C JUMP JUMPDEST SWAP1 DUP1 PUSH1 0x0 MSTORE PUSH1 0x1 PUSH1 0x20 MSTORE PUSH2 0x31F PUSH1 0x1 PUSH1 0x40 PUSH1 0x0 KECCAK256 ADD SLOAD PUSH2 0x28F8 JUMP JUMPDEST PUSH2 0x2AD4 JUMP JUMPDEST STOP JUMPDEST CALLVALUE PUSH2 0x26A JUMPI PUSH1 0x0 CALLDATASIZE PUSH1 0x3 NOT ADD SLT PUSH2 0x26A JUMPI PUSH1 0x20 PUSH1 0x9 SLOAD PUSH1 0x40 MLOAD SWAP1 DUP2 MSTORE RETURN JUMPDEST CALLVALUE PUSH2 0x26A JUMPI PUSH1 0x20 CALLDATASIZE PUSH1 0x3 NOT ADD SLT PUSH2 0x26A JUMPI PUSH1 0x4 CALLDATALOAD PUSH1 0x0 MSTORE PUSH1 0x5 PUSH1 0x20 MSTORE PUSH1 0x20 PUSH1 0xFF PUSH1 0x40 PUSH1 0x0 KECCAK256 SLOAD AND PUSH1 0x40 MLOAD SWAP1 ISZERO ISZERO DUP2 MSTORE RETURN JUMPDEST CALLVALUE PUSH2 0x26A JUMPI PUSH1 0x40 CALLDATASIZE PUSH1 0x3 NOT ADD SLT PUSH2 0x26A JUMPI PUSH2 0x38E PUSH2 0x2606 JUMP JUMPDEST PUSH1 0x1 PUSH1 0x1 PUSH1 0xA0 SHL SUB AND PUSH1 0x0 SWAP1 DUP2 MSTORE PUSH1 0x6 PUSH1 0x20 MSTORE PUSH1 0x40 SWAP1 KECCAK256 DUP1 SLOAD PUSH1 0x24 CALLDATALOAD SWAP2 SWAP1 DUP3 LT ISZERO PUSH2 0x26A JUMPI PUSH1 0x20 SWAP2 PUSH2 0x3BF SWAP2 PUSH2 0x2890 JUMP JUMPDEST SWAP1 SLOAD PUSH1 0x40 MLOAD SWAP2 PUSH1 0x3 SHL SHR DUP2 MSTORE RETURN JUMPDEST CALLVALUE PUSH2 0x26A JUMPI PUSH1 0x0 CALLDATASIZE PUSH1 0x3 NOT ADD SLT PUSH2 0x26A JUMPI PUSH1 0x20 PUSH1 0x40 MLOAD PUSH1 0x0 DUP2 MSTORE RETURN JUMPDEST CALLVALUE PUSH2 0x26A JUMPI PUSH1 0x20 DUP1 PUSH1 0x3 NOT CALLDATASIZE ADD SLT PUSH2 0x26A JUMPI PUSH1 0x1 PUSH1 0x1 PUSH1 0xA0 SHL SUB PUSH2 0x40B PUSH2 0x2606 JUMP JUMPDEST AND PUSH1 0x0 MSTORE PUSH1 0x6 DUP2 MSTORE PUSH1 0x40 PUSH1 0x0 KECCAK256 PUSH1 0x40 MLOAD SWAP1 DUP2 DUP4 DUP3 SLOAD SWAP2 DUP3 DUP2 MSTORE ADD SWAP1 DUP2 SWAP3 PUSH1 0x0 MSTORE DUP5 PUSH1 0x0 KECCAK256 SWAP1 PUSH1 0x0 JUMPDEST DUP7 DUP3 DUP3 LT PUSH2 0x489 JUMPI DUP7 DUP7 PUSH2 0x449 DUP3 DUP9 SUB DUP4 PUSH2 0x2721 JUMP JUMPDEST PUSH1 0x40 MLOAD SWAP3 DUP4 SWAP3 DUP2 DUP5 ADD SWAP1 DUP3 DUP6 MSTORE MLOAD DUP1 SWAP2 MSTORE PUSH1 0x40 DUP5 ADD SWAP3 SWAP2 PUSH1 0x0 JUMPDEST DUP3 DUP2 LT PUSH2 0x472 JUMPI POP POP POP POP SUB SWAP1 RETURN JUMPDEST DUP4 MLOAD DUP6 MSTORE DUP7 SWAP6 POP SWAP4 DUP2 ADD SWAP4 SWAP3 DUP2 ADD SWAP3 PUSH1 0x1 ADD PUSH2 0x463 JUMP JUMPDEST DUP4 SLOAD DUP6 MSTORE SWAP1 SWAP4 ADD SWAP3 PUSH1 0x1 SWAP3 DUP4 ADD SWAP3 ADD PUSH2 0x433 JUMP JUMPDEST CALLVALUE PUSH2 0x26A JUMPI PUSH1 0x40 CALLDATASIZE PUSH1 0x3 NOT ADD SLT PUSH2 0x26A JUMPI PUSH2 0x4B6 PUSH2 0x261C JUMP JUMPDEST PUSH1 0x4 CALLDATALOAD PUSH1 0x0 MSTORE PUSH1 0x1 PUSH1 0x20 MSTORE PUSH1 0x40 PUSH1 0x0 KECCAK256 SWAP1 PUSH1 0x1 DUP1 PUSH1 0xA0 SHL SUB AND PUSH1 0x0 MSTORE PUSH1 0x20 MSTORE PUSH1 0x20 PUSH1 0xFF PUSH1 0x40 PUSH1 0x0 KECCAK256 SLOAD AND PUSH1 0x40 MLOAD SWAP1 ISZERO ISZERO DUP2 MSTORE RETURN JUMPDEST CALLVALUE PUSH2 0x26A JUMPI PUSH1 0x0 CALLDATASIZE PUSH1 0x3 NOT ADD SLT PUSH2 0x26A JUMPI PUSH2 0x503 PUSH2 0x28BE JUMP JUMPDEST PUSH2 0x50B PUSH2 0x2CE6 JUMP JUMPDEST PUSH1 0x1 PUSH1 0xFF NOT PUSH1 0x2 SLOAD AND OR PUSH1 0x2 SSTORE PUSH32 0x62E78CEA01BEE320CD4E420270B5EA74000D11B0C9F74754EBDBFC544B05A258 PUSH1 0x20 PUSH1 0x40 MLOAD CALLER DUP2 MSTORE LOG1 STOP JUMPDEST PUSH1 0x20 DUP1 PUSH1 0x3 NOT CALLDATASIZE ADD SLT PUSH2 0x26A JUMPI PUSH1 0x4 CALLDATALOAD SWAP1 DUP2 PUSH1 0x0 MSTORE PUSH1 0x3 DUP2 MSTORE PUSH1 0xFF PUSH1 0x13 PUSH1 0x40 PUSH1 0x0 KECCAK256 ADD SLOAD AND ISZERO PUSH2 0x816 JUMPI PUSH2 0x576 PUSH2 0x2D04 JUMP JUMPDEST PUSH2 0x57E PUSH2 0x2CE6 JUMP JUMPDEST DUP2 PUSH1 0x0 MSTORE PUSH1 0x3 DUP2 MSTORE PUSH1 0x40 PUSH1 0x0 KECCAK256 PUSH1 0x7 DUP2 ADD PUSH1 0x1 PUSH1 0xFF DUP3 SLOAD AND PUSH2 0x59F DUP2 PUSH2 0x2830 JUMP JUMPDEST SUB PUSH2 0x7D1 JUMPI PUSH1 0x1 DUP3 ADD SLOAD PUSH1 0x1 PUSH1 0x1 PUSH1 0xA0 SHL SUB SWAP3 SWAP1 DUP4 AND CALLER SUB PUSH2 0x78C JUMPI PUSH1 0x3 DUP2 ADD SWAP3 DUP4 SLOAD PUSH1 0x4 DUP4 ADD SLOAD SWAP1 DUP2 DUP2 MUL SWAP2 DUP2 DUP4 DIV EQ SWAP1 ISZERO OR ISZERO PUSH2 0x776 JUMPI CALLVALUE SUB PUSH2 0x726 JUMPI PUSH1 0x5 DUP3 ADD SLOAD TIMESTAMP LT PUSH2 0x6D5 JUMPI PUSH1 0x0 DUP1 DUP1 SWAP4 DUP2 SWAP4 PUSH1 0x2 CALLVALUE SWAP3 ADD SLOAD AND GAS CALL RETURNDATASIZE ISZERO PUSH2 0x6D0 JUMPI RETURNDATASIZE PUSH2 0x609 DUP2 PUSH2 0x2B58 JUMP JUMPDEST SWAP1 PUSH2 0x617 PUSH1 0x40 MLOAD SWAP3 DUP4 PUSH2 0x2721 JUMP JUMPDEST DUP2 MSTORE PUSH1 0x0 DUP6 RETURNDATASIZE SWAP3 ADD RETURNDATACOPY JUMPDEST ISZERO PUSH2 0x681 JUMPI DUP1 SLOAD PUSH1 0xFF NOT AND PUSH1 0x2 OR SWAP1 SSTORE SLOAD PUSH1 0x8 SLOAD PUSH32 0x3A065DA622A5998BC080739B644EFC5A9CEF4DD337B2FD39F8A050699B1062A6 SWAP3 SWAP2 PUSH2 0x661 SWAP2 PUSH2 0x2B4B JUMP JUMPDEST PUSH1 0x8 SSTORE PUSH2 0x670 CALLVALUE PUSH1 0x9 SLOAD PUSH2 0x2B4B JUMP JUMPDEST PUSH1 0x9 SSTORE PUSH1 0x40 MLOAD TIMESTAMP DUP2 MSTORE LOG2 PUSH1 0x1 PUSH1 0x0 SSTORE STOP JUMPDEST PUSH1 0x40 MLOAD PUSH3 0x461BCD PUSH1 0xE5 SHL DUP2 MSTORE PUSH1 0x4 DUP2 ADD DUP5 SWAP1 MSTORE PUSH1 0x21 PUSH1 0x24 DUP3 ADD MSTORE PUSH32 0x51524C54726164653A205061796D656E74207472616E73666572206661696C65 PUSH1 0x44 DUP3 ADD MSTORE PUSH1 0x19 PUSH1 0xFA SHL PUSH1 0x64 DUP3 ADD MSTORE PUSH1 0x84 SWAP1 REVERT JUMPDEST PUSH2 0x621 JUMP JUMPDEST PUSH1 0x40 MLOAD PUSH3 0x461BCD PUSH1 0xE5 SHL DUP2 MSTORE PUSH1 0x4 DUP2 ADD DUP7 SWAP1 MSTORE PUSH1 0x23 PUSH1 0x24 DUP3 ADD MSTORE PUSH32 0x51524C54726164653A2044656C69766572792064617465206E6F742072656163 PUSH1 0x44 DUP3 ADD MSTORE PUSH3 0x1A1959 PUSH1 0xEA SHL PUSH1 0x64 DUP3 ADD MSTORE PUSH1 0x84 SWAP1 REVERT JUMPDEST PUSH1 0x40 MLOAD PUSH3 0x461BCD PUSH1 0xE5 SHL DUP2 MSTORE PUSH1 0x4 DUP2 ADD DUP7 SWAP1 MSTORE PUSH1 0x22 PUSH1 0x24 DUP3 ADD MSTORE PUSH32 0x51524C54726164653A20496E636F7272656374207061796D656E7420616D6F75 PUSH1 0x44 DUP3 ADD MSTORE PUSH2 0x1B9D PUSH1 0xF2 SHL PUSH1 0x64 DUP3 ADD MSTORE PUSH1 0x84 SWAP1 REVERT JUMPDEST PUSH4 0x4E487B71 PUSH1 0xE0 SHL PUSH1 0x0 MSTORE PUSH1 0x11 PUSH1 0x4 MSTORE PUSH1 0x24 PUSH1 0x0 REVERT JUMPDEST PUSH1 0x40 MLOAD PUSH3 0x461BCD PUSH1 0xE5 SHL DUP2 MSTORE PUSH1 0x4 DUP2 ADD DUP6 SWAP1 MSTORE PUSH1 0x1F PUSH1 0x24 DUP3 ADD MSTORE PUSH32 0x51524C54726164653A204F6E6C792062757965722063616E20736574746C6500 PUSH1 0x44 DUP3 ADD MSTORE PUSH1 0x64 SWAP1 REVERT JUMPDEST PUSH1 0x40 MLOAD PUSH3 0x461BCD PUSH1 0xE5 SHL DUP2 MSTORE PUSH1 0x4 DUP2 ADD DUP5 SWAP1 MSTORE PUSH1 0x1D PUSH1 0x24 DUP3 ADD MSTORE PUSH32 0x51524C54726164653A205472616465206E6F7420636F6E6669726D6564000000 PUSH1 0x44 DUP3 ADD MSTORE PUSH1 0x64 SWAP1 REVERT JUMPDEST PUSH1 0x84 SWAP1 PUSH1 0x40 MLOAD SWAP1 PUSH3 0x461BCD PUSH1 0xE5 SHL DUP3 MSTORE PUSH1 0x4 DUP3 ADD MSTORE PUSH1 0x24 DUP1 DUP3 ADD MSTORE PUSH32 0x51524C54726164653A205472616465206E6F74207175616E74756D2076657269 PUSH1 0x44 DUP3 ADD MSTORE PUSH4 0x199A5959 PUSH1 0xE2 SHL PUSH1 0x64 DUP3 ADD MSTORE REVERT JUMPDEST CALLVALUE PUSH2 0x26A JUMPI PUSH1 0xC0 CALLDATASIZE PUSH1 0x3 NOT ADD SLT PUSH2 0x26A JUMPI PUSH2 0x87F PUSH2 0x2606 JUMP JUMPDEST PUSH1 0x5 PUSH1 0x24 CALLDATALOAD LT ISZERO PUSH2 0x26A JUMPI CALLER PUSH1 0x0 MSTORE PUSH1 0x4 PUSH1 0x20 MSTORE PUSH2 0x8A7 PUSH1 0xFF PUSH1 0x4 PUSH1 0x40 PUSH1 0x0 KECCAK256 ADD SLOAD AND PUSH2 0x2BAA JUMP JUMPDEST CALLER PUSH1 0x0 MSTORE PUSH1 0x4 PUSH1 0x20 MSTORE PUSH2 0x8C3 PUSH1 0x3 PUSH1 0x40 PUSH1 0x0 KECCAK256 ADD SLOAD TIMESTAMP LT PUSH2 0x2BF6 JUMP JUMPDEST PUSH1 0x1 DUP1 PUSH1 0xA0 SHL SUB DUP2 AND PUSH1 0x0 MSTORE PUSH1 0x4 PUSH1 0x20 MSTORE PUSH2 0x8E8 PUSH1 0xFF PUSH1 0x4 PUSH1 0x40 PUSH1 0x0 KECCAK256 ADD SLOAD AND PUSH2 0x2BAA JUMP JUMPDEST PUSH1 0x1 DUP1 PUSH1 0xA0 SHL SUB DUP2 AND PUSH1 0x0 MSTORE PUSH1 0x4 PUSH1 0x20 MSTORE PUSH2 0x90C TIMESTAMP PUSH1 0x3 PUSH1 0x40 PUSH1 0x0 KECCAK256 ADD SLOAD GT PUSH2 0x2BF6 JUMP JUMPDEST PUSH2 0x914 PUSH2 0x2D04 JUMP JUMPDEST PUSH2 0x91C PUSH2 0x2CE6 JUMP JUMPDEST PUSH1 0x1 PUSH1 0x1 PUSH1 0xA0 SHL SUB DUP2 AND CALLER EQ PUSH2 0x113E JUMPI PUSH1 0x44 CALLDATALOAD ISZERO PUSH2 0x10ED JUMPI PUSH1 0x64 CALLDATALOAD ISZERO PUSH2 0x10A9 JUMPI TIMESTAMP PUSH1 0x84 CALLDATALOAD GT ISZERO PUSH2 0x1052 JUMPI PUSH1 0xA4 CALLDATALOAD PUSH1 0x0 MSTORE PUSH1 0x5 PUSH1 0x20 MSTORE PUSH2 0x963 PUSH1 0xFF PUSH1 0x40 PUSH1 0x0 KECCAK256 SLOAD AND ISZERO PUSH2 0x2C42 JUMP JUMPDEST PUSH1 0x0 PUSH1 0xA4 CALLDATALOAD DUP1 JUMPDEST PUSH2 0x103B JUMPI POP PUSH1 0x64 DUP2 LT ISZERO SWAP1 DUP2 PUSH2 0x102F JUMPI JUMPDEST POP ISZERO PUSH2 0xFE0 JUMPI PUSH1 0x7 SLOAD PUSH2 0x98D DUP2 PUSH2 0x2C9D JUMP JUMPDEST PUSH1 0x7 SSTORE PUSH1 0x40 MLOAD SWAP2 DUP2 PUSH1 0x20 DUP5 ADD MSTORE CALLER PUSH1 0x60 SHL PUSH1 0x40 DUP5 ADD MSTORE PUSH1 0x1 PUSH1 0x1 PUSH1 0x60 SHL SUB NOT DUP2 PUSH1 0x60 SHL AND PUSH1 0x54 DUP5 ADD MSTORE PUSH2 0x9C1 PUSH1 0x24 CALLDATALOAD PUSH2 0x2830 JUMP JUMPDEST PUSH1 0x24 CALLDATALOAD PUSH1 0xF8 SHL PUSH1 0x68 DUP5 ADD MSTORE PUSH1 0x44 CALLDATALOAD PUSH1 0x69 DUP5 ADD MSTORE PUSH1 0x64 CALLDATALOAD PUSH1 0x89 DUP5 ADD MSTORE PUSH1 0x84 CALLDATALOAD PUSH1 0xA9 DUP5 ADD MSTORE PUSH1 0xA4 CALLDATALOAD PUSH1 0xC9 DUP5 ADD MSTORE TIMESTAMP PUSH1 0xE9 DUP5 ADD MSTORE PUSH1 0xE9 DUP4 MSTORE DUP3 PUSH2 0x120 DUP2 ADD LT PUSH1 0x1 PUSH1 0x1 PUSH1 0x40 SHL SUB PUSH2 0x120 DUP6 ADD GT OR PUSH2 0xF02 JUMPI PUSH2 0x120 DUP4 ADD PUSH1 0x40 MSTORE DUP3 MLOAD PUSH1 0x20 DUP5 ADD KECCAK256 PUSH2 0xA2C PUSH2 0x120 DUP6 ADD PUSH2 0x26CF JUMP JUMPDEST PUSH1 0x0 PUSH2 0x120 DUP6 ADD MSTORE PUSH1 0x40 MLOAD PUSH2 0xA40 DUP2 PUSH2 0x2706 JUMP JUMPDEST PUSH1 0x0 DUP2 MSTORE PUSH2 0x140 DUP6 ADD MSTORE PUSH1 0x0 PUSH2 0x160 DUP6 ADD MSTORE PUSH1 0x0 PUSH2 0x180 DUP6 ADD MSTORE PUSH1 0x0 PUSH2 0x1A0 DUP6 ADD MSTORE PUSH1 0x40 MLOAD PUSH2 0xA6E DUP2 PUSH2 0x26CF JUMP JUMPDEST PUSH1 0x0 DUP2 MSTORE PUSH1 0x40 MLOAD PUSH2 0xA7E DUP2 PUSH2 0x2706 JUMP JUMPDEST PUSH1 0x0 DUP2 MSTORE PUSH1 0x20 DUP3 ADD MSTORE PUSH1 0x0 PUSH1 0x40 DUP3 ADD MSTORE PUSH1 0x0 PUSH1 0x60 DUP3 ADD MSTORE PUSH1 0x0 PUSH1 0x80 DUP3 ADD MSTORE PUSH2 0x120 PUSH1 0x40 MLOAD SWAP6 PUSH2 0xAAC DUP8 PUSH2 0x26EA JUMP JUMPDEST DUP6 DUP8 MSTORE CALLER PUSH1 0x20 DUP9 ADD MSTORE PUSH1 0x1 PUSH1 0x1 PUSH1 0xA0 SHL SUB DUP6 AND PUSH1 0x40 DUP9 ADD MSTORE PUSH2 0xACF PUSH1 0x24 CALLDATALOAD PUSH2 0x2830 JUMP JUMPDEST PUSH1 0x24 CALLDATALOAD PUSH1 0x60 DUP9 ADD MSTORE PUSH1 0x44 CALLDATALOAD PUSH1 0x80 DUP9 ADD MSTORE PUSH1 0x64 CALLDATALOAD PUSH1 0xA0 DUP9 ADD MSTORE PUSH1 0x84 CALLDATALOAD PUSH1 0xC0 DUP9 ADD MSTORE TIMESTAMP PUSH1 0xE0 DUP9 ADD MSTORE PUSH1 0x0 PUSH2 0x100 DUP9 ADD MSTORE ADD PUSH2 0x120 DUP7 ADD MSTORE PUSH2 0x140 DUP6 ADD MSTORE PUSH2 0x160 DUP5 ADD MSTORE PUSH1 0x0 PUSH2 0x180 DUP5 ADD MSTORE DUP2 PUSH1 0x0 MSTORE PUSH1 0x3 PUSH1 0x20 MSTORE PUSH1 0x40 PUSH1 0x0 KECCAK256 DUP4 MLOAD DUP2 SSTORE PUSH1 0x1 DUP2 ADD PUSH1 0x1 DUP1 PUSH1 0xA0 SHL SUB PUSH1 0x20 DUP7 ADD MLOAD AND PUSH1 0x1 PUSH1 0x1 PUSH1 0x60 SHL SUB PUSH1 0xA0 SHL DUP3 SLOAD AND OR SWAP1 SSTORE PUSH1 0x2 DUP2 ADD PUSH1 0x1 DUP1 PUSH1 0xA0 SHL SUB PUSH1 0x40 DUP7 ADD MLOAD AND DUP2 SLOAD SWAP1 PUSH1 0x60 DUP8 ADD MLOAD PUSH2 0xB6E DUP2 PUSH2 0x2830 JUMP JUMPDEST PUSH2 0xB77 DUP2 PUSH2 0x2830 JUMP JUMPDEST PUSH1 0x1 PUSH1 0x1 PUSH1 0xA8 SHL SUB NOT SWAP1 SWAP3 AND OR PUSH1 0xA0 SWAP2 DUP3 SHL PUSH1 0xFF PUSH1 0xA0 SHL AND OR SWAP1 SWAP2 SSTORE PUSH1 0x80 DUP6 ADD MLOAD PUSH1 0x3 DUP4 ADD SSTORE DUP5 ADD MLOAD PUSH1 0x4 DUP3 ADD SSTORE PUSH1 0xC0 DUP5 ADD MLOAD PUSH1 0x5 DUP3 ADD SSTORE PUSH1 0xE0 DUP5 ADD MLOAD PUSH1 0x6 DUP3 ADD SSTORE PUSH2 0x100 DUP5 ADD MLOAD PUSH1 0x7 DUP3 ADD SWAP1 PUSH2 0xBCD DUP2 PUSH2 0x2830 JUMP JUMPDEST PUSH2 0xBD6 DUP2 PUSH2 0x2830 JUMP JUMPDEST PUSH1 0xFF DUP1 NOT DUP4 SLOAD AND SWAP2 AND OR SWAP1 SSTORE PUSH2 0x120 DUP5 ADD MLOAD DUP1 MLOAD PUSH1 0x8 DUP4 ADD SSTORE PUSH1 0x20 DUP2 ADD MLOAD DUP1 MLOAD SWAP1 PUSH1 0x1 PUSH1 0x1 PUSH1 0x40 SHL SUB DUP3 GT PUSH2 0xF02 JUMPI PUSH2 0xC12 PUSH1 0x9 DUP6 ADD SLOAD PUSH2 0x267A JUMP JUMPDEST PUSH1 0x1F DUP2 GT PUSH2 0xF99 JUMPI JUMPDEST POP PUSH1 0x20 SWAP1 PUSH1 0x1F DUP4 GT PUSH1 0x1 EQ PUSH2 0xF23 JUMPI SWAP2 DUP1 PUSH2 0xC81 SWAP5 SWAP3 PUSH1 0x80 SWAP5 PUSH1 0x0 SWAP3 PUSH2 0xF18 JUMPI JUMPDEST POP POP DUP2 PUSH1 0x1 SHL SWAP2 PUSH1 0x0 NOT SWAP1 PUSH1 0x3 SHL SHR NOT AND OR PUSH1 0x9 DUP6 ADD SSTORE JUMPDEST PUSH1 0x40 DUP2 ADD MLOAD PUSH1 0xA DUP6 ADD SSTORE PUSH1 0x60 DUP2 ADD MLOAD PUSH1 0xB DUP6 ADD SSTORE ADD MLOAD ISZERO ISZERO PUSH1 0xC DUP4 ADD SWAP1 PUSH1 0xFF DUP1 NOT DUP4 SLOAD AND SWAP2 ISZERO ISZERO AND OR SWAP1 SSTORE JUMP JUMPDEST PUSH2 0x140 DUP5 ADD MLOAD SWAP4 DUP5 MLOAD PUSH1 0xD DUP4 ADD SSTORE PUSH1 0x20 DUP6 ADD MLOAD SWAP5 DUP6 MLOAD PUSH1 0x1 PUSH1 0x1 PUSH1 0x40 SHL SUB DUP2 GT PUSH2 0xF02 JUMPI PUSH2 0xCB2 PUSH1 0xE DUP6 ADD SLOAD PUSH2 0x267A JUMP JUMPDEST SWAP7 PUSH1 0x1F DUP9 GT PUSH2 0xEBB JUMPI JUMPDEST PUSH1 0x20 SWAP8 POP DUP8 SWAP1 PUSH1 0x1F DUP4 GT PUSH1 0x1 EQ PUSH2 0xE3D JUMPI PUSH1 0x80 PUSH1 0x13 SWAP5 DUP5 PUSH2 0x180 SWAP6 PUSH2 0xD50 SWAP10 SWAP9 SWAP6 PUSH2 0xD2E SWAP6 PUSH1 0x0 SWAP3 PUSH2 0xE32 JUMPI JUMPDEST POP POP DUP2 PUSH1 0x1 SHL SWAP2 PUSH1 0x0 NOT SWAP1 PUSH1 0x3 SHL SHR NOT AND OR PUSH1 0xE DUP9 ADD SSTORE JUMPDEST PUSH1 0x40 DUP2 ADD MLOAD PUSH1 0xF DUP9 ADD SSTORE PUSH1 0x60 DUP2 ADD MLOAD PUSH1 0x10 DUP9 ADD SSTORE ADD MLOAD ISZERO ISZERO PUSH1 0x11 DUP7 ADD SWAP1 PUSH1 0xFF DUP1 NOT DUP4 SLOAD AND SWAP2 ISZERO ISZERO AND OR SWAP1 SSTORE JUMP JUMPDEST PUSH2 0x160 DUP2 ADD MLOAD PUSH1 0x12 DUP6 ADD SSTORE ADD MLOAD ISZERO ISZERO SWAP2 ADD SWAP1 PUSH1 0xFF DUP1 NOT DUP4 SLOAD AND SWAP2 ISZERO ISZERO AND OR SWAP1 SSTORE JUMP JUMPDEST CALLER PUSH1 0x0 MSTORE PUSH1 0x6 DUP4 MSTORE PUSH2 0xD66 DUP3 PUSH1 0x40 PUSH1 0x0 KECCAK256 PUSH2 0x2CAC JUMP JUMPDEST PUSH1 0x1 DUP1 PUSH1 0xA0 SHL SUB DUP2 AND PUSH1 0x0 MSTORE PUSH1 0x6 DUP4 MSTORE PUSH2 0xD84 DUP3 PUSH1 0x40 PUSH1 0x0 KECCAK256 PUSH2 0x2CAC JUMP JUMPDEST PUSH1 0xA4 CALLDATALOAD PUSH1 0x0 MSTORE PUSH1 0x5 DUP4 MSTORE PUSH1 0x40 PUSH1 0x0 KECCAK256 PUSH1 0x1 PUSH1 0xFF NOT DUP3 SLOAD AND OR SWAP1 SSTORE PUSH1 0x40 MLOAD SWAP1 PUSH2 0xDAD PUSH1 0x24 CALLDATALOAD PUSH2 0x2830 JUMP JUMPDEST PUSH1 0x24 CALLDATALOAD DUP3 MSTORE PUSH1 0x44 CALLDATALOAD DUP5 DUP4 ADD MSTORE PUSH1 0x64 CALLDATALOAD PUSH1 0x40 DUP4 ADD MSTORE PUSH1 0x1 PUSH1 0x1 PUSH1 0xA0 SHL SUB AND SWAP1 CALLER SWAP1 DUP4 SWAP1 PUSH32 0xBD567DF9B9489C301F77254B572B65AE91208FE4668325CEEA3136FE5D3EFB43 SWAP1 PUSH1 0x60 SWAP1 LOG4 PUSH32 0x83F66337B809447001604ACE11A9A88F56110EF4F1107A241F4E4C79763B84CF PUSH1 0x40 DUP1 MLOAD PUSH1 0xA4 CALLDATALOAD DUP2 MSTORE TIMESTAMP DUP6 DUP3 ADD MSTORE LOG1 PUSH1 0x1 PUSH1 0x0 SSTORE PUSH1 0x40 MLOAD SWAP1 DUP2 MSTORE RETURN JUMPDEST ADD MLOAD SWAP1 POP DUP14 DUP1 PUSH2 0xCE9 JUMP JUMPDEST SWAP1 PUSH1 0xE DUP7 ADD PUSH1 0x0 MSTORE DUP9 PUSH1 0x0 KECCAK256 SWAP2 PUSH1 0x0 JUMPDEST PUSH1 0x1F NOT DUP6 AND DUP2 LT PUSH2 0xEA4 JUMPI POP PUSH1 0x13 SWAP5 PUSH1 0x1 DUP6 PUSH2 0xD50 SWAP10 SWAP9 SWAP6 PUSH2 0xD2E SWAP6 PUSH1 0x80 SWAP6 PUSH2 0x180 SWAP10 PUSH1 0x1F NOT DUP2 AND LT PUSH2 0xE8B JUMPI JUMPDEST POP POP POP DUP2 SHL ADD PUSH1 0xE DUP9 ADD SSTORE PUSH2 0xD01 JUMP JUMPDEST ADD MLOAD PUSH1 0x0 NOT PUSH1 0xF8 DUP5 PUSH1 0x3 SHL AND SHR NOT AND SWAP1 SSTORE DUP14 DUP1 DUP1 PUSH2 0xE7B JUMP JUMPDEST SWAP2 SWAP3 DUP11 PUSH1 0x1 DUP2 SWAP3 DUP7 DUP6 ADD MLOAD DUP2 SSTORE ADD SWAP5 ADD SWAP3 ADD PUSH2 0xE4D JUMP JUMPDEST PUSH1 0xE DUP6 ADD PUSH1 0x0 MSTORE PUSH1 0x20 PUSH1 0x0 KECCAK256 PUSH1 0x1F DUP4 ADD PUSH1 0x5 SHR DUP2 ADD PUSH1 0x20 DUP5 LT PUSH2 0xEFB JUMPI JUMPDEST PUSH1 0x1F DUP11 ADD PUSH1 0x5 SHR DUP3 ADD DUP2 LT PUSH2 0xEEF JUMPI POP POP PUSH2 0xCBC JUMP JUMPDEST PUSH1 0x0 DUP2 SSTORE PUSH1 0x1 ADD PUSH2 0xED9 JUMP JUMPDEST POP DUP1 PUSH2 0xED9 JUMP JUMPDEST PUSH4 0x4E487B71 PUSH1 0xE0 SHL PUSH1 0x0 MSTORE PUSH1 0x41 PUSH1 0x4 MSTORE PUSH1 0x24 PUSH1 0x0 REVERT JUMPDEST ADD MLOAD SWAP1 POP DUP10 DUP1 PUSH2 0xC3C JUMP JUMPDEST SWAP1 PUSH1 0x9 DUP6 ADD PUSH1 0x0 MSTORE PUSH1 0x20 PUSH1 0x0 KECCAK256 SWAP2 PUSH1 0x0 JUMPDEST PUSH1 0x1F NOT DUP6 AND DUP2 LT PUSH2 0xF81 JUMPI POP SWAP3 PUSH2 0xC81 SWAP5 SWAP3 PUSH1 0x1 SWAP3 PUSH1 0x80 SWAP6 DUP4 PUSH1 0x1F NOT DUP2 AND LT PUSH2 0xF68 JUMPI JUMPDEST POP POP POP DUP2 SHL ADD PUSH1 0x9 DUP6 ADD SSTORE PUSH2 0xC54 JUMP JUMPDEST ADD MLOAD PUSH1 0x0 NOT PUSH1 0xF8 DUP5 PUSH1 0x3 SHL AND SHR NOT AND SWAP1 SSTORE DUP10 DUP1 DUP1 PUSH2 0xF58 JUMP JUMPDEST SWAP2 SWAP3 PUSH1 0x20 PUSH1 0x1 DUP2 SWAP3 DUP7 DUP6 ADD MLOAD DUP2 SSTORE ADD SWAP5 ADD SWAP3 ADD PUSH2 0xF34 JUMP JUMPDEST PUSH1 0x9 DUP6 ADD PUSH1 0x0 MSTORE PUSH1 0x20 PUSH1 0x0 KECCAK256 PUSH1 0x1F DUP5 ADD PUSH1 0x5 SHR DUP2 ADD PUSH1 0x20 DUP6 LT PUSH2 0xFD9 JUMPI JUMPDEST PUSH1 0x1F DUP4 ADD PUSH1 0x5 SHR DUP3 ADD DUP2 LT PUSH2 0xFCD JUMPI POP POP PUSH2 0xC1B JUMP JUMPDEST PUSH1 0x0 DUP2 SSTORE PUSH1 0x1 ADD PUSH2 0xFB7 JUMP JUMPDEST POP DUP1 PUSH2 0xFB7 JUMP JUMPDEST PUSH1 0x40 MLOAD PUSH3 0x461BCD PUSH1 0xE5 SHL DUP2 MSTORE PUSH1 0x20 PUSH1 0x4 DUP3 ADD MSTORE PUSH1 0x21 PUSH1 0x24 DUP3 ADD MSTORE PUSH32 0x51524C54726164653A20496E76616C6964207175616E74756D20656E74726F70 PUSH1 0x44 DUP3 ADD MSTORE PUSH1 0x79 PUSH1 0xF8 SHL PUSH1 0x64 DUP3 ADD MSTORE PUSH1 0x84 SWAP1 REVERT JUMPDEST PUSH1 0x9C SWAP2 POP GT ISZERO DUP3 PUSH2 0x97B JUMP JUMPDEST PUSH2 0x104A PUSH1 0x1 SWAP3 DUP4 DUP4 AND SWAP1 PUSH2 0x2B4B JUMP JUMPDEST SWAP2 SHR DUP1 PUSH2 0x96A JUMP JUMPDEST PUSH1 0x40 MLOAD PUSH3 0x461BCD PUSH1 0xE5 SHL DUP2 MSTORE PUSH1 0x20 PUSH1 0x4 DUP3 ADD MSTORE PUSH1 0x29 PUSH1 0x24 DUP3 ADD MSTORE PUSH32 0x51524C54726164653A2044656C69766572792064617465206D75737420626520 PUSH1 0x44 DUP3 ADD MSTORE PUSH9 0x696E20667574757265 PUSH1 0xB8 SHL PUSH1 0x64 DUP3 ADD MSTORE PUSH1 0x84 SWAP1 REVERT JUMPDEST PUSH1 0x64 PUSH1 0x40 MLOAD PUSH3 0x461BCD PUSH1 0xE5 SHL DUP2 MSTORE PUSH1 0x20 PUSH1 0x4 DUP3 ADD MSTORE PUSH1 0x20 PUSH1 0x24 DUP3 ADD MSTORE PUSH32 0x51524C54726164653A205072696365206D75737420626520706F736974697665 PUSH1 0x44 DUP3 ADD MSTORE REVERT JUMPDEST PUSH1 0x40 MLOAD PUSH3 0x461BCD PUSH1 0xE5 SHL DUP2 MSTORE PUSH1 0x20 PUSH1 0x4 DUP3 ADD MSTORE PUSH1 0x23 PUSH1 0x24 DUP3 ADD MSTORE PUSH32 0x51524C54726164653A205175616E74697479206D75737420626520706F736974 PUSH1 0x44 DUP3 ADD MSTORE PUSH3 0x697665 PUSH1 0xE8 SHL PUSH1 0x64 DUP3 ADD MSTORE PUSH1 0x84 SWAP1 REVERT JUMPDEST PUSH1 0x40 MLOAD PUSH3 0x461BCD PUSH1 0xE5 SHL DUP2 MSTORE PUSH1 0x20 PUSH1 0x4 DUP3 ADD MSTORE PUSH1 0x24 DUP1 DUP3 ADD MSTORE PUSH32 0x51524C54726164653A2043616E6E6F74207472616465207769746820796F7572 PUSH1 0x44 DUP3 ADD MSTORE PUSH4 0x39B2B633 PUSH1 0xE1 SHL PUSH1 0x64 DUP3 ADD MSTORE PUSH1 0x84 SWAP1 REVERT JUMPDEST CALLVALUE PUSH2 0x26A JUMPI PUSH1 0x0 CALLDATASIZE PUSH1 0x3 NOT ADD SLT PUSH2 0x26A JUMPI PUSH1 0x20 PUSH1 0x8 SLOAD PUSH1 0x40 MLOAD SWAP1 DUP2 MSTORE RETURN JUMPDEST CALLVALUE PUSH2 0x26A JUMPI PUSH1 0x0 CALLDATASIZE PUSH1 0x3 NOT ADD SLT PUSH2 0x26A JUMPI PUSH1 0x20 PUSH1 0xFF PUSH1 0x2 SLOAD AND PUSH1 0x40 MLOAD SWAP1 ISZERO ISZERO DUP2 MSTORE RETURN JUMPDEST CALLVALUE PUSH2 0x26A JUMPI PUSH1 0x40 CALLDATASIZE PUSH1 0x3 NOT ADD SLT PUSH2 0x26A JUMPI PUSH1 0x4 CALLDATALOAD PUSH1 0x24 CALLDATALOAD PUSH1 0x1 PUSH1 0x1 PUSH1 0x40 SHL SUB DUP2 GT PUSH2 0x26A JUMPI PUSH2 0x1203 SWAP1 CALLDATASIZE SWAP1 PUSH1 0x4 ADD PUSH2 0x25D9 JUMP JUMPDEST PUSH2 0x120E SWAP3 SWAP2 SWAP3 PUSH2 0x2D04 JUMP JUMPDEST PUSH2 0x1216 PUSH2 0x2CE6 JUMP JUMPDEST DUP2 PUSH1 0x0 MSTORE PUSH1 0x20 SWAP3 PUSH1 0x3 DUP5 MSTORE PUSH1 0x40 PUSH1 0x0 KECCAK256 PUSH2 0x1232 DUP2 SLOAD ISZERO ISZERO PUSH2 0x2D27 JUMP JUMPDEST PUSH1 0x7 DUP2 ADD SWAP1 DUP2 SLOAD SWAP1 PUSH1 0xFF DUP3 AND PUSH2 0x1247 DUP2 PUSH2 0x2830 JUMP JUMPDEST PUSH2 0x135F JUMPI PUSH1 0x1 DUP2 ADD SLOAD CALLER PUSH1 0x1 PUSH1 0x1 PUSH1 0xA0 SHL SUB SWAP2 DUP3 AND EQ SWAP2 DUP3 ISZERO PUSH2 0x134E JUMPI JUMPDEST POP POP DUP1 ISZERO PUSH2 0x132C JUMPI JUMPDEST ISZERO PUSH2 0x12D1 JUMPI DUP4 PUSH1 0x40 SWAP4 PUSH32 0xC742381126185889F1ED17E46BCED0266B422CDD0EE6E26D1CCAC51250FF63C6 SWAP7 SWAP8 SWAP4 PUSH1 0x3 DUP4 SWAP5 PUSH1 0xFF NOT AND OR SWAP1 SSTORE DUP5 MLOAD SWAP6 DUP5 DUP8 SWAP6 DUP7 MSTORE DUP6 ADD MSTORE DUP5 DUP5 ADD CALLDATACOPY PUSH1 0x0 DUP3 DUP3 ADD DUP5 ADD MSTORE PUSH1 0x1F ADD PUSH1 0x1F NOT AND DUP2 ADD SUB ADD SWAP1 LOG2 PUSH1 0x1 PUSH1 0x0 SSTORE STOP JUMPDEST PUSH1 0x40 MLOAD PUSH3 0x461BCD PUSH1 0xE5 SHL DUP2 MSTORE PUSH1 0x4 DUP2 ADD DUP8 SWAP1 MSTORE PUSH1 0x2D PUSH1 0x24 DUP3 ADD MSTORE PUSH32 0x51524C54726164653A204E6F7420617574686F72697A656420746F2063616E63 PUSH1 0x44 DUP3 ADD MSTORE PUSH13 0x656C2074686973207472616465 PUSH1 0x98 SHL PUSH1 0x64 DUP3 ADD MSTORE PUSH1 0x84 SWAP1 REVERT JUMPDEST POP PUSH1 0x0 DUP1 MSTORE PUSH1 0x1 DUP7 MSTORE PUSH1 0x40 PUSH1 0x0 KECCAK256 CALLER PUSH1 0x0 MSTORE DUP7 MSTORE PUSH1 0xFF PUSH1 0x40 PUSH1 0x0 KECCAK256 SLOAD AND PUSH2 0x126E JUMP JUMPDEST PUSH1 0x2 SWAP2 SWAP3 POP ADD SLOAD AND CALLER EQ DUP8 DUP1 PUSH2 0x1265 JUMP JUMPDEST PUSH1 0x40 MLOAD PUSH3 0x461BCD PUSH1 0xE5 SHL DUP2 MSTORE PUSH1 0x4 DUP2 ADD DUP9 SWAP1 MSTORE PUSH1 0x23 PUSH1 0x24 DUP3 ADD MSTORE PUSH32 0x51524C54726164653A2054726164652063616E6E6F742062652063616E63656C PUSH1 0x44 DUP3 ADD MSTORE PUSH3 0x1B1959 PUSH1 0xEA SHL PUSH1 0x64 DUP3 ADD MSTORE PUSH1 0x84 SWAP1 REVERT JUMPDEST CALLVALUE PUSH2 0x26A JUMPI PUSH1 0x0 CALLDATASIZE PUSH1 0x3 NOT ADD SLT PUSH2 0x26A JUMPI PUSH1 0x20 PUSH1 0xB SLOAD PUSH1 0x40 MLOAD SWAP1 DUP2 MSTORE RETURN JUMPDEST CALLVALUE PUSH2 0x26A JUMPI PUSH1 0x0 CALLDATASIZE PUSH1 0x3 NOT ADD SLT PUSH2 0x26A JUMPI PUSH2 0x13E7 PUSH2 0x28BE JUMP JUMPDEST PUSH1 0x2 SLOAD PUSH1 0xFF DUP2 AND ISZERO PUSH2 0x1426 JUMPI PUSH1 0xFF NOT AND PUSH1 0x2 SSTORE PUSH32 0x5DB9EE0A495BF2E6FF9C91A7834C1BA4FDD244A5E8AA4E537BD38AEAE4B073AA PUSH1 0x20 PUSH1 0x40 MLOAD CALLER DUP2 MSTORE LOG1 STOP JUMPDEST PUSH1 0x40 MLOAD PUSH4 0x8DFC202B PUSH1 0xE0 SHL DUP2 MSTORE PUSH1 0x4 SWAP1 REVERT JUMPDEST CALLVALUE PUSH2 0x26A JUMPI PUSH1 0x40 CALLDATASIZE PUSH1 0x3 NOT ADD SLT PUSH2 0x26A JUMPI PUSH2 0x1451 PUSH2 0x261C JUMP JUMPDEST CALLER PUSH1 0x1 PUSH1 0x1 PUSH1 0xA0 SHL SUB DUP3 AND SUB PUSH2 0x146D JUMPI PUSH2 0x324 SWAP1 PUSH1 0x4 CALLDATALOAD PUSH2 0x2AD4 JUMP JUMPDEST PUSH1 0x40 MLOAD PUSH4 0x334BD919 PUSH1 0xE1 SHL DUP2 MSTORE PUSH1 0x4 SWAP1 REVERT JUMPDEST CALLVALUE PUSH2 0x26A JUMPI PUSH1 0x40 CALLDATASIZE PUSH1 0x3 NOT ADD SLT PUSH2 0x26A JUMPI PUSH2 0x324 PUSH1 0x4 CALLDATALOAD PUSH2 0x149E PUSH2 0x261C JUMP JUMPDEST SWAP1 DUP1 PUSH1 0x0 MSTORE PUSH1 0x1 PUSH1 0x20 MSTORE PUSH2 0x14B9 PUSH1 0x1 PUSH1 0x40 PUSH1 0x0 KECCAK256 ADD SLOAD PUSH2 0x28F8 JUMP JUMPDEST PUSH2 0x29BF JUMP JUMPDEST CALLVALUE PUSH2 0x26A JUMPI PUSH1 0x20 CALLDATASIZE PUSH1 0x3 NOT ADD SLT PUSH2 0x26A JUMPI PUSH1 0x0 PUSH2 0x180 PUSH1 0x40 MLOAD PUSH2 0x14E0 DUP2 PUSH2 0x26EA JUMP JUMPDEST DUP3 DUP2 MSTORE DUP3 PUSH1 0x20 DUP3 ADD MSTORE DUP3 PUSH1 0x40 DUP3 ADD MSTORE DUP3 PUSH1 0x60 DUP3 ADD MSTORE DUP3 PUSH1 0x80 DUP3 ADD MSTORE DUP3 PUSH1 0xA0 DUP3 ADD MSTORE DUP3 PUSH1 0xC0 DUP3 ADD MSTORE DUP3 PUSH1 0xE0 DUP3 ADD MSTORE DUP3 PUSH2 0x100 DUP3 ADD MSTORE PUSH2 0x151C PUSH2 0x2D73 JUMP JUMPDEST PUSH2 0x120 DUP3 ADD MSTORE PUSH2 0x152A PUSH2 0x2D73 JUMP JUMPDEST PUSH2 0x140 DUP3 ADD MSTORE DUP3 PUSH2 0x160 DUP3 ADD MSTORE ADD MSTORE PUSH1 0x4 CALLDATALOAD PUSH1 0x0 MSTORE PUSH1 0x3 PUSH1 0x20 MSTORE PUSH1 0x40 PUSH1 0x0 KECCAK256 PUSH1 0xFF PUSH1 0x13 PUSH1 0x40 MLOAD SWAP3 PUSH2 0x155A DUP5 PUSH2 0x26EA JUMP JUMPDEST DUP1 SLOAD DUP5 MSTORE PUSH1 0x1 DUP2 ADD SLOAD PUSH1 0x1 PUSH1 0x1 PUSH1 0xA0 SHL SUB SWAP1 DUP2 AND PUSH1 0x20 DUP7 ADD MSTORE PUSH1 0x2 DUP3 ADD SLOAD SWAP1 DUP2 AND PUSH1 0x40 DUP7 ADD MSTORE PUSH1 0xA0 SHR DUP4 AND PUSH2 0x158E DUP2 PUSH2 0x2830 JUMP JUMPDEST PUSH1 0x60 DUP6 ADD MSTORE PUSH1 0x3 DUP2 ADD SLOAD PUSH1 0x80 DUP6 ADD MSTORE PUSH1 0x4 DUP2 ADD SLOAD PUSH1 0xA0 DUP6 ADD MSTORE PUSH1 0x5 DUP2 ADD SLOAD PUSH1 0xC0 DUP6 ADD MSTORE PUSH1 0x6 DUP2 ADD SLOAD PUSH1 0xE0 DUP6 ADD MSTORE DUP3 PUSH1 0x7 DUP3 ADD SLOAD AND PUSH2 0x15CB DUP2 PUSH2 0x2830 JUMP JUMPDEST PUSH2 0x100 DUP6 ADD MSTORE PUSH2 0x15DD PUSH1 0x8 DUP3 ADD PUSH2 0x27E8 JUMP JUMPDEST PUSH2 0x120 DUP6 ADD MSTORE PUSH2 0x15EF PUSH1 0xD DUP3 ADD PUSH2 0x27E8 JUMP JUMPDEST PUSH2 0x140 DUP6 ADD MSTORE PUSH1 0x12 DUP2 ADD SLOAD PUSH2 0x160 DUP6 ADD MSTORE ADD SLOAD AND ISZERO ISZERO PUSH2 0x180 DUP3 ADD MSTORE PUSH1 0x40 MLOAD DUP1 SWAP2 PUSH1 0x20 DUP3 MSTORE DUP1 MLOAD PUSH1 0x20 DUP4 ADD MSTORE PUSH1 0x1 DUP1 PUSH1 0xA0 SHL SUB PUSH1 0x20 DUP3 ADD MLOAD AND PUSH1 0x40 DUP4 ADD MSTORE PUSH1 0x1 DUP1 PUSH1 0xA0 SHL SUB PUSH1 0x40 DUP3 ADD MLOAD AND PUSH1 0x60 DUP4 ADD MSTORE PUSH1 0x60 DUP2 ADD MLOAD PUSH2 0x164D DUP2 PUSH2 0x2830 JUMP JUMPDEST PUSH1 0x80 DUP4 ADD MSTORE PUSH1 0x80 DUP2 ADD MLOAD PUSH1 0xA0 DUP4 ADD MSTORE PUSH1 0xA0 DUP2 ADD MLOAD PUSH1 0xC0 DUP4 ADD MSTORE PUSH1 0xC0 DUP2 ADD MLOAD PUSH1 0xE0 DUP4 ADD MSTORE PUSH1 0xE0 DUP2 ADD MLOAD PUSH2 0x100 DUP4 ADD MSTORE PUSH2 0x100 DUP2 ADD MLOAD PUSH2 0x168A DUP2 PUSH2 0x2830 JUMP JUMPDEST PUSH2 0x120 DUP4 ADD MSTORE PUSH2 0x120 DUP2 ADD MLOAD PUSH2 0x180 PUSH2 0x16CD PUSH2 0x16B5 PUSH2 0x1A0 SWAP4 DUP5 PUSH2 0x140 DUP9 ADD MSTORE PUSH2 0x1C0 DUP8 ADD SWAP1 PUSH2 0x2850 JUMP JUMPDEST PUSH2 0x140 DUP6 ADD MLOAD DUP7 DUP3 SUB PUSH1 0x1F NOT ADD PUSH2 0x160 DUP9 ADD MSTORE PUSH2 0x2850 JUMP JUMPDEST SWAP3 PUSH2 0x160 DUP2 ADD MLOAD DUP3 DUP7 ADD MSTORE ADD MLOAD ISZERO ISZERO SWAP1 DUP4 ADD MSTORE SUB SWAP1 RETURN JUMPDEST CALLVALUE PUSH2 0x26A JUMPI PUSH1 0x20 CALLDATASIZE PUSH1 0x3 NOT ADD SLT PUSH2 0x26A JUMPI PUSH1 0x4 CALLDATALOAD PUSH1 0x0 MSTORE PUSH1 0x1 PUSH1 0x20 MSTORE PUSH1 0x20 PUSH1 0x1 PUSH1 0x40 PUSH1 0x0 KECCAK256 ADD SLOAD PUSH1 0x40 MLOAD SWAP1 DUP2 MSTORE RETURN JUMPDEST CALLVALUE PUSH2 0x26A JUMPI PUSH1 0x20 CALLDATASIZE PUSH1 0x3 NOT ADD SLT PUSH2 0x26A JUMPI PUSH1 0x4 CALLDATALOAD PUSH1 0x0 MSTORE PUSH1 0x3 PUSH1 0x20 MSTORE PUSH1 0x40 PUSH1 0x0 KECCAK256 DUP1 SLOAD PUSH1 0x1 PUSH1 0xA0 SHL PUSH1 0x1 SWAP1 SUB SWAP2 DUP3 PUSH1 0x1 DUP3 ADD SLOAD AND SWAP3 PUSH1 0x2 DUP3 ADD SLOAD PUSH1 0x3 DUP4 ADD SLOAD PUSH1 0x4 DUP5 ADD SLOAD PUSH1 0x5 DUP6 ADD SLOAD PUSH1 0x6 DUP7 ADD SLOAD SWAP1 PUSH1 0x7 DUP8 ADD SLOAD PUSH1 0xFF AND SWAP3 PUSH1 0x8 DUP9 ADD PUSH2 0x1778 SWAP1 PUSH2 0x27E8 JUMP JUMPDEST SWAP5 PUSH2 0x1785 PUSH1 0xD DUP11 ADD PUSH2 0x27E8 JUMP JUMPDEST SWAP7 PUSH1 0x12 DUP11 ADD SLOAD SWAP10 PUSH1 0x13 ADD SLOAD PUSH1 0xFF AND SWAP9 PUSH1 0x40 MLOAD SWAP13 DUP14 SWAP13 DUP14 MSTORE PUSH1 0x20 DUP14 ADD MSTORE DUP2 AND PUSH1 0x40 DUP13 ADD MSTORE PUSH1 0xA0 SHR PUSH1 0xFF AND PUSH2 0x17B7 DUP2 PUSH2 0x2830 JUMP JUMPDEST PUSH1 0x60 DUP12 ADD MSTORE PUSH1 0x80 DUP11 ADD MSTORE PUSH1 0xA0 DUP10 ADD MSTORE PUSH1 0xC0 DUP9 ADD MSTORE PUSH1 0xE0 DUP8 ADD MSTORE PUSH2 0x17D9 DUP2 PUSH2 0x2830 JUMP JUMPDEST PUSH2 0x100 DUP7 ADD MSTORE PUSH2 0x1A0 DUP1 PUSH2 0x120 DUP8 ADD MSTORE DUP6 ADD PUSH2 0x17F4 SWAP2 PUSH2 0x2850 JUMP JUMPDEST DUP5 DUP2 SUB PUSH2 0x140 DUP7 ADD MSTORE PUSH2 0x1806 SWAP2 PUSH2 0x2850 JUMP JUMPDEST SWAP2 PUSH2 0x160 DUP5 ADD MSTORE ISZERO ISZERO PUSH2 0x180 DUP4 ADD MSTORE SUB SWAP1 RETURN JUMPDEST CALLVALUE PUSH2 0x26A JUMPI PUSH1 0x20 CALLDATASIZE PUSH1 0x3 NOT ADD SLT PUSH2 0x26A JUMPI PUSH2 0x1832 PUSH2 0x2606 JUMP JUMPDEST PUSH2 0x183A PUSH2 0x28BE JUMP JUMPDEST PUSH1 0x1 PUSH1 0x1 PUSH1 0xA0 SHL SUB DUP2 DUP2 AND SWAP2 DUP3 ISZERO PUSH2 0x18BE JUMPI PUSH2 0x18A5 SWAP2 PUSH1 0xA SLOAD AND PUSH2 0x1886 PUSH1 0x0 DUP1 MLOAD PUSH1 0x20 PUSH2 0x2DA0 DUP4 CODECOPY DUP2 MLOAD SWAP2 MSTORE SWAP2 DUP3 PUSH1 0x0 MSTORE PUSH1 0x1 PUSH1 0x20 MSTORE PUSH2 0x1881 PUSH1 0x1 PUSH1 0x40 PUSH1 0x0 KECCAK256 ADD SLOAD PUSH2 0x28F8 JUMP JUMPDEST PUSH2 0x2A3A JUMP JUMPDEST POP PUSH1 0x0 MSTORE PUSH1 0x1 PUSH1 0x20 MSTORE PUSH2 0x18A0 PUSH1 0x1 PUSH1 0x40 PUSH1 0x0 KECCAK256 ADD SLOAD PUSH2 0x28F8 JUMP JUMPDEST PUSH2 0x291E JUMP JUMPDEST POP PUSH1 0x1 PUSH1 0x1 PUSH1 0x60 SHL SUB PUSH1 0xA0 SHL PUSH1 0xA SLOAD AND OR PUSH1 0xA SSTORE PUSH1 0x0 DUP1 RETURN JUMPDEST PUSH1 0x64 PUSH1 0x40 MLOAD PUSH3 0x461BCD PUSH1 0xE5 SHL DUP2 MSTORE PUSH1 0x20 PUSH1 0x4 DUP3 ADD MSTORE PUSH1 0x20 PUSH1 0x24 DUP3 ADD MSTORE PUSH32 0x51524C54726164653A20496E76616C6964206F7261636C652061646472657373 PUSH1 0x44 DUP3 ADD MSTORE REVERT JUMPDEST CALLVALUE PUSH2 0x26A JUMPI PUSH1 0x40 CALLDATASIZE PUSH1 0x3 NOT ADD SLT PUSH2 0x26A JUMPI PUSH1 0x1 PUSH1 0x1 PUSH1 0x40 SHL SUB PUSH1 0x4 CALLDATALOAD DUP2 DUP2 GT PUSH2 0x26A JUMPI PUSH2 0x1933 SWAP1 CALLDATASIZE SWAP1 PUSH1 0x4 ADD PUSH2 0x25D9 JUMP JUMPDEST PUSH1 0x24 CALLDATALOAD SWAP3 PUSH1 0x20 DUP3 LT PUSH2 0x1BAF JUMPI PUSH4 0x1E13380 DUP5 GT PUSH2 0x1B5F JUMPI PUSH2 0x19A4 PUSH2 0x198C PUSH1 0x40 MLOAD PUSH1 0x20 DUP2 ADD SWAP1 DUP6 DUP8 DUP4 CALLDATACOPY PUSH2 0x1982 PUSH1 0x54 DUP3 DUP9 DUP2 ADD CALLER PUSH1 0x60 SHL PUSH1 0x20 DUP3 ADD MSTORE TIMESTAMP PUSH1 0x34 DUP3 ADD MSTORE SUB PUSH1 0x34 DUP2 ADD DUP5 MSTORE ADD DUP3 PUSH2 0x2721 JUMP JUMPDEST MLOAD SWAP1 KECCAK256 SWAP6 TIMESTAMP PUSH2 0x2B4B JUMP JUMPDEST SWAP4 PUSH1 0x40 MLOAD SWAP4 PUSH2 0x199A DUP6 PUSH2 0x26B4 JUMP JUMPDEST DUP7 DUP6 MSTORE CALLDATASIZE SWAP2 PUSH2 0x2B73 JUMP JUMPDEST SWAP3 PUSH1 0x20 DUP4 ADD SWAP4 DUP5 MSTORE TIMESTAMP PUSH1 0x40 DUP5 ADD MSTORE PUSH1 0x60 DUP4 ADD MSTORE PUSH1 0x1 PUSH1 0x80 DUP4 ADD MSTORE PUSH1 0x0 PUSH1 0xA0 DUP4 ADD MSTORE CALLER PUSH1 0x0 MSTORE PUSH1 0x4 PUSH1 0x20 MSTORE PUSH1 0x40 PUSH1 0x0 KECCAK256 SWAP3 DUP3 MLOAD DUP5 SSTORE MLOAD DUP1 MLOAD SWAP2 DUP3 GT PUSH2 0xF02 JUMPI PUSH2 0x19EF PUSH1 0x1 DUP6 ADD SLOAD PUSH2 0x267A JUMP JUMPDEST PUSH1 0x1F DUP2 GT PUSH2 0x1B14 JUMPI JUMPDEST POP PUSH1 0x20 SWAP1 PUSH1 0x1F DUP4 GT PUSH1 0x1 EQ PUSH2 0x1AA1 JUMPI SWAP2 DUP1 PUSH1 0x5 SWAP5 SWAP3 PUSH1 0xA0 SWAP5 PUSH1 0x0 SWAP3 PUSH2 0x1A96 JUMPI JUMPDEST POP POP DUP2 PUSH1 0x1 SHL SWAP2 PUSH1 0x0 NOT SWAP1 PUSH1 0x3 SHL SHR NOT AND OR PUSH1 0x1 DUP6 ADD SSTORE JUMPDEST PUSH1 0x40 DUP2 ADD MLOAD PUSH1 0x2 DUP6 ADD SSTORE PUSH1 0x60 DUP2 ADD MLOAD PUSH1 0x3 DUP6 ADD SSTORE PUSH2 0x1A63 PUSH1 0x80 DUP3 ADD MLOAD ISZERO ISZERO PUSH1 0x4 DUP7 ADD SWAP1 PUSH1 0xFF DUP1 NOT DUP4 SLOAD AND SWAP2 ISZERO ISZERO AND OR SWAP1 SSTORE JUMP JUMPDEST ADD MLOAD SWAP2 ADD SSTORE PUSH1 0x40 MLOAD SWAP1 DUP2 MSTORE PUSH32 0xFE20466623BF997B9345FCE4F083C5FA8BBA90E4725CD89455E9AFC9EE381FB7 PUSH1 0x20 CALLER SWAP3 LOG2 STOP JUMPDEST ADD MLOAD SWAP1 POP DUP8 DUP1 PUSH2 0x1A18 JUMP JUMPDEST SWAP1 PUSH1 0x1F NOT DUP4 AND SWAP2 PUSH1 0x1 DUP7 ADD PUSH1 0x0 MSTORE PUSH1 0x20 PUSH1 0x0 KECCAK256 SWAP3 PUSH1 0x0 JUMPDEST DUP2 DUP2 LT PUSH2 0x1AFC JUMPI POP SWAP3 PUSH1 0x1 SWAP3 DUP6 SWAP3 PUSH1 0xA0 SWAP7 PUSH1 0x5 SWAP9 SWAP7 LT PUSH2 0x1AE3 JUMPI JUMPDEST POP POP POP DUP2 SHL ADD PUSH1 0x1 DUP6 ADD SSTORE PUSH2 0x1A30 JUMP JUMPDEST ADD MLOAD PUSH1 0x0 NOT PUSH1 0xF8 DUP5 PUSH1 0x3 SHL AND SHR NOT AND SWAP1 SSTORE DUP8 DUP1 DUP1 PUSH2 0x1AD3 JUMP JUMPDEST SWAP3 SWAP4 PUSH1 0x20 PUSH1 0x1 DUP2 SWAP3 DUP8 DUP7 ADD MLOAD DUP2 SSTORE ADD SWAP6 ADD SWAP4 ADD PUSH2 0x1AB8 JUMP JUMPDEST PUSH1 0x1 DUP6 ADD PUSH1 0x0 MSTORE PUSH1 0x20 PUSH1 0x0 KECCAK256 PUSH1 0x1F DUP5 ADD PUSH1 0x5 SHR DUP2 ADD SWAP2 PUSH1 0x20 DUP6 LT PUSH2 0x1B55 JUMPI JUMPDEST PUSH1 0x1F ADD PUSH1 0x5 SHR ADD SWAP1 JUMPDEST DUP2 DUP2 LT PUSH2 0x1B49 JUMPI POP PUSH2 0x19F8 JUMP JUMPDEST PUSH1 0x0 DUP2 SSTORE PUSH1 0x1 ADD PUSH2 0x1B3C JUMP JUMPDEST SWAP1 SWAP2 POP DUP2 SWAP1 PUSH2 0x1B33 JUMP JUMPDEST PUSH1 0x40 MLOAD PUSH3 0x461BCD PUSH1 0xE5 SHL DUP2 MSTORE PUSH1 0x20 PUSH1 0x4 DUP3 ADD MSTORE PUSH1 0x22 PUSH1 0x24 DUP3 ADD MSTORE PUSH32 0x51524C54726164653A2056616C696469747920706572696F6420746F6F206C6F PUSH1 0x44 DUP3 ADD MSTORE PUSH2 0x6E67 PUSH1 0xF0 SHL PUSH1 0x64 DUP3 ADD MSTORE PUSH1 0x84 SWAP1 REVERT JUMPDEST PUSH1 0x40 MLOAD PUSH3 0x461BCD PUSH1 0xE5 SHL DUP2 MSTORE PUSH1 0x20 PUSH1 0x4 DUP3 ADD MSTORE PUSH1 0x23 PUSH1 0x24 DUP3 ADD MSTORE PUSH32 0x51524C54726164653A20496E76616C6964207075626C6963206B6579206C656E PUSH1 0x44 DUP3 ADD MSTORE PUSH3 0xCEE8D PUSH1 0xEB SHL PUSH1 0x64 DUP3 ADD MSTORE PUSH1 0x84 SWAP1 REVERT JUMPDEST CALLVALUE PUSH2 0x26A JUMPI PUSH1 0x0 CALLDATASIZE PUSH1 0x3 NOT ADD SLT PUSH2 0x26A JUMPI PUSH1 0x8 SLOAD PUSH1 0x9 SLOAD SWAP1 PUSH1 0x7 SLOAD PUSH1 0x0 NOT DUP2 ADD SWAP1 DUP2 GT PUSH2 0x776 JUMPI PUSH1 0x60 SWAP3 PUSH1 0x40 MLOAD SWAP3 DUP4 MSTORE PUSH1 0x20 DUP4 ADD MSTORE PUSH1 0x40 DUP3 ADD MSTORE RETURN JUMPDEST CALLVALUE PUSH2 0x26A JUMPI PUSH1 0x20 DUP1 PUSH1 0x3 NOT CALLDATASIZE ADD SLT PUSH2 0x26A JUMPI PUSH2 0x1C56 PUSH2 0x2606 JUMP JUMPDEST PUSH1 0x0 PUSH1 0xA0 PUSH1 0x40 MLOAD PUSH2 0x1C66 DUP2 PUSH2 0x26B4 JUMP JUMPDEST DUP3 DUP2 MSTORE PUSH1 0x60 DUP6 DUP3 ADD MSTORE DUP3 PUSH1 0x40 DUP3 ADD MSTORE DUP3 PUSH1 0x60 DUP3 ADD MSTORE DUP3 PUSH1 0x80 DUP3 ADD MSTORE ADD MSTORE PUSH1 0x1 DUP1 PUSH1 0xA0 SHL SUB AND PUSH1 0x0 MSTORE PUSH1 0x4 DUP2 MSTORE PUSH1 0x40 PUSH1 0x0 KECCAK256 PUSH1 0x40 MLOAD SWAP1 PUSH2 0x1CA4 DUP3 PUSH2 0x26B4 JUMP JUMPDEST DUP1 SLOAD DUP3 MSTORE PUSH2 0x1CB4 PUSH1 0x1 DUP3 ADD PUSH2 0x2742 JUMP JUMPDEST DUP4 DUP4 ADD SWAP1 DUP2 MSTORE PUSH1 0x2 DUP3 ADD SLOAD SWAP2 PUSH1 0x40 DUP5 ADD SWAP3 DUP4 MSTORE PUSH1 0x3 DUP2 ADD SLOAD PUSH1 0x60 DUP6 ADD SWAP1 DUP2 MSTORE PUSH2 0x1D14 PUSH1 0x5 PUSH1 0xFF PUSH1 0x4 DUP6 ADD SLOAD AND SWAP4 PUSH1 0x80 DUP9 ADD SWAP5 ISZERO ISZERO DUP6 MSTORE ADD SLOAD SWAP4 PUSH1 0xA0 DUP8 ADD SWAP5 DUP6 MSTORE PUSH1 0x40 MLOAD SWAP8 DUP9 SWAP8 DUP2 DUP10 MSTORE MLOAD SWAP1 DUP9 ADD MSTORE MLOAD PUSH1 0xC0 PUSH1 0x40 DUP9 ADD MSTORE PUSH1 0xE0 DUP8 ADD SWAP1 PUSH2 0x2655 JUMP JUMPDEST SWAP4 MLOAD PUSH1 0x60 DUP7 ADD MSTORE MLOAD PUSH1 0x80 DUP6 ADD MSTORE MLOAD ISZERO ISZERO PUSH1 0xA0 DUP5 ADD MSTORE MLOAD PUSH1 0xC0 DUP4 ADD MSTORE SUB SWAP1 RETURN JUMPDEST CALLVALUE PUSH2 0x26A JUMPI PUSH1 0x0 CALLDATASIZE PUSH1 0x3 NOT ADD SLT PUSH2 0x26A JUMPI PUSH1 0x20 PUSH1 0x40 MLOAD PUSH1 0x0 DUP1 MLOAD PUSH1 0x20 PUSH2 0x2DA0 DUP4 CODECOPY DUP2 MLOAD SWAP2 MSTORE DUP2 MSTORE RETURN JUMPDEST CALLVALUE PUSH2 0x26A JUMPI PUSH1 0x0 CALLDATASIZE PUSH1 0x3 NOT ADD SLT PUSH2 0x26A JUMPI CALLER PUSH1 0x0 SWAP1 DUP2 MSTORE PUSH32 0xF7C11A6D0EC535894A90C88B42CBA2CCB348CB15B5E3AD22A710D1D4AC632819 PUSH1 0x20 MSTORE PUSH1 0x40 SWAP1 KECCAK256 SLOAD PUSH1 0x0 DUP1 MLOAD PUSH1 0x20 PUSH2 0x2DA0 DUP4 CODECOPY DUP2 MLOAD SWAP2 MSTORE SWAP1 PUSH1 0xFF AND ISZERO PUSH2 0x1E07 JUMPI PUSH2 0x1DBF PUSH1 0xB SLOAD PUSH2 0x2C9D JUMP JUMPDEST DUP1 PUSH1 0xB SSTORE PUSH1 0x0 NOT NUMBER ADD SWAP1 NUMBER DUP3 GT PUSH2 0x776 JUMPI PUSH1 0x20 SWAP2 PUSH1 0x40 MLOAD SWAP1 DUP4 DUP3 ADD SWAP3 TIMESTAMP DUP5 MSTORE PREVRANDAO PUSH1 0x40 DUP5 ADD MSTORE PUSH1 0x60 DUP4 ADD MSTORE BLOCKHASH PUSH1 0x80 DUP3 ADD MSTORE PUSH1 0x80 DUP2 MSTORE PUSH2 0x1DFC DUP2 PUSH2 0x26CF JUMP JUMPDEST MLOAD SWAP1 KECCAK256 PUSH1 0x40 MLOAD SWAP1 DUP2 MSTORE RETURN JUMPDEST PUSH1 0x44 SWAP1 PUSH1 0x40 MLOAD SWAP1 PUSH4 0xE2517D3F PUSH1 0xE0 SHL DUP3 MSTORE CALLER PUSH1 0x4 DUP4 ADD MSTORE PUSH1 0x24 DUP3 ADD MSTORE REVERT JUMPDEST CALLVALUE PUSH2 0x26A JUMPI PUSH1 0x20 CALLDATASIZE PUSH1 0x3 NOT ADD SLT PUSH2 0x26A JUMPI PUSH1 0x4 CALLDATALOAD PUSH4 0xFFFFFFFF PUSH1 0xE0 SHL DUP2 AND DUP1 SWAP2 SUB PUSH2 0x26A JUMPI PUSH1 0x20 SWAP1 PUSH4 0x7965DB0B PUSH1 0xE0 SHL DUP2 EQ SWAP1 DUP2 ISZERO PUSH2 0x1E6A JUMPI JUMPDEST POP PUSH1 0x40 MLOAD SWAP1 ISZERO ISZERO DUP2 MSTORE RETURN JUMPDEST PUSH4 0x1FFC9A7 PUSH1 0xE0 SHL EQ SWAP1 POP DUP3 PUSH2 0x1E5F JUMP JUMPDEST CALLVALUE PUSH2 0x26A JUMPI PUSH1 0x0 CALLDATASIZE PUSH1 0x3 NOT ADD SLT PUSH2 0x26A JUMPI PUSH1 0xA SLOAD PUSH1 0x40 MLOAD PUSH1 0x1 PUSH1 0x1 PUSH1 0xA0 SHL SUB SWAP1 SWAP2 AND DUP2 MSTORE PUSH1 0x20 SWAP1 RETURN JUMPDEST CALLVALUE PUSH2 0x26A JUMPI PUSH1 0x60 CALLDATASIZE PUSH1 0x3 NOT ADD SLT PUSH2 0x26A JUMPI PUSH1 0x24 CALLDATALOAD PUSH1 0x1 PUSH1 0x1 PUSH1 0x40 SHL SUB DUP2 GT PUSH2 0x26A JUMPI PUSH2 0x1ED4 SWAP1 CALLDATASIZE SWAP1 PUSH1 0x4 ADD PUSH2 0x25D9 JUMP JUMPDEST SWAP1 CALLER PUSH1 0x0 MSTORE PUSH1 0x4 PUSH1 0x20 MSTORE PUSH2 0x1EF2 PUSH1 0xFF PUSH1 0x4 PUSH1 0x40 PUSH1 0x0 KECCAK256 ADD SLOAD AND PUSH2 0x2BAA JUMP JUMPDEST CALLER PUSH1 0x0 MSTORE PUSH1 0x4 PUSH1 0x20 MSTORE PUSH2 0x1F0E PUSH1 0x3 PUSH1 0x40 PUSH1 0x0 KECCAK256 ADD SLOAD TIMESTAMP LT PUSH2 0x2BF6 JUMP JUMPDEST PUSH2 0x1F16 PUSH2 0x2D04 JUMP JUMPDEST PUSH2 0x1F1E PUSH2 0x2CE6 JUMP JUMPDEST PUSH1 0x4 CALLDATALOAD PUSH1 0x0 MSTORE PUSH1 0x3 PUSH1 0x20 MSTORE PUSH1 0x40 PUSH1 0x0 KECCAK256 SWAP2 PUSH2 0x1F3B DUP4 SLOAD ISZERO ISZERO PUSH2 0x2D27 JUMP JUMPDEST PUSH1 0xFF PUSH1 0x7 DUP5 ADD SLOAD AND PUSH2 0x1F4C DUP2 PUSH2 0x2830 JUMP JUMPDEST PUSH2 0x2594 JUMPI PUSH1 0x1 DUP4 ADD SLOAD CALLER PUSH1 0x1 PUSH1 0x1 PUSH1 0xA0 SHL SUB SWAP2 DUP3 AND EQ SWAP2 SWAP1 DUP3 SWAP1 DUP2 ISZERO PUSH2 0x2584 JUMPI JUMPDEST POP ISZERO PUSH2 0x2528 JUMPI PUSH1 0x44 CALLDATALOAD PUSH1 0x0 MSTORE PUSH1 0x5 PUSH1 0x20 MSTORE PUSH2 0x1F90 PUSH1 0xFF PUSH1 0x40 PUSH1 0x0 KECCAK256 SLOAD AND ISZERO PUSH2 0x2C42 JUMP JUMPDEST PUSH1 0x12 DUP5 ADD SLOAD PUSH1 0x40 MLOAD PUSH1 0x20 DUP2 ADD SWAP2 PUSH1 0x4 CALLDATALOAD DUP4 MSTORE PUSH1 0x40 DUP3 ADD MSTORE CALLER PUSH1 0x60 SHL PUSH1 0x60 DUP3 ADD MSTORE PUSH1 0x44 CALLDATALOAD PUSH1 0x74 DUP3 ADD MSTORE PUSH1 0x74 DUP2 MSTORE PUSH2 0x1FC5 DUP2 PUSH2 0x26CF JUMP JUMPDEST MLOAD SWAP1 KECCAK256 SWAP3 CALLER PUSH1 0x0 MSTORE PUSH1 0x4 PUSH1 0x20 MSTORE PUSH1 0x40 PUSH1 0x0 KECCAK256 PUSH1 0x40 MLOAD SWAP1 PUSH2 0x1FE4 DUP3 PUSH2 0x26B4 JUMP JUMPDEST DUP1 SLOAD DUP3 MSTORE PUSH2 0x1FF4 PUSH1 0x1 DUP3 ADD PUSH2 0x2742 JUMP JUMPDEST PUSH1 0x20 DUP4 ADD MSTORE PUSH1 0x2 DUP2 ADD SLOAD PUSH1 0x40 DUP4 ADD MSTORE PUSH1 0x3 DUP2 ADD SLOAD PUSH1 0x60 DUP4 ADD MSTORE PUSH1 0x5 PUSH1 0xFF PUSH1 0x4 DUP4 ADD SLOAD AND ISZERO SWAP2 DUP3 ISZERO PUSH1 0x80 DUP6 ADD MSTORE ADD SLOAD PUSH1 0xA0 DUP4 ADD MSTORE PUSH2 0x24E3 JUMPI PUSH1 0x20 ADD MLOAD PUSH1 0x40 MLOAD PUSH2 0x206D PUSH1 0x54 DUP3 PUSH1 0x20 DUP2 ADD SWAP5 DUP10 DUP7 MSTORE PUSH2 0x2054 DUP2 MLOAD DUP1 SWAP3 PUSH1 0x20 PUSH1 0x40 DUP7 ADD SWAP2 ADD PUSH2 0x2632 JUMP JUMPDEST DUP2 ADD CALLER PUSH1 0x60 SHL PUSH1 0x40 DUP3 ADD MSTORE SUB PUSH1 0x34 DUP2 ADD DUP5 MSTORE ADD DUP3 PUSH2 0x2721 JUMP JUMPDEST MLOAD SWAP1 KECCAK256 PUSH2 0x207B CALLDATASIZE DUP5 DUP5 PUSH2 0x2B73 JUMP JUMPDEST PUSH1 0x20 DUP2 MLOAD SWAP2 ADD KECCAK256 SUB PUSH2 0x2492 JUMPI PUSH2 0x20A1 SWAP2 PUSH1 0x40 MLOAD SWAP5 PUSH2 0x2098 DUP7 PUSH2 0x26CF JUMP JUMPDEST DUP6 MSTORE CALLDATASIZE SWAP2 PUSH2 0x2B73 JUMP JUMPDEST PUSH1 0x20 DUP4 ADD DUP2 DUP2 MSTORE TIMESTAMP PUSH1 0x40 DUP6 ADD MSTORE PUSH1 0x44 CALLDATALOAD PUSH1 0x60 DUP6 ADD MSTORE PUSH1 0x1 PUSH1 0x80 DUP6 ADD MSTORE SWAP2 ISZERO PUSH2 0x2330 JUMPI POP DUP2 MLOAD PUSH1 0x8 DUP5 ADD SSTORE MLOAD DUP1 MLOAD SWAP1 PUSH1 0x1 PUSH1 0x1 PUSH1 0x40 SHL SUB DUP3 GT PUSH2 0xF02 JUMPI PUSH2 0x20EA PUSH1 0x9 DUP6 ADD SLOAD PUSH2 0x267A JUMP JUMPDEST PUSH1 0x1F DUP2 GT PUSH2 0x22E9 JUMPI JUMPDEST POP PUSH1 0x20 SWAP1 PUSH1 0x1F DUP4 GT PUSH1 0x1 EQ PUSH2 0x2274 JUMPI SWAP2 DUP1 PUSH2 0x2157 SWAP5 SWAP3 PUSH1 0x80 SWAP5 PUSH1 0x0 SWAP3 PUSH2 0x2269 JUMPI POP POP DUP2 PUSH1 0x1 SHL SWAP2 PUSH1 0x0 NOT SWAP1 PUSH1 0x3 SHL SHR NOT AND OR PUSH1 0x9 DUP6 ADD SSTORE PUSH1 0x40 DUP2 ADD MLOAD PUSH1 0xA DUP6 ADD SSTORE PUSH1 0x60 DUP2 ADD MLOAD PUSH1 0xB DUP6 ADD SSTORE ADD MLOAD ISZERO ISZERO PUSH1 0xC DUP4 ADD SWAP1 PUSH1 0xFF DUP1 NOT DUP4 SLOAD AND SWAP2 ISZERO ISZERO AND OR SWAP1 SSTORE JUMP JUMPDEST PUSH1 0xFF PUSH1 0xC DUP3 ADD SLOAD AND DUP1 PUSH2 0x225B JUMPI JUMPDEST PUSH2 0x2203 JUMPI JUMPDEST PUSH1 0x44 CALLDATALOAD PUSH1 0x0 MSTORE PUSH1 0x5 PUSH1 0x20 MSTORE PUSH1 0x40 PUSH1 0x0 KECCAK256 PUSH1 0x1 PUSH1 0xFF NOT DUP3 SLOAD AND OR SWAP1 SSTORE CALLER PUSH1 0x0 MSTORE PUSH1 0x4 PUSH1 0x20 MSTORE PUSH1 0x5 PUSH1 0x40 PUSH1 0x0 KECCAK256 ADD PUSH2 0x21A0 DUP2 SLOAD PUSH2 0x2C9D JUMP JUMPDEST SWAP1 SSTORE PUSH32 0x83F66337B809447001604ACE11A9A88F56110EF4F1107A241F4E4C79763B84CF PUSH1 0x40 DUP1 MLOAD CALLER PUSH1 0x4 CALLDATALOAD PUSH32 0x6F2FC0168E577C2D847B430C6B05A88C6A40AB1FF4C45EBF20CC89F64BF9FADE PUSH1 0x0 DUP1 LOG3 PUSH1 0x44 CALLDATALOAD DUP2 MSTORE TIMESTAMP PUSH1 0x20 DUP3 ADD MSTORE LOG1 PUSH1 0x1 PUSH1 0x0 SSTORE STOP JUMPDEST PUSH1 0x12 SWAP1 PUSH1 0xFF NOT PUSH1 0x1 DUP2 PUSH1 0x7 DUP5 ADD SLOAD AND OR PUSH1 0x7 DUP4 ADD SSTORE PUSH1 0x1 PUSH1 0x13 DUP4 ADD SWAP2 DUP3 SLOAD AND OR SWAP1 SSTORE ADD SLOAD PUSH1 0x40 MLOAD SWAP1 DUP2 MSTORE PUSH32 0x32CFB1D59CCB25544919A13A38C885DD9DBBFDF3F35DA4F2577E1A427259BC8D PUSH1 0x20 PUSH1 0x4 CALLDATALOAD SWAP3 LOG2 DUP1 PUSH2 0x216A JUMP JUMPDEST POP PUSH1 0xFF PUSH1 0x11 DUP3 ADD SLOAD AND PUSH2 0x2165 JUMP JUMPDEST ADD MLOAD SWAP1 POP DUP7 DUP1 PUSH2 0xC3C JUMP JUMPDEST SWAP1 PUSH1 0x9 DUP6 ADD PUSH1 0x0 MSTORE PUSH1 0x20 PUSH1 0x0 KECCAK256 SWAP2 PUSH1 0x0 JUMPDEST PUSH1 0x1F NOT DUP6 AND DUP2 LT PUSH2 0x22D1 JUMPI POP SWAP3 PUSH2 0x2157 SWAP5 SWAP3 PUSH1 0x1 SWAP3 PUSH1 0x80 SWAP6 DUP4 PUSH1 0x1F NOT DUP2 AND LT PUSH2 0x22B8 JUMPI POP POP POP DUP2 SHL ADD PUSH1 0x9 DUP6 ADD SSTORE PUSH2 0xC54 JUMP JUMPDEST ADD MLOAD PUSH1 0x0 NOT PUSH1 0xF8 DUP5 PUSH1 0x3 SHL AND SHR NOT AND SWAP1 SSTORE DUP7 DUP1 DUP1 PUSH2 0xF58 JUMP JUMPDEST SWAP2 SWAP3 PUSH1 0x20 PUSH1 0x1 DUP2 SWAP3 DUP7 DUP6 ADD MLOAD DUP2 SSTORE ADD SWAP5 ADD SWAP3 ADD PUSH2 0x2285 JUMP JUMPDEST PUSH1 0x9 DUP6 ADD PUSH1 0x0 MSTORE PUSH1 0x20 PUSH1 0x0 KECCAK256 PUSH1 0x1F DUP5 ADD PUSH1 0x5 SHR DUP2 ADD PUSH1 0x20 DUP6 LT PUSH2 0x2329 JUMPI JUMPDEST PUSH1 0x1F DUP4 ADD PUSH1 0x5 SHR DUP3 ADD DUP2 LT PUSH2 0x231D JUMPI POP POP PUSH2 0x20F3 JUMP JUMPDEST PUSH1 0x0 DUP2 SSTORE PUSH1 0x1 ADD PUSH2 0x2307 JUMP JUMPDEST POP DUP1 PUSH2 0x2307 JUMP JUMPDEST DUP3 MLOAD PUSH1 0xD DUP6 ADD SSTORE DUP1 MLOAD SWAP2 POP PUSH1 0x1 PUSH1 0x1 PUSH1 0x40 SHL SUB DUP3 GT PUSH2 0xF02 JUMPI PUSH2 0x2356 PUSH1 0xE DUP6 ADD SLOAD PUSH2 0x267A JUMP JUMPDEST PUSH1 0x1F DUP2 GT PUSH2 0x244B JUMPI JUMPDEST POP PUSH1 0x20 SWAP1 PUSH1 0x1F DUP4 GT PUSH1 0x1 EQ PUSH2 0x23D5 JUMPI SWAP2 DUP1 PUSH2 0x23C5 SWAP5 SWAP3 PUSH1 0x80 SWAP5 PUSH1 0x0 SWAP3 PUSH2 0x23CA JUMPI JUMPDEST POP POP DUP2 PUSH1 0x1 SHL SWAP2 PUSH1 0x0 NOT SWAP1 PUSH1 0x3 SHL SHR NOT AND OR PUSH1 0xE DUP6 ADD SSTORE JUMPDEST PUSH1 0x40 DUP2 ADD MLOAD PUSH1 0xF DUP6 ADD SSTORE PUSH1 0x60 DUP2 ADD MLOAD PUSH1 0x10 DUP6 ADD SSTORE ADD MLOAD ISZERO ISZERO PUSH1 0x11 DUP4 ADD SWAP1 PUSH1 0xFF DUP1 NOT DUP4 SLOAD AND SWAP2 ISZERO ISZERO AND OR SWAP1 SSTORE JUMP JUMPDEST PUSH2 0x2157 JUMP JUMPDEST ADD MLOAD SWAP1 POP DUP7 DUP1 PUSH2 0x2380 JUMP JUMPDEST SWAP1 PUSH1 0xE DUP6 ADD PUSH1 0x0 MSTORE PUSH1 0x20 PUSH1 0x0 KECCAK256 SWAP2 PUSH1 0x0 JUMPDEST PUSH1 0x1F NOT DUP6 AND DUP2 LT PUSH2 0x2433 JUMPI POP SWAP3 PUSH2 0x23C5 SWAP5 SWAP3 PUSH1 0x1 SWAP3 PUSH1 0x80 SWAP6 DUP4 PUSH1 0x1F NOT DUP2 AND LT PUSH2 0x241A JUMPI JUMPDEST POP POP POP DUP2 SHL ADD PUSH1 0xE DUP6 ADD SSTORE PUSH2 0x2398 JUMP JUMPDEST ADD MLOAD PUSH1 0x0 NOT PUSH1 0xF8 DUP5 PUSH1 0x3 SHL AND SHR NOT AND SWAP1 SSTORE DUP7 DUP1 DUP1 PUSH2 0x240A JUMP JUMPDEST SWAP2 SWAP3 PUSH1 0x20 PUSH1 0x1 DUP2 SWAP3 DUP7 DUP6 ADD MLOAD DUP2 SSTORE ADD SWAP5 ADD SWAP3 ADD PUSH2 0x23E6 JUMP JUMPDEST PUSH1 0xE DUP6 ADD PUSH1 0x0 MSTORE PUSH1 0x20 PUSH1 0x0 KECCAK256 PUSH1 0x1F DUP5 ADD PUSH1 0x5 SHR DUP2 ADD PUSH1 0x20 DUP6 LT PUSH2 0x248B JUMPI JUMPDEST PUSH1 0x1F DUP4 ADD PUSH1 0x5 SHR DUP3 ADD DUP2 LT PUSH2 0x247F JUMPI POP POP PUSH2 0x235F JUMP JUMPDEST PUSH1 0x0 DUP2 SSTORE PUSH1 0x1 ADD PUSH2 0x2469 JUMP JUMPDEST POP DUP1 PUSH2 0x2469 JUMP JUMPDEST PUSH1 0x40 MLOAD PUSH3 0x461BCD PUSH1 0xE5 SHL DUP2 MSTORE PUSH1 0x20 PUSH1 0x4 DUP3 ADD MSTORE PUSH1 0x23 PUSH1 0x24 DUP3 ADD MSTORE PUSH32 0x51524C54726164653A20496E76616C6964207175616E74756D207369676E6174 PUSH1 0x44 DUP3 ADD MSTORE PUSH3 0x757265 PUSH1 0xE8 SHL PUSH1 0x64 DUP3 ADD MSTORE PUSH1 0x84 SWAP1 REVERT JUMPDEST PUSH1 0x40 MLOAD PUSH3 0x461BCD PUSH1 0xE5 SHL DUP2 MSTORE PUSH1 0x20 PUSH1 0x4 DUP3 ADD MSTORE PUSH1 0x1F PUSH1 0x24 DUP3 ADD MSTORE PUSH32 0x51524C54726164653A205369676E6572206B6579206E6F742061637469766500 PUSH1 0x44 DUP3 ADD MSTORE PUSH1 0x64 SWAP1 REVERT JUMPDEST PUSH1 0x40 MLOAD PUSH3 0x461BCD PUSH1 0xE5 SHL DUP2 MSTORE PUSH1 0x20 PUSH1 0x4 DUP3 ADD MSTORE PUSH1 0x2E PUSH1 0x24 DUP3 ADD MSTORE PUSH32 0x51524C54726164653A204E6F7420617574686F72697A656420746F20636F6E66 PUSH1 0x44 DUP3 ADD MSTORE PUSH14 0x69726D2074686973207472616465 PUSH1 0x90 SHL PUSH1 0x64 DUP3 ADD MSTORE PUSH1 0x84 SWAP1 REVERT JUMPDEST SWAP1 POP PUSH1 0x2 DUP6 ADD SLOAD AND CALLER EQ DUP6 PUSH2 0x1F6D JUMP JUMPDEST PUSH1 0x40 MLOAD PUSH3 0x461BCD PUSH1 0xE5 SHL DUP2 MSTORE PUSH1 0x20 PUSH1 0x4 DUP3 ADD MSTORE PUSH1 0x1B PUSH1 0x24 DUP3 ADD MSTORE PUSH32 0x51524C54726164653A205472616465206E6F742070656E64696E670000000000 PUSH1 0x44 DUP3 ADD MSTORE PUSH1 0x64 SWAP1 REVERT JUMPDEST SWAP2 DUP2 PUSH1 0x1F DUP5 ADD SLT ISZERO PUSH2 0x26A JUMPI DUP3 CALLDATALOAD SWAP2 PUSH1 0x1 PUSH1 0x1 PUSH1 0x40 SHL SUB DUP4 GT PUSH2 0x26A JUMPI PUSH1 0x20 DUP4 DUP2 DUP7 ADD SWAP6 ADD ADD GT PUSH2 0x26A JUMPI JUMP JUMPDEST PUSH1 0x4 CALLDATALOAD SWAP1 PUSH1 0x1 PUSH1 0x1 PUSH1 0xA0 SHL SUB DUP3 AND DUP3 SUB PUSH2 0x26A JUMPI JUMP JUMPDEST PUSH1 0x24 CALLDATALOAD SWAP1 PUSH1 0x1 PUSH1 0x1 PUSH1 0xA0 SHL SUB DUP3 AND DUP3 SUB PUSH2 0x26A JUMPI JUMP JUMPDEST PUSH1 0x0 JUMPDEST DUP4 DUP2 LT PUSH2 0x2645 JUMPI POP POP PUSH1 0x0 SWAP2 ADD MSTORE JUMP JUMPDEST DUP2 DUP2 ADD MLOAD DUP4 DUP3 ADD MSTORE PUSH1 0x20 ADD PUSH2 0x2635 JUMP JUMPDEST SWAP1 PUSH1 0x20 SWAP2 PUSH2 0x266E DUP2 MLOAD DUP1 SWAP3 DUP2 DUP6 MSTORE DUP6 DUP1 DUP7 ADD SWAP2 ADD PUSH2 0x2632 JUMP JUMPDEST PUSH1 0x1F ADD PUSH1 0x1F NOT AND ADD ADD SWAP1 JUMP JUMPDEST SWAP1 PUSH1 0x1 DUP3 DUP2 SHR SWAP3 AND DUP1 ISZERO PUSH2 0x26AA JUMPI JUMPDEST PUSH1 0x20 DUP4 LT EQ PUSH2 0x2694 JUMPI JUMP JUMPDEST PUSH4 0x4E487B71 PUSH1 0xE0 SHL PUSH1 0x0 MSTORE PUSH1 0x22 PUSH1 0x4 MSTORE PUSH1 0x24 PUSH1 0x0 REVERT JUMPDEST SWAP2 PUSH1 0x7F AND SWAP2 PUSH2 0x2689 JUMP JUMPDEST PUSH1 0xC0 DUP2 ADD SWAP1 DUP2 LT PUSH1 0x1 PUSH1 0x1 PUSH1 0x40 SHL SUB DUP3 GT OR PUSH2 0xF02 JUMPI PUSH1 0x40 MSTORE JUMP JUMPDEST PUSH1 0xA0 DUP2 ADD SWAP1 DUP2 LT PUSH1 0x1 PUSH1 0x1 PUSH1 0x40 SHL SUB DUP3 GT OR PUSH2 0xF02 JUMPI PUSH1 0x40 MSTORE JUMP JUMPDEST PUSH2 0x1A0 DUP2 ADD SWAP1 DUP2 LT PUSH1 0x1 PUSH1 0x1 PUSH1 0x40 SHL SUB DUP3 GT OR PUSH2 0xF02 JUMPI PUSH1 0x40 MSTORE JUMP JUMPDEST PUSH1 0x20 DUP2 ADD SWAP1 DUP2 LT PUSH1 0x1 PUSH1 0x1 PUSH1 0x40 SHL SUB DUP3 GT OR PUSH2 0xF02 JUMPI PUSH1 0x40 MSTORE JUMP JUMPDEST SWAP1 PUSH1 0x1F DUP1 NOT SWAP2 ADD AND DUP2 ADD SWAP1 DUP2 LT PUSH1 0x1 PUSH1 0x1 PUSH1 0x40 SHL SUB DUP3 GT OR PUSH2 0xF02 JUMPI PUSH1 0x40 MSTORE JUMP JUMPDEST SWAP1 PUSH1 0x40 MLOAD SWAP2 DUP3 PUSH1 0x0 DUP3 SLOAD SWAP3 PUSH2 0x2756 DUP5 PUSH2 0x267A JUMP JUMPDEST SWAP1 DUP2 DUP5 MSTORE PUSH1 0x1 SWAP5 DUP6 DUP2 AND SWAP1 DUP2 PUSH1 0x0 EQ PUSH2 0x27C5 JUMPI POP PUSH1 0x1 EQ PUSH2 0x2782 JUMPI JUMPDEST POP POP PUSH2 0x2780 SWAP3 POP SUB DUP4 PUSH2 0x2721 JUMP JUMPDEST JUMP JUMPDEST SWAP1 SWAP4 SWAP2 POP PUSH1 0x0 MSTORE PUSH1 0x20 SWAP1 DUP2 PUSH1 0x0 KECCAK256 SWAP4 PUSH1 0x0 SWAP2 JUMPDEST DUP2 DUP4 LT PUSH2 0x27AD JUMPI POP POP PUSH2 0x2780 SWAP4 POP DUP3 ADD ADD CODESIZE DUP1 PUSH2 0x2772 JUMP JUMPDEST DUP6 SLOAD DUP9 DUP5 ADD DUP6 ADD MSTORE SWAP5 DUP6 ADD SWAP5 DUP8 SWAP5 POP SWAP2 DUP4 ADD SWAP2 PUSH2 0x2795 JUMP JUMPDEST SWAP2 POP POP PUSH2 0x2780 SWAP5 POP PUSH1 0x20 SWAP3 POP PUSH1 0xFF NOT AND DUP3 DUP5 ADD MSTORE ISZERO ISZERO PUSH1 0x5 SHL DUP3 ADD ADD CODESIZE DUP1 PUSH2 0x2772 JUMP JUMPDEST SWAP1 PUSH1 0x40 MLOAD PUSH2 0x27F5 DUP2 PUSH2 0x26CF JUMP JUMPDEST PUSH1 0x80 PUSH1 0xFF PUSH1 0x4 DUP4 SWAP6 DUP1 SLOAD DUP6 MSTORE PUSH2 0x280D PUSH1 0x1 DUP3 ADD PUSH2 0x2742 JUMP JUMPDEST PUSH1 0x20 DUP7 ADD MSTORE PUSH1 0x2 DUP2 ADD SLOAD PUSH1 0x40 DUP7 ADD MSTORE PUSH1 0x3 DUP2 ADD SLOAD PUSH1 0x60 DUP7 ADD MSTORE ADD SLOAD AND ISZERO ISZERO SWAP2 ADD MSTORE JUMP JUMPDEST PUSH1 0x5 GT ISZERO PUSH2 0x283A JUMPI JUMP JUMPDEST PUSH4 0x4E487B71 PUSH1 0xE0 SHL PUSH1 0x0 MSTORE PUSH1 0x21 PUSH1 0x4 MSTORE PUSH1 0x24 PUSH1 0x0 REVERT JUMPDEST SWAP1 DUP2 MLOAD DUP2 MSTORE PUSH1 0x80 DUP1 PUSH2 0x2871 PUSH1 0x20 DUP6 ADD MLOAD PUSH1 0xA0 PUSH1 0x20 DUP7 ADD MSTORE PUSH1 0xA0 DUP6 ADD SWAP1 PUSH2 0x2655 JUMP JUMPDEST SWAP4 PUSH1 0x40 DUP2 ADD MLOAD PUSH1 0x40 DUP6 ADD MSTORE PUSH1 0x60 DUP2 ADD MLOAD PUSH1 0x60 DUP6 ADD MSTORE ADD MLOAD ISZERO ISZERO SWAP2 ADD MSTORE SWAP1 JUMP JUMPDEST DUP1 SLOAD DUP3 LT ISZERO PUSH2 0x28A8 JUMPI PUSH1 0x0 MSTORE PUSH1 0x20 PUSH1 0x0 KECCAK256 ADD SWAP1 PUSH1 0x0 SWAP1 JUMP JUMPDEST PUSH4 0x4E487B71 PUSH1 0xE0 SHL PUSH1 0x0 MSTORE PUSH1 0x32 PUSH1 0x4 MSTORE PUSH1 0x24 PUSH1 0x0 REVERT JUMPDEST CALLER PUSH1 0x0 SWAP1 DUP2 MSTORE PUSH32 0xA6EEF7E35ABE7026729641147F7915573C7E97B47EFA546F5F6E3230263BCB49 PUSH1 0x20 MSTORE PUSH1 0x40 DUP2 KECCAK256 SLOAD PUSH1 0xFF AND ISZERO PUSH2 0x1E07 JUMPI POP JUMP JUMPDEST DUP1 PUSH1 0x0 MSTORE PUSH1 0x1 PUSH1 0x20 MSTORE PUSH1 0x40 PUSH1 0x0 KECCAK256 CALLER PUSH1 0x0 MSTORE PUSH1 0x20 MSTORE PUSH1 0xFF PUSH1 0x40 PUSH1 0x0 KECCAK256 SLOAD AND ISZERO PUSH2 0x1E07 JUMPI POP JUMP JUMPDEST PUSH1 0x1 PUSH1 0x1 PUSH1 0xA0 SHL SUB AND PUSH1 0x0 DUP2 DUP2 MSTORE PUSH32 0xF7C11A6D0EC535894A90C88B42CBA2CCB348CB15B5E3AD22A710D1D4AC632819 PUSH1 0x20 MSTORE PUSH1 0x40 DUP2 KECCAK256 SLOAD SWAP1 SWAP2 SWAP1 PUSH1 0x0 DUP1 MLOAD PUSH1 0x20 PUSH2 0x2DA0 DUP4 CODECOPY DUP2 MLOAD SWAP2 MSTORE SWAP1 PUSH1 0xFF AND PUSH2 0x29BA JUMPI DUP1 DUP4 MSTORE PUSH1 0x1 PUSH1 0x20 MSTORE PUSH1 0x40 DUP4 KECCAK256 DUP3 DUP5 MSTORE PUSH1 0x20 MSTORE PUSH1 0x40 DUP4 KECCAK256 PUSH1 0x1 PUSH1 0xFF NOT DUP3 SLOAD AND OR SWAP1 SSTORE PUSH32 0x2F8788117E7EFF1D82E926EC794901D17C78024A50270940304540A733656F0D CALLER SWAP4 DUP1 LOG4 PUSH1 0x1 SWAP1 JUMP JUMPDEST POP POP SWAP1 JUMP JUMPDEST SWAP1 PUSH1 0x0 SWAP2 DUP1 DUP4 MSTORE PUSH1 0x1 PUSH1 0x20 MSTORE PUSH1 0x40 DUP4 KECCAK256 SWAP2 PUSH1 0x1 DUP1 PUSH1 0xA0 SHL SUB AND SWAP2 DUP3 DUP5 MSTORE PUSH1 0x20 MSTORE PUSH1 0xFF PUSH1 0x40 DUP5 KECCAK256 SLOAD AND ISZERO PUSH1 0x0 EQ PUSH2 0x29BA JUMPI DUP1 DUP4 MSTORE PUSH1 0x1 PUSH1 0x20 MSTORE PUSH1 0x40 DUP4 KECCAK256 DUP3 DUP5 MSTORE PUSH1 0x20 MSTORE PUSH1 0x40 DUP4 KECCAK256 PUSH1 0x1 PUSH1 0xFF NOT DUP3 SLOAD AND OR SWAP1 SSTORE PUSH32 0x2F8788117E7EFF1D82E926EC794901D17C78024A50270940304540A733656F0D CALLER SWAP4 DUP1 LOG4 PUSH1 0x1 SWAP1 JUMP JUMPDEST PUSH1 0x1 PUSH1 0x1 PUSH1 0xA0 SHL SUB AND PUSH1 0x0 DUP2 DUP2 MSTORE PUSH32 0xF7C11A6D0EC535894A90C88B42CBA2CCB348CB15B5E3AD22A710D1D4AC632819 PUSH1 0x20 MSTORE PUSH1 0x40 DUP2 KECCAK256 SLOAD SWAP1 SWAP2 SWAP1 PUSH1 0x0 DUP1 MLOAD PUSH1 0x20 PUSH2 0x2DA0 DUP4 CODECOPY DUP2 MLOAD SWAP2 MSTORE SWAP1 PUSH1 0xFF AND ISZERO PUSH2 0x29BA JUMPI DUP1 DUP4 MSTORE PUSH1 0x1 PUSH1 0x20 MSTORE PUSH1 0x40 DUP4 KECCAK256 DUP3 DUP5 MSTORE PUSH1 0x20 MSTORE PUSH1 0x40 DUP4 KECCAK256 PUSH1 0xFF NOT DUP2 SLOAD AND SWAP1 SSTORE PUSH32 0xF6391F5C32D9C69D2A47EA670B442974B53935D1EDC7FD64EB21E047A839171B CALLER SWAP4 DUP1 LOG4 PUSH1 0x1 SWAP1 JUMP JUMPDEST SWAP1 PUSH1 0x0 SWAP2 DUP1 DUP4 MSTORE PUSH1 0x1 PUSH1 0x20 MSTORE PUSH1 0x40 DUP4 KECCAK256 SWAP2 PUSH1 0x1 DUP1 PUSH1 0xA0 SHL SUB AND SWAP2 DUP3 DUP5 MSTORE PUSH1 0x20 MSTORE PUSH1 0xFF PUSH1 0x40 DUP5 KECCAK256 SLOAD AND PUSH1 0x0 EQ PUSH2 0x29BA JUMPI DUP1 DUP4 MSTORE PUSH1 0x1 PUSH1 0x20 MSTORE PUSH1 0x40 DUP4 KECCAK256 DUP3 DUP5 MSTORE PUSH1 0x20 MSTORE PUSH1 0x40 DUP4 KECCAK256 PUSH1 0xFF NOT DUP2 SLOAD AND SWAP1 SSTORE PUSH32 0xF6391F5C32D9C69D2A47EA670B442974B53935D1EDC7FD64EB21E047A839171B CALLER SWAP4 DUP1 LOG4 PUSH1 0x1 SWAP1 JUMP JUMPDEST SWAP2 SWAP1 DUP3 ADD DUP1 SWAP3 GT PUSH2 0x776 JUMPI JUMP JUMPDEST PUSH1 0x1 PUSH1 0x1 PUSH1 0x40 SHL SUB DUP2 GT PUSH2 0xF02 JUMPI PUSH1 0x1F ADD PUSH1 0x1F NOT AND PUSH1 0x20 ADD SWAP1 JUMP JUMPDEST SWAP3 SWAP2 SWAP3 PUSH2 0x2B7F DUP3 PUSH2 0x2B58 JUMP JUMPDEST SWAP2 PUSH2 0x2B8D PUSH1 0x40 MLOAD SWAP4 DUP5 PUSH2 0x2721 JUMP JUMPDEST DUP3 SWAP5 DUP2 DUP5 MSTORE DUP2 DUP4 ADD GT PUSH2 0x26A JUMPI DUP3 DUP2 PUSH1 0x20 SWAP4 DUP5 PUSH1 0x0 SWAP7 ADD CALLDATACOPY ADD ADD MSTORE JUMP JUMPDEST ISZERO PUSH2 0x2BB1 JUMPI JUMP JUMPDEST PUSH1 0x40 MLOAD PUSH3 0x461BCD PUSH1 0xE5 SHL DUP2 MSTORE PUSH1 0x20 PUSH1 0x4 DUP3 ADD MSTORE PUSH1 0x1D PUSH1 0x24 DUP3 ADD MSTORE PUSH32 0x51524C54726164653A20496E76616C6964207175616E74756D206B6579000000 PUSH1 0x44 DUP3 ADD MSTORE PUSH1 0x64 SWAP1 REVERT JUMPDEST ISZERO PUSH2 0x2BFD JUMPI JUMP JUMPDEST PUSH1 0x40 MLOAD PUSH3 0x461BCD PUSH1 0xE5 SHL DUP2 MSTORE PUSH1 0x20 PUSH1 0x4 DUP3 ADD MSTORE PUSH1 0x1D PUSH1 0x24 DUP3 ADD MSTORE PUSH32 0x51524C54726164653A205175616E74756D206B65792065787069726564000000 PUSH1 0x44 DUP3 ADD MSTORE PUSH1 0x64 SWAP1 REVERT JUMPDEST ISZERO PUSH2 0x2C49 JUMPI JUMP JUMPDEST PUSH1 0x40 MLOAD PUSH3 0x461BCD PUSH1 0xE5 SHL DUP2 MSTORE PUSH1 0x20 PUSH1 0x4 DUP3 ADD MSTORE PUSH1 0x26 PUSH1 0x24 DUP3 ADD MSTORE PUSH32 0x51524C54726164653A205175616E74756D20656E74726F707920616C72656164 PUSH1 0x44 DUP3 ADD MSTORE PUSH6 0x1E481D5CD959 PUSH1 0xD2 SHL PUSH1 0x64 DUP3 ADD MSTORE PUSH1 0x84 SWAP1 REVERT JUMPDEST PUSH1 0x0 NOT DUP2 EQ PUSH2 0x776 JUMPI PUSH1 0x1 ADD SWAP1 JUMP JUMPDEST DUP1 SLOAD PUSH9 0x10000000000000000 DUP2 LT ISZERO PUSH2 0xF02 JUMPI PUSH2 0x2CCE SWAP2 PUSH1 0x1 DUP3 ADD DUP2 SSTORE PUSH2 0x2890 JUMP JUMPDEST DUP2 SWAP3 SWAP2 SLOAD SWAP1 PUSH1 0x3 SHL SWAP2 DUP3 SHL SWAP2 PUSH1 0x0 NOT SWAP1 SHL NOT AND OR SWAP1 SSTORE JUMP JUMPDEST PUSH1 0xFF PUSH1 0x2 SLOAD AND PUSH2 0x2CF2 JUMPI JUMP JUMPDEST PUSH1 0x40 MLOAD PUSH4 0xD93C0665 PUSH1 0xE0 SHL DUP2 MSTORE PUSH1 0x4 SWAP1 REVERT JUMPDEST PUSH1 0x2 PUSH1 0x0 SLOAD EQ PUSH2 0x2D15 JUMPI PUSH1 0x2 PUSH1 0x0 SSTORE JUMP JUMPDEST PUSH1 0x40 MLOAD PUSH4 0x3EE5AEB5 PUSH1 0xE0 SHL DUP2 MSTORE PUSH1 0x4 SWAP1 REVERT JUMPDEST ISZERO PUSH2 0x2D2E JUMPI JUMP JUMPDEST PUSH1 0x40 MLOAD PUSH3 0x461BCD PUSH1 0xE5 SHL DUP2 MSTORE PUSH1 0x20 PUSH1 0x4 DUP3 ADD MSTORE PUSH1 0x1E PUSH1 0x24 DUP3 ADD MSTORE PUSH32 0x51524C54726164653A20547261646520646F6573206E6F742065786973740000 PUSH1 0x44 DUP3 ADD MSTORE PUSH1 0x64 SWAP1 REVERT JUMPDEST PUSH1 0x40 MLOAD SWAP1 PUSH2 0x2D80 DUP3 PUSH2 0x26CF JUMP JUMPDEST PUSH1 0x0 PUSH1 0x80 DUP4 DUP3 DUP2 MSTORE PUSH1 0x60 PUSH1 0x20 DUP3 ADD MSTORE DUP3 PUSH1 0x40 DUP3 ADD MSTORE DUP3 PUSH1 0x60 DUP3 ADD MSTORE ADD MSTORE JUMP INVALID PUSH9 0xE79A7BF1E0BC45D0A3 ADDRESS 0xC5 PUSH20 0xBC367F9CF464FD326078812F301165FBDA4EF1A2 PUSH5 0x6970667358 0x22 SLT KECCAK256 0xC6 CALLER DUP12 RETURN 0x49 ISZERO 0xD3 CREATE2 0xBA EXTCODESIZE PUSH30 0x48B3082827BF713ECAD032F2DDA514D6F230BEF1E064736F6C6343000814 STOP CALLER 0x2F DUP8 DUP9 GT PUSH31 0x7EFF1D82E926EC794901D17C78024A50270940304540A733656F0D00000000 "},"methodIdentifiers":{"DEFAULT_ADMIN_ROLE()":"a217fddf","ORACLE_ROLE()":"07e2cea5","QUANTUM_VALIDATOR_ROLE()":"dcc577eb","TRADER_ROLE()":"f0a56fc8","cancelTrade(uint256,string)":"513f7cbc","confirmTrade(uint256,bytes,bytes32)":"0048456c","createTrade(address,uint8,uint256,uint256,uint256,bytes32)":"63238132","generateQuantumEntropy()":"03bba21d","getPlatformStats()":"136d8883","getQuantumKey(address)":"135dec50","getRoleAdmin(bytes32)":"248a9ca3","getTrade(uint256)":"2db25e05","getUserTrades(address)":"927c7742","grantRole(bytes32,address)":"2f2ff15d","hasRole(bytes32,address)":"91d14854","isQuantumEntropyUsed(bytes32)":"bf3b0f0b","pause()":"8456cb59","paused()":"5c975abb","quantumEntropyNonce()":"4f5de44a","quantumOracle()":"00e07a48","registerQuantumKey(bytes,uint256)":"183c0072","renounceRole(bytes32,address)":"36568abe","revokeRole(bytes32,address)":"d547741f","settleTrade(uint256)":"73422d93","supportsInterface(bytes4)":"01ffc9a7","totalValue()":"d4c3eea0","totalVolume()":"5f81a57c","trades(uint256)":"1e6c598e","unpause()":"3f4ba83a","updateQuantumOracle(address)":"1abfcefe","usedQuantumEntropy(bytes32)":"0c7648fa","userQuantumKeys(address)":"fa5f24ba","userTrades(address,uint256)":"b1b1ffab"}}}}}