{
  "_format": "hh-sol-artifact-1",
  "contractName": "QRLTrade",
  "sourceName": "contracts/QRLTrade.sol",
  "abi": [
    {
      "inputs": [
        {
          "internalType": "address",
          "name": "_quantumOracle",
          "type": "address"
        }
      ],
      "stateMutability": "nonpayable",
      "type": "constructor"
    },
    {
      "inputs": [],
      "name": "AccessControlBadConfirmation",
      "type": "error"
    },
    {
      "inputs": [
        {
          "internalType": "address",
          "name": "account",
          "type": "address"
        },
        {
          "internalType": "bytes32",
          "name": "neededRole",
          "type": "bytes32"
        }
      ],
      "name": "AccessControlUnauthorizedAccount",
      "type": "error"
    },
    {
      "inputs": [],
      "name": "EnforcedPause",
      "type": "error"
    },
    {
      "inputs": [],
      "name": "ExpectedPause",
      "type": "error"
    },
    {
      "inputs": [],
      "name": "ReentrancyGuardReentrantCall",
      "type": "error"
    },
    {
      "anonymous": false,
      "inputs": [
        {
          "indexed": false,
          "internalType": "address",
          "name": "account",
          "type": "address"
        }
      ],
      "name": "Paused",
      "type": "event"
    },
    {
      "anonymous": false,
      "inputs": [
        {
          "indexed": false,
          "internalType": "bytes32",
          "name": "entropy",
          "type": "bytes32"
        },
        {
          "indexed": false,
          "internalType": "uint256",
          "name": "timestamp",
          "type": "uint256"
        }
      ],
      "name": "QuantumEntropyUsed",
      "type": "event"
    },
    {
      "anonymous": false,
      "inputs": [
        {
          "indexed": true,
          "internalType": "address",
          "name": "user",
          "type": "address"
        },
        {
          "indexed": false,
          "internalType": "bytes32",
          "name": "keyHash",
          "type": "bytes32"
        }
      ],
      "name": "QuantumKeyRegistered",
      "type": "event"
    },
    {
      "anonymous": false,
      "inputs": [
        {
          "indexed": true,
          "internalType": "uint256",
          "name": "tradeId",
          "type": "uint256"
        },
        {
          "indexed": true,
          "internalType": "address",
          "name": "signer",
          "type": "address"
        }
      ],
      "name": "QuantumSignatureVerified",
      "type": "event"
    },
    {
      "anonymous": false,
      "inputs": [
        {
          "indexed": true,
          "internalType": "bytes32",
          "name": "role",
          "type": "bytes32"
        },
        {
          "indexed": true,
          "internalType": "bytes32",
          "name": "previousAdminRole",
          "type": "bytes32"
        },
        {
          "indexed": true,
          "internalType": "bytes32",
          "name": "newAdminRole",
          "type": "bytes32"
        }
      ],
      "name": "RoleAdminChanged",
      "type": "event"
    },
    {
      "anonymous": false,
      "inputs": [
        {
          "indexed": true,
          "internalType": "bytes32",
          "name": "role",
          "type": "bytes32"
        },
        {
          "indexed": true,
          "internalType": "address",
          "name": "account",
          "type": "address"
        },
        {
          "indexed": true,
          "internalType": "address",
          "name": "sender",
          "type": "address"
        }
      ],
      "name": "RoleGranted",
      "type": "event"
    },
    {
      "anonymous": false,
      "inputs": [
        {
          "indexed": true,
          "internalType": "bytes32",
          "name": "role",
          "type": "bytes32"
        },
        {
          "indexed": true,
          "internalType": "address",
          "name": "account",
          "type": "address"
        },
        {
          "indexed": true,
          "internalType": "address",
          "name": "sender",
          "type": "address"
        }
      ],
      "name": "RoleRevoked",
      "type": "event"
    },
    {
      "anonymous": false,
      "inputs": [
        {
          "indexed": true,
          "internalType": "uint256",
          "name": "tradeId",
          "type": "uint256"
        },
        {
          "indexed": false,
          "internalType": "string",
          "name": "reason",
          "type": "string"
        }
      ],
      "name": "TradeCancelled",
      "type": "event"
    },
    {
      "anonymous": false,
      "inputs": [
        {
          "indexed": true,
          "internalType": "uint256",
          "name": "tradeId",
          "type": "uint256"
        },
        {
          "indexed": false,
          "internalType": "bytes32",
          "name": "quantumHash",
          "type": "bytes32"
        }
      ],
      "name": "TradeConfirmed",
      "type": "event"
    },
    {
      "anonymous": false,
      "inputs": [
        {
          "indexed": true,
          "internalType": "uint256",
          "name": "tradeId",
          "type": "uint256"
        },
        {
          "indexed": true,
          "internalType": "address",
          "name": "buyer",
          "type": "address"
        },
        {
          "indexed": true,
          "internalType": "address",
          "name": "seller",
          "type": "address"
        },
        {
          "indexed": false,
          "internalType": "enum QRLTrade.CommodityType",
          "name": "commodity",
          "type": "uint8"
        },
        {
          "indexed": false,
          "internalType": "uint256",
          "name": "quantity",
          "type": "uint256"
        },
        {
          "indexed": false,
          "internalType": "uint256",
          "name": "price",
          "type": "uint256"
        }
      ],
      "name": "TradeCreated",
      "type": "event"
    },
    {
      "anonymous": false,
      "inputs": [
        {
          "indexed": true,
          "internalType": "uint256",
          "name": "tradeId",
          "type": "uint256"
        },
        {
          "indexed": false,
          "internalType": "uint256",
          "name": "settlementTime",
          "type": "uint256"
        }
      ],
      "name": "TradeSettled",
      "type": "event"
    },
    {
      "anonymous": false,
      "inputs": [
        {
          "indexed": false,
          "internalType": "address",
          "name": "account",
          "type": "address"
        }
      ],
      "name": "Unpaused",
      "type": "event"
    },
    {
      "inputs": [],
      "name": "DEFAULT_ADMIN_ROLE",
      "outputs": [
        {
          "internalType": "bytes32",
          "name": "",
          "type": "bytes32"
        }
      ],
      "stateMutability": "view",
      "type": "function"
    },
    {
      "inputs": [],
      "name": "ORACLE_ROLE",
      "outputs": [
        {
          "internalType": "bytes32",
          "name": "",
          "type": "bytes32"
        }
      ],
      "stateMutability": "view",
      "type": "function"
    },
    {
      "inputs": [],
      "name": "QUANTUM_VALIDATOR_ROLE",
      "outputs": [
        {
          "internalType": "bytes32",
          "name": "",
          "type": "bytes32"
        }
      ],
      "stateMutability": "view",
      "type": "function"
    },
    {
      "inputs": [],
      "name": "TRADER_ROLE",
      "outputs": [
        {
          "internalType": "bytes32",
          "name": "",
          "type": "bytes32"
        }
      ],
      "stateMutability": "view",
      "type": "function"
    },
    {
      "inputs": [
        {
          "internalType": "uint256",
          "name": "tradeId",
          "type": "uint256"
        },
        {
          "internalType": "string",
          "name": "reason",
          "type": "string"
        }
      ],
      "name": "cancelTrade",
      "outputs": [],
      "stateMutability": "nonpayable",
      "type": "function"
    },
    {
      "inputs": [
        {
          "internalType": "uint256",
          "name": "tradeId",
          "type": "uint256"
        },
        {
          "internalType": "bytes",
          "name": "signature",
          "type": "bytes"
        },
        {
          "internalType": "bytes32",
          "name": "quantumEntropy",
          "type": "bytes32"
        }
      ],
      "name": "confirmTrade",
      "outputs": [],
      "stateMutability": "nonpayable",
      "type": "function"
    },
    {
      "inputs": [
        {
          "internalType": "address",
          "name": "seller",
          "type": "address"
        },
        {
          "internalType": "enum QRLTrade.CommodityType",
          "name": "commodity",
          "type": "uint8"
        },
        {
          "internalType": "uint256",
          "name": "quantity",
          "type": "uint256"
        },
        {
          "internalType": "uint256",
          "name": "price",
          "type": "uint256"
        },
        {
          "internalType": "uint256",
          "name": "deliveryDate",
          "type": "uint256"
        },
        {
          "internalType": "bytes32",
          "name": "quantumEntropy",
          "type": "bytes32"
        }
      ],
      "name": "createTrade",
      "outputs": [
        {
          "internalType": "uint256",
          "name": "tradeId",
          "type": "uint256"
        }
      ],
      "stateMutability": "nonpayable",
      "type": "function"
    },
    {
      "inputs": [],
      "name": "generateQuantumEntropy",
      "outputs": [
        {
          "internalType": "bytes32",
          "name": "",
          "type": "bytes32"
        }
      ],
      "stateMutability": "nonpayable",
      "type": "function"
    },
    {
      "inputs": [],
      "name": "getPlatformStats",
      "outputs": [
        {
          "internalType": "uint256",
          "name": "volume",
          "type": "uint256"
        },
        {
          "internalType": "uint256",
          "name": "value",
          "type": "uint256"
        },
        {
          "internalType": "uint256",
          "name": "tradeCount",
          "type": "uint256"
        }
      ],
      "stateMutability": "view",
      "type": "function"
    },
    {
      "inputs": [
        {
          "internalType": "address",
          "name": "user",
          "type": "address"
        }
      ],
      "name": "getQuantumKey",
      "outputs": [
        {
          "components": [
            {
              "internalType": "bytes32",
              "name": "keyHash",
              "type": "bytes32"
            },
            {
              "internalType": "bytes",
              "name": "publicKey",
              "type": "bytes"
            },
            {
              "internalType": "uint256",
              "name": "createdAt",
              "type": "uint256"
            },
            {
              "internalType": "uint256",
              "name": "expiresAt",
              "type": "uint256"
            },
            {
              "internalType": "bool",
              "name": "isActive",
              "type": "bool"
            },
            {
              "internalType": "uint256",
              "name": "usageCount",
              "type": "uint256"
            }
          ],
          "internalType": "struct QRLTrade.QuantumKey",
          "name": "",
          "type": "tuple"
        }
      ],
      "stateMutability": "view",
      "type": "function"
    },
    {
      "inputs": [
        {
          "internalType": "bytes32",
          "name": "role",
          "type": "bytes32"
        }
      ],
      "name": "getRoleAdmin",
      "outputs": [
        {
          "internalType": "bytes32",
          "name": "",
          "type": "bytes32"
        }
      ],
      "stateMutability": "view",
      "type": "function"
    },
    {
      "inputs": [
        {
          "internalType": "uint256",
          "name": "tradeId",
          "type": "uint256"
        }
      ],
      "name": "getTrade",
      "outputs": [
        {
          "components": [
            {
              "internalType": "uint256",
              "name": "tradeId",
              "type": "uint256"
            },
            {
              "internalType": "address",
              "name": "buyer",
              "type": "address"
            },
            {
              "internalType": "address",
              "name": "seller",
              "type": "address"
            },
            {
              "internalType": "enum QRLTrade.CommodityType",
              "name": "commodity",
              "type": "uint8"
            },
            {
              "internalType": "uint256",
              "name": "quantity",
              "type": "uint256"
            },
            {
              "internalType": "uint256",
              "name": "price",
              "type": "uint256"
            },
            {
              "internalType": "uint256",
              "name": "deliveryDate",
              "type": "uint256"
            },
            {
              "internalType": "uint256",
              "name": "createdAt",
              "type": "uint256"
            },
            {
              "internalType": "enum QRLTrade.TradeStatus",
              "name": "status",
              "type": "uint8"
            },
            {
              "components": [
                {
                  "internalType": "bytes32",
                  "name": "messageHash",
                  "type": "bytes32"
                },
                {
                  "internalType": "bytes",
                  "name": "signature",
                  "type": "bytes"
                },
                {
                  "internalType": "uint256",
                  "name": "timestamp",
                  "type": "uint256"
                },
                {
                  "internalType": "bytes32",
                  "name": "quantumEntropy",
                  "type": "bytes32"
                },
                {
                  "internalType": "bool",
                  "name": "verified",
                  "type": "bool"
                }
              ],
              "internalType": "struct QRLTrade.QuantumSignature",
              "name": "buyerSignature",
              "type": "tuple"
            },
            {
              "components": [
                {
                  "internalType": "bytes32",
                  "name": "messageHash",
                  "type": "bytes32"
                },
                {
                  "internalType": "bytes",
                  "name": "signature",
                  "type": "bytes"
                },
                {
                  "internalType": "uint256",
                  "name": "timestamp",
                  "type": "uint256"
                },
                {
                  "internalType": "bytes32",
                  "name": "quantumEntropy",
                  "type": "bytes32"
                },
                {
                  "internalType": "bool",
                  "name": "verified",
                  "type": "bool"
                }
              ],
              "internalType": "struct QRLTrade.QuantumSignature",
              "name": "sellerSignature",
              "type": "tuple"
            },
            {
              "internalType": "bytes32",
              "name": "quantumTradeHash",
              "type": "bytes32"
            },
            {
              "internalType": "bool",
              "name": "quantumVerified",
              "type": "bool"
            }
          ],
          "internalType": "struct QRLTrade.EnergyTrade",
          "name": "",
          "type": "tuple"
        }
      ],
      "stateMutability": "view",
      "type": "function"
    },
    {
      "inputs": [
        {
          "internalType": "address",
          "name": "user",
          "type": "address"
        }
      ],
      "name": "getUserTrades",
      "outputs": [
        {
          "internalType": "uint256[]",
          "name": "",
          "type": "uint256[]"
        }
      ],
      "stateMutability": "view",
      "type": "function"
    },
    {
      "inputs": [
        {
          "internalType": "bytes32",
          "name": "role",
          "type": "bytes32"
        },
        {
          "internalType": "address",
          "name": "account",
          "type": "address"
        }
      ],
      "name": "grantRole",
      "outputs": [],
      "stateMutability": "nonpayable",
      "type": "function"
    },
    {
      "inputs": [
        {
          "internalType": "bytes32",
          "name": "role",
          "type": "bytes32"
        },
        {
          "internalType": "address",
          "name": "account",
          "type": "address"
        }
      ],
      "name": "hasRole",
      "outputs": [
        {
          "internalType": "bool",
          "name": "",
          "type": "bool"
        }
      ],
      "stateMutability": "view",
      "type": "function"
    },
    {
      "inputs": [
        {
          "internalType": "bytes32",
          "name": "entropy",
          "type": "bytes32"
        }
      ],
      "name": "isQuantumEntropyUsed",
      "outputs": [
        {
          "internalType": "bool",
          "name": "",
          "type": "bool"
        }
      ],
      "stateMutability": "view",
      "type": "function"
    },
    {
      "inputs": [],
      "name": "pause",
      "outputs": [],
      "stateMutability": "nonpayable",
      "type": "function"
    },
    {
      "inputs": [],
      "name": "paused",
      "outputs": [
        {
          "internalType": "bool",
          "name": "",
          "type": "bool"
        }
      ],
      "stateMutability": "view",
      "type": "function"
    },
    {
      "inputs": [],
      "name": "quantumEntropyNonce",
      "outputs": [
        {
          "internalType": "uint256",
          "name": "",
          "type": "uint256"
        }
      ],
      "stateMutability": "view",
      "type": "function"
    },
    {
      "inputs": [],
      "name": "quantumOracle",
      "outputs": [
        {
          "internalType": "address",
          "name": "",
          "type": "address"
        }
      ],
      "stateMutability": "view",
      "type": "function"
    },
    {
      "inputs": [
        {
          "internalType": "bytes",
          "name": "publicKey",
          "type": "bytes"
        },
        {
          "internalType": "uint256",
          "name": "validityPeriod",
          "type": "uint256"
        }
      ],
      "name": "registerQuantumKey",
      "outputs": [],
      "stateMutability": "nonpayable",
      "type": "function"
    },
    {
      "inputs": [
        {
          "internalType": "bytes32",
          "name": "role",
          "type": "bytes32"
        },
        {
          "internalType": "address",
          "name": "callerConfirmation",
          "type": "address"
        }
      ],
      "name": "renounceRole",
      "outputs": [],
      "stateMutability": "nonpayable",
      "type": "function"
    },
    {
      "inputs": [
        {
          "internalType": "bytes32",
          "name": "role",
          "type": "bytes32"
        },
        {
          "internalType": "address",
          "name": "account",
          "type": "address"
        }
      ],
      "name": "revokeRole",
      "outputs": [],
      "stateMutability": "nonpayable",
      "type": "function"
    },
    {
      "inputs": [
        {
          "internalType": "uint256",
          "name": "tradeId",
          "type": "uint256"
        }
      ],
      "name": "settleTrade",
      "outputs": [],
      "stateMutability": "payable",
      "type": "function"
    },
    {
      "inputs": [
        {
          "internalType": "bytes4",
          "name": "interfaceId",
          "type": "bytes4"
        }
      ],
      "name": "supportsInterface",
      "outputs": [
        {
          "internalType": "bool",
          "name": "",
          "type": "bool"
        }
      ],
      "stateMutability": "view",
      "type": "function"
    },
    {
      "inputs": [],
      "name": "totalValue",
      "outputs": [
        {
          "internalType": "uint256",
          "name": "",
          "type": "uint256"
        }
      ],
      "stateMutability": "view",
      "type": "function"
    },
    {
      "inputs": [],
      "name": "totalVolume",
      "outputs": [
        {
          "internalType": "uint256",
          "name": "",
          "type": "uint256"
        }
      ],
      "stateMutability": "view",
      "type": "function"
    },
    {
      "inputs": [
        {
          "internalType": "uint256",
          "name": "",
          "type": "uint256"
        }
      ],
      "name": "trades",
      "outputs": [
        {
          "internalType": "uint256",
          "name": "tradeId",
          "type": "uint256"
        },
        {
          "internalType": "address",
          "name": "buyer",
          "type": "address"
        },
        {
          "internalType": "address",
          "name": "seller",
          "type": "address"
        },
        {
          "internalType": "enum QRLTrade.CommodityType",
          "name": "commodity",
          "type": "uint8"
        },
        {
          "internalType": "uint256",
          "name": "quantity",
          "type": "uint256"
        },
        {
          "internalType": "uint256",
          "name": "price",
          "type": "uint256"
        },
        {
          "internalType": "uint256",
          "name": "deliveryDate",
          "type": "uint256"
        },
        {
          "internalType": "uint256",
          "name": "createdAt",
          "type": "uint256"
        },
        {
          "internalType": "enum QRLTrade.TradeStatus",
          "name": "status",
          "type": "uint8"
        },
        {
          "components": [
            {
              "internalType": "bytes32",
              "name": "messageHash",
              "type": "bytes32"
            },
            {
              "internalType": "bytes",
              "name": "signature",
              "type": "bytes"
            },
            {
              "internalType": "uint256",
              "name": "timestamp",
              "type": "uint256"
            },
            {
              "internalType": "bytes32",
              "name": "quantumEntropy",
              "type": "bytes32"
            },
            {
              "internalType": "bool",
              "name": "verified",
              "type": "bool"
            }
          ],
          "internalType": "struct QRLTrade.QuantumSignature",
          "name": "buyerSignature",
          "type": "tuple"
        },
        {
          "components": [
            {
              "internalType": "bytes32",
              "name": "messageHash",
              "type": "bytes32"
            },
            {
              "internalType": "bytes",
              "name": "signature",
              "type": "bytes"
            },
            {
              "internalType": "uint256",
              "name": "timestamp",
              "type": "uint256"
            },
            {
              "internalType": "bytes32",
              "name": "quantumEntropy",
              "type": "bytes32"
            },
            {
              "internalType": "bool",
              "name": "verified",
              "type": "bool"
            }
          ],
          "internalType": "struct QRLTrade.QuantumSignature",
          "name": "sellerSignature",
          "type": "tuple"
        },
        {
          "internalType": "bytes32",
          "name": "quantumTradeHash",
          "type": "bytes32"
        },
        {
          "internalType": "bool",
          "name": "quantumVerified",
          "type": "bool"
        }
      ],
      "stateMutability": "view",
      "type": "function"
    },
    {
      "inputs": [],
      "name": "unpause",
      "outputs": [],
      "stateMutability": "nonpayable",
      "type": "function"
    },
    {
      "inputs": [
        {
          "internalType": "address",
          "name": "newOracle",
          "type": "address"
        }
      ],
      "name": "updateQuantumOracle",
      "outputs": [],
      "stateMutability": "nonpayable",
      "type": "function"
    },
    {
      "inputs": [
        {
          "internalType": "bytes32",
          "name": "",
          "type": "bytes32"
        }
      ],
      "name": "usedQuantumEntropy",
      "outputs": [
        {
          "internalType": "bool",
          "name": "",
          "type": "bool"
        }
      ],
      "stateMutability": "view",
      "type": "function"
    },
    {
      "inputs": [
        {
          "internalType": "address",
          "name": "",
          "type": "address"
        }
      ],
      "name": "userQuantumKeys",
      "outputs": [
        {
          "internalType": "bytes32",
          "name": "keyHash",
          "type": "bytes32"
        },
        {
          "internalType": "bytes",
          "name": "publicKey",
          "type": "bytes"
        },
        {
          "internalType": "uint256",
          "name": "createdAt",
          "type": "uint256"
        },
        {
          "internalType": "uint256",
          "name": "expiresAt",
          "type": "uint256"
        },
        {
          "internalType": "bool",
          "name": "isActive",
          "type": "bool"
        },
        {
          "internalType": "uint256",
          "name": "usageCount",
          "type": "uint256"
        }
      ],
      "stateMutability": "view",
      "type": "function"
    },
    {
      "inputs": [
        {
          "internalType": "address",
          "name": "",
          "type": "address"
        },
        {
          "internalType": "uint256",
          "name": "",
          "type": "uint256"
        }
      ],
      "name": "userTrades",
      "outputs": [
        {
          "internalType": "uint256",
          "name": "",
          "type": "uint256"
        }
      ],
      "stateMutability": "view",
      "type": "function"
    },
    {
      "stateMutability": "payable",
      "type": "receive"
    }
  ],
  "bytecode": "0x6080346200009c57601f62002ff138819003918201601f19168301916001600160401b03831184841017620000a1578084926020946040528339810103126200009c57516001600160a01b038116908181036200009c57620000729060016000556200006b33620000b7565b5062000138565b50600a80546001600160a01b0319169190911790556001600755604051612df59081620001dc8239f35b600080fd5b634e487b7160e01b600052604160045260246000fd5b6001600160a01b031660008181527fa6eef7e35abe7026729641147f7915573c7e97b47efa546f5f6e3230263bcb49602052604081205490919060ff16620001345781805260016020526040822081835260205260408220600160ff19825416179055339160008051602062002fd18339815191528180a4600190565b5090565b6001600160a01b031660008181527ff7c11a6d0ec535894a90c88b42cba2ccb348cb15b5e3ad22a710d1d4ac63281960205260408120549091907f68e79a7bf1e0bc45d0a330c573bc367f9cf464fd326078812f301165fbda4ef19060ff16620001d65780835260016020526040832082845260205260408320600160ff1982541617905560008051602062002fd1833981519152339380a4600190565b50509056fe6080604052600436101561006d575b361561001957600080fd5b60405162461bcd60e51b815260206004820152602660248201527f51524c54726164653a20446972656374207061796d656e7473206e6f7420616360448201526518d95c1d195960d21b6064820152608490fd5b60003560e01c806248456c14611ea4578062e07a4814611e7b57806301ffc9a714611e2557806303bba21d14611d5c57806307e2cea514611d335780630c7648fa14610344578063135dec5014611c3c578063136d888314611c00578063183c0072146119025780631abfcefe146118195780631e6c598e14611713578063248a9ca3146116e45780632db25e05146114be5780632f2ff15d1461147f57806336568abe146114385780633f4ba83a146113ce5780634f5de44a146113b0578063513f7cbc146111d05780635c975abb146111ad5780635f81a57c1461118f578063632381321461086657806373422d93146105445780638456cb59146104ea57806391d148541461049d578063927c7742146103e9578063a217fddf146103cd578063b1b1ffab14610375578063bf3b0f0b14610344578063d4c3eea014610326578063d547741f146102e5578063dcc577eb146102aa578063f0a56fc81461026f5763fa5f24ba0361000e573461026a57602036600319011261026a576001600160a01b036101fc612606565b1660005260046020526040600020805461021860018301612742565b91600281015490600381015490600560ff6004830154169101549161024f604051968796875260c0602088015260c0870190612655565b93604086015260608501521515608084015260a08301520390f35b600080fd5b3461026a57600036600319011261026a5760206040517ffacaf2747a7486cf5730e9265973fb54447d3ace6e7e4711f6360826b07319418152f35b3461026a57600036600319011261026a5760206040517f31cae59f465ac92b04160088ed0c3ab981b8a7a1333388990d0514edd3a837088152f35b3461026a57604036600319011261026a5761032460043561030461261c565b9080600052600160205261031f6001604060002001546128f8565b612ad4565b005b3461026a57600036600319011261026a576020600954604051908152f35b3461026a57602036600319011261026a576004356000526005602052602060ff604060002054166040519015158152f35b3461026a57604036600319011261026a5761038e612606565b6001600160a01b031660009081526006602052604090208054602435919082101561026a576020916103bf91612890565b90546040519160031b1c8152f35b3461026a57600036600319011261026a57602060405160008152f35b3461026a5760208060031936011261026a576001600160a01b0361040b612606565b1660005260068152604060002060405190818382549182815201908192600052846000209060005b8682821061048957868661044982880383612721565b604051928392818401908285525180915260408401929160005b82811061047257505050500390f35b835185528695509381019392810192600101610463565b835485529093019260019283019201610433565b3461026a57604036600319011261026a576104b661261c565b600435600052600160205260406000209060018060a01b0316600052602052602060ff604060002054166040519015158152f35b3461026a57600036600319011261026a576105036128be565b61050b612ce6565b600160ff1960025416176002557f62e78cea01bee320cd4e420270b5ea74000d11b0c9f74754ebdbfc544b05a2586020604051338152a1005b60208060031936011261026a5760043590816000526003815260ff601360406000200154161561081657610576612d04565b61057e612ce6565b8160005260038152604060002060078101600160ff82541661059f81612830565b036107d15760018201546001600160a01b0392908316330361078c576003810192835460048301549081810291818304149015171561077657340361072657600582015442106106d55760008080938193600234920154165af13d156106d0573d61060981612b58565b906106176040519283612721565b81526000853d92013e5b1561068157805460ff19166002179055546008547f3a065da622a5998bc080739b644efc5a9cef4dd337b2fd39f8a050699b1062a6929161066191612b4b565b60085561067034600954612b4b565b600955604051428152a26001600055005b60405162461bcd60e51b815260048101849052602160248201527f51524c54726164653a205061796d656e74207472616e73666572206661696c656044820152601960fa1b6064820152608490fd5b610621565b60405162461bcd60e51b815260048101869052602360248201527f51524c54726164653a2044656c69766572792064617465206e6f7420726561636044820152621a195960ea1b6064820152608490fd5b60405162461bcd60e51b815260048101869052602260248201527f51524c54726164653a20496e636f7272656374207061796d656e7420616d6f756044820152611b9d60f21b6064820152608490fd5b634e487b7160e01b600052601160045260246000fd5b60405162461bcd60e51b815260048101859052601f60248201527f51524c54726164653a204f6e6c792062757965722063616e20736574746c65006044820152606490fd5b60405162461bcd60e51b815260048101849052601d60248201527f51524c54726164653a205472616465206e6f7420636f6e6669726d65640000006044820152606490fd5b6084906040519062461bcd60e51b825260048201526024808201527f51524c54726164653a205472616465206e6f74207175616e74756d2076657269604482015263199a595960e21b6064820152fd5b3461026a5760c036600319011261026a5761087f612606565b6005602435101561026a573360005260046020526108a760ff60046040600020015416612baa565b3360005260046020526108c36003604060002001544210612bf6565b60018060a01b03811660005260046020526108e860ff60046040600020015416612baa565b60018060a01b038116600052600460205261090c4260036040600020015411612bf6565b610914612d04565b61091c612ce6565b6001600160a01b038116331461113e57604435156110ed57606435156110a9574260843511156110525760a435600052600560205261096360ff6040600020541615612c42565b600060a435805b61103b57506064811015908161102f575b5015610fe05760075461098d81612c9d565b600755604051918160208401523360601b60408401526001600160601b03198160601b1660548401526109c1602435612830565b60243560f81b60688401526044356069840152606435608984015260843560a984015260a43560c98401524260e984015260e98352826101208101106001600160401b0361012085011117610f0257610120830160405282516020840120610a2c61012085016126cf565b6000610120850152604051610a4081612706565b600081526101408501526000610160850152600061018085015260006101a0850152604051610a6e816126cf565b60008152604051610a7e81612706565b60008152602082015260006040820152600060608201526000608082015261012060405195610aac876126ea565b8587523360208801526001600160a01b0385166040880152610acf602435612830565b6024356060880152604435608088015260643560a088015260843560c08801524260e088015260006101008801520161012086015261014085015261016084015260006101808401528160005260036020526040600020835181556001810160018060a01b036020860151166001600160601b0360a01b8254161790556002810160018060a01b036040860151168154906060870151610b6e81612830565b610b7781612830565b6001600160a81b03199092161760a091821b60ff60a01b161790915560808501516003830155840151600482015560c0840151600582015560e084015160068201556101008401516007820190610bcd81612830565b610bd681612830565b60ff801983541691161790556101208401518051600883015560208101518051906001600160401b038211610f0257610c12600985015461267a565b601f8111610f99575b50602090601f8311600114610f23579180610c819492608094600092610f18575b50508160011b916000199060031b1c19161760098501555b6040810151600a8501556060810151600b85015501511515600c83019060ff801983541691151516179055565b610140840151938451600d83015560208501519485516001600160401b038111610f0257610cb2600e85015461267a565b96601f8811610ebb575b602097508790601f8311600114610e3d5760806013948461018095610d50999895610d2e95600092610e32575b50508160011b916000199060031b1c191617600e8801555b6040810151600f8801556060810151601088015501511515601186019060ff801983541691151516179055565b61016081015160128501550151151591019060ff801983541691151516179055565b3360005260068352610d66826040600020612cac565b60018060a01b03811660005260068352610d84826040600020612cac565b60a435600052600583526040600020600160ff1982541617905560405190610dad602435612830565b60243582526044358483015260643560408301526001600160a01b031690339083907fbd567df9b9489c301f77254b572b65ae91208fe4668325ceea3136fe5d3efb4390606090a47f83f66337b809447001604ace11a9a88f56110ef4f1107a241f4e4c79763b84cf6040805160a43581524285820152a16001600055604051908152f35b015190508d80610ce9565b90600e8601600052886000209160005b601f1985168110610ea45750601394600185610d50999895610d2e9560809561018099601f19811610610e8b575b505050811b01600e880155610d01565b015160001960f88460031b161c191690558d8080610e7b565b91928a600181928685015181550194019201610e4d565b600e85016000526020600020601f830160051c810160208410610efb575b601f8a0160051c82018110610eef575050610cbc565b60008155600101610ed9565b5080610ed9565b634e487b7160e01b600052604160045260246000fd5b015190508980610c3c565b906009850160005260206000209160005b601f1985168110610f81575092610c81949260019260809583601f19811610610f68575b505050811b016009850155610c54565b015160001960f88460031b161c19169055898080610f58565b91926020600181928685015181550194019201610f34565b600985016000526020600020601f840160051c810160208510610fd9575b601f830160051c82018110610fcd575050610c1b565b60008155600101610fb7565b5080610fb7565b60405162461bcd60e51b815260206004820152602160248201527f51524c54726164653a20496e76616c6964207175616e74756d20656e74726f706044820152607960f81b6064820152608490fd5b609c915011158261097b565b61104a60019283831690612b4b565b911c8061096a565b60405162461bcd60e51b815260206004820152602960248201527f51524c54726164653a2044656c69766572792064617465206d75737420626520604482015268696e2066757475726560b81b6064820152608490fd5b606460405162461bcd60e51b815260206004820152602060248201527f51524c54726164653a205072696365206d75737420626520706f7369746976656044820152fd5b60405162461bcd60e51b815260206004820152602360248201527f51524c54726164653a205175616e74697479206d75737420626520706f73697460448201526269766560e81b6064820152608490fd5b60405162461bcd60e51b8152602060048201526024808201527f51524c54726164653a2043616e6e6f74207472616465207769746820796f757260448201526339b2b63360e11b6064820152608490fd5b3461026a57600036600319011261026a576020600854604051908152f35b3461026a57600036600319011261026a57602060ff600254166040519015158152f35b3461026a57604036600319011261026a576004356024356001600160401b03811161026a576112039036906004016125d9565b61120e929192612d04565b611216612ce6565b8160005260209260038452604060002061123281541515612d27565b600781019081549060ff821661124781612830565b61135f576001810154336001600160a01b039182161491821561134e575b5050801561132c575b156112d157836040937fc742381126185889f1ed17e46bced0266b422cdd0ee6e26d1ccac51250ff63c69697936003839460ff19161790558451958487958652850152848401376000828201840152601f01601f19168101030190a26001600055005b60405162461bcd60e51b815260048101879052602d60248201527f51524c54726164653a204e6f7420617574686f72697a656420746f2063616e6360448201526c656c207468697320747261646560981b6064820152608490fd5b506000805260018652604060002033600052865260ff6040600020541661126e565b600291925001541633148780611265565b60405162461bcd60e51b815260048101889052602360248201527f51524c54726164653a2054726164652063616e6e6f742062652063616e63656c6044820152621b195960ea1b6064820152608490fd5b3461026a57600036600319011261026a576020600b54604051908152f35b3461026a57600036600319011261026a576113e76128be565b60025460ff8116156114265760ff19166002557f5db9ee0a495bf2e6ff9c91a7834c1ba4fdd244a5e8aa4e537bd38aeae4b073aa6020604051338152a1005b604051638dfc202b60e01b8152600490fd5b3461026a57604036600319011261026a5761145161261c565b336001600160a01b0382160361146d5761032490600435612ad4565b60405163334bd91960e11b8152600490fd5b3461026a57604036600319011261026a5761032460043561149e61261c565b908060005260016020526114b96001604060002001546128f8565b6129bf565b3461026a57602036600319011261026a5760006101806040516114e0816126ea565b8281528260208201528260408201528260608201528260808201528260a08201528260c08201528260e08201528261010082015261151c612d73565b61012082015261152a612d73565b6101408201528261016082015201526004356000526003602052604060002060ff60136040519261155a846126ea565b8054845260018101546001600160a01b0390811660208601526002820154908116604086015260a01c831661158e81612830565b606085015260038101546080850152600481015460a0850152600581015460c0850152600681015460e0850152826007820154166115cb81612830565b6101008501526115dd600882016127e8565b6101208501526115ef600d82016127e8565b610140850152601281015461016085015201541615156101808201526040518091602082528051602083015260018060a01b03602082015116604083015260018060a01b036040820151166060830152606081015161164d81612830565b6080830152608081015160a083015260a081015160c083015260c081015160e083015260e081015161010083015261010081015161168a81612830565b6101208301526101208101516101806116cd6116b56101a093846101408801526101c0870190612850565b610140850151868203601f1901610160880152612850565b926101608101518286015201511515908301520390f35b3461026a57602036600319011261026a5760043560005260016020526020600160406000200154604051908152f35b3461026a57602036600319011261026a57600435600052600360205260406000208054600160a01b600190039182600182015416926002820154600383015460048401546005850154600686015490600787015460ff169260088801611778906127e8565b94611785600d8a016127e8565b9660128a0154996013015460ff16986040519c8d9c8d5260208d0152811660408c015260a01c60ff166117b781612830565b60608b015260808a015260a089015260c088015260e08701526117d981612830565b6101008601526101a08061012087015285016117f491612850565b84810361014086015261180691612850565b9161016084015215156101808301520390f35b3461026a57602036600319011261026a57611832612606565b61183a6128be565b6001600160a01b038181169182156118be576118a591600a5416611886600080516020612da0833981519152918260005260016020526118816001604060002001546128f8565b612a3a565b5060005260016020526118a06001604060002001546128f8565b61291e565b506001600160601b0360a01b600a541617600a55600080f35b606460405162461bcd60e51b815260206004820152602060248201527f51524c54726164653a20496e76616c6964206f7261636c6520616464726573736044820152fd5b3461026a57604036600319011261026a576001600160401b0360043581811161026a576119339036906004016125d9565b6024359260208210611baf576301e133808411611b5f576119a461198c6040516020810190858783376119826054828881013360601b6020820152426034820152036034810184520182612721565b5190209542612b4b565b936040519361199a856126b4565b8685523691612b73565b9260208301938452426040840152606083015260016080830152600060a083015233600052600460205260406000209282518455518051918211610f02576119ef600185015461267a565b601f8111611b14575b50602090601f8311600114611aa15791806005949260a094600092611a96575b50508160011b916000199060031b1c19161760018501555b6040810151600285015560608101516003850155611a6360808201511515600486019060ff801983541691151516179055565b01519101556040519081527ffe20466623bf997b9345fce4f083c5fa8bba90e4725cd89455e9afc9ee381fb760203392a2005b015190508780611a18565b90601f198316916001860160005260206000209260005b818110611afc575092600192859260a0966005989610611ae3575b505050811b016001850155611a30565b015160001960f88460031b161c19169055878080611ad3565b92936020600181928786015181550195019301611ab8565b600185016000526020600020601f840160051c81019160208510611b55575b601f0160051c01905b818110611b4957506119f8565b60008155600101611b3c565b9091508190611b33565b60405162461bcd60e51b815260206004820152602260248201527f51524c54726164653a2056616c696469747920706572696f6420746f6f206c6f6044820152616e6760f01b6064820152608490fd5b60405162461bcd60e51b815260206004820152602360248201527f51524c54726164653a20496e76616c6964207075626c6963206b6579206c656e6044820152620cee8d60eb1b6064820152608490fd5b3461026a57600036600319011261026a576008546009549060075460001981019081116107765760609260405192835260208301526040820152f35b3461026a5760208060031936011261026a57611c56612606565b600060a0604051611c66816126b4565b828152606085820152826040820152826060820152826080820152015260018060a01b031660005260048152604060002060405190611ca4826126b4565b80548252611cb460018201612742565b83830190815260028201549160408401928352600381015460608501908152611d14600560ff6004850154169360808801941515855201549360a0870194855260405197889781895251908801525160c0604088015260e0870190612655565b9351606086015251608085015251151560a08401525160c08301520390f35b3461026a57600036600319011261026a576020604051600080516020612da08339815191528152f35b3461026a57600036600319011261026a573360009081527ff7c11a6d0ec535894a90c88b42cba2ccb348cb15b5e3ad22a710d1d4ac6328196020526040902054600080516020612da08339815191529060ff1615611e0757611dbf600b54612c9d565b80600b55600019430190438211610776576020916040519083820192428452446040840152606083015240608082015260808152611dfc816126cf565b519020604051908152f35b6044906040519063e2517d3f60e01b82523360048301526024820152fd5b3461026a57602036600319011261026a5760043563ffffffff60e01b811680910361026a57602090637965db0b60e01b8114908115611e6a575b506040519015158152f35b6301ffc9a760e01b14905082611e5f565b3461026a57600036600319011261026a57600a546040516001600160a01b039091168152602090f35b3461026a57606036600319011261026a576024356001600160401b03811161026a57611ed49036906004016125d9565b90336000526004602052611ef260ff60046040600020015416612baa565b336000526004602052611f0e6003604060002001544210612bf6565b611f16612d04565b611f1e612ce6565b6004356000526003602052604060002091611f3b83541515612d27565b60ff600784015416611f4c81612830565b612594576001830154336001600160a01b0391821614919082908115612584575b5015612528576044356000526005602052611f9060ff6040600020541615612c42565b60128401546040516020810191600435835260408201523360601b6060820152604435607482015260748152611fc5816126cf565b51902092336000526004602052604060002060405190611fe4826126b4565b80548252611ff460018201612742565b60208301526002810154604083015260038101546060830152600560ff600483015416159182156080850152015460a08301526124e3576020015160405161206d6054826020810194898652612054815180926020604086019101612632565b81013360601b6040820152036034810184520182612721565b51902061207b368484612b73565b6020815191012003612492576120a19160405194612098866126cf565b85523691612b73565b602083018181524260408501526044356060850152600160808501529115612330575081516008840155518051906001600160401b038211610f02576120ea600985015461267a565b601f81116122e9575b50602090601f831160011461227457918061215794926080946000926122695750508160011b916000199060031b1c19161760098501556040810151600a8501556060810151600b85015501511515600c83019060ff801983541691151516179055565b60ff600c820154168061225b575b612203575b60443560005260056020526040600020600160ff1982541617905533600052600460205260056040600020016121a08154612c9d565b90557f83f66337b809447001604ace11a9a88f56110ef4f1107a241f4e4c79763b84cf60408051336004357f6f2fc0168e577c2d847b430c6b05a88c6a40ab1ff4c45ebf20cc89f64bf9fade600080a36044358152426020820152a16001600055005b60129060ff196001816007840154161760078301556001601383019182541617905501546040519081527f32cfb1d59ccb25544919a13a38c885dd9dbbfdf3f35da4f2577e1a427259bc8d602060043592a28061216a565b5060ff601182015416612165565b015190508680610c3c565b906009850160005260206000209160005b601f19851681106122d1575092612157949260019260809583601f198116106122b857505050811b016009850155610c54565b015160001960f88460031b161c19169055868080610f58565b91926020600181928685015181550194019201612285565b600985016000526020600020601f840160051c810160208510612329575b601f830160051c8201811061231d5750506120f3565b60008155600101612307565b5080612307565b8251600d850155805191506001600160401b038211610f0257612356600e85015461267a565b601f811161244b575b50602090601f83116001146123d55791806123c594926080946000926123ca575b50508160011b916000199060031b1c191617600e8501555b6040810151600f8501556060810151601085015501511515601183019060ff801983541691151516179055565b612157565b015190508680612380565b90600e850160005260206000209160005b601f19851681106124335750926123c5949260019260809583601f1981161061241a575b505050811b01600e850155612398565b015160001960f88460031b161c1916905586808061240a565b919260206001819286850151815501940192016123e6565b600e85016000526020600020601f840160051c81016020851061248b575b601f830160051c8201811061247f57505061235f565b60008155600101612469565b5080612469565b60405162461bcd60e51b815260206004820152602360248201527f51524c54726164653a20496e76616c6964207175616e74756d207369676e617460448201526275726560e81b6064820152608490fd5b60405162461bcd60e51b815260206004820152601f60248201527f51524c54726164653a205369676e6572206b6579206e6f7420616374697665006044820152606490fd5b60405162461bcd60e51b815260206004820152602e60248201527f51524c54726164653a204e6f7420617574686f72697a656420746f20636f6e6660448201526d69726d207468697320747261646560901b6064820152608490fd5b9050600285015416331485611f6d565b60405162461bcd60e51b815260206004820152601b60248201527f51524c54726164653a205472616465206e6f742070656e64696e6700000000006044820152606490fd5b9181601f8401121561026a578235916001600160401b03831161026a576020838186019501011161026a57565b600435906001600160a01b038216820361026a57565b602435906001600160a01b038216820361026a57565b60005b8381106126455750506000910152565b8181015183820152602001612635565b9060209161266e81518092818552858086019101612632565b601f01601f1916010190565b90600182811c921680156126aa575b602083101461269457565b634e487b7160e01b600052602260045260246000fd5b91607f1691612689565b60c081019081106001600160401b03821117610f0257604052565b60a081019081106001600160401b03821117610f0257604052565b6101a081019081106001600160401b03821117610f0257604052565b602081019081106001600160401b03821117610f0257604052565b90601f801991011681019081106001600160401b03821117610f0257604052565b90604051918260008254926127568461267a565b9081845260019485811690816000146127c55750600114612782575b505061278092500383612721565b565b9093915060005260209081600020936000915b8183106127ad57505061278093508201013880612772565b85548884018501529485019487945091830191612795565b91505061278094506020925060ff191682840152151560051b8201013880612772565b906040516127f5816126cf565b608060ff600483958054855261280d60018201612742565b602086015260028101546040860152600381015460608601520154161515910152565b6005111561283a57565b634e487b7160e01b600052602160045260246000fd5b9081518152608080612871602085015160a0602086015260a0850190612655565b9360408101516040850152606081015160608501520151151591015290565b80548210156128a85760005260206000200190600090565b634e487b7160e01b600052603260045260246000fd5b3360009081527fa6eef7e35abe7026729641147f7915573c7e97b47efa546f5f6e3230263bcb49602052604081205460ff1615611e075750565b80600052600160205260406000203360005260205260ff6040600020541615611e075750565b6001600160a01b031660008181527ff7c11a6d0ec535894a90c88b42cba2ccb348cb15b5e3ad22a710d1d4ac6328196020526040812054909190600080516020612da08339815191529060ff166129ba5780835260016020526040832082845260205260408320600160ff198254161790557f2f8788117e7eff1d82e926ec794901d17c78024a50270940304540a733656f0d339380a4600190565b505090565b906000918083526001602052604083209160018060a01b03169182845260205260ff604084205416156000146129ba5780835260016020526040832082845260205260408320600160ff198254161790557f2f8788117e7eff1d82e926ec794901d17c78024a50270940304540a733656f0d339380a4600190565b6001600160a01b031660008181527ff7c11a6d0ec535894a90c88b42cba2ccb348cb15b5e3ad22a710d1d4ac6328196020526040812054909190600080516020612da08339815191529060ff16156129ba578083526001602052604083208284526020526040832060ff1981541690557ff6391f5c32d9c69d2a47ea670b442974b53935d1edc7fd64eb21e047a839171b339380a4600190565b906000918083526001602052604083209160018060a01b03169182845260205260ff6040842054166000146129ba578083526001602052604083208284526020526040832060ff1981541690557ff6391f5c32d9c69d2a47ea670b442974b53935d1edc7fd64eb21e047a839171b339380a4600190565b9190820180921161077657565b6001600160401b038111610f0257601f01601f191660200190565b929192612b7f82612b58565b91612b8d6040519384612721565b82948184528183011161026a578281602093846000960137010152565b15612bb157565b60405162461bcd60e51b815260206004820152601d60248201527f51524c54726164653a20496e76616c6964207175616e74756d206b65790000006044820152606490fd5b15612bfd57565b60405162461bcd60e51b815260206004820152601d60248201527f51524c54726164653a205175616e74756d206b657920657870697265640000006044820152606490fd5b15612c4957565b60405162461bcd60e51b815260206004820152602660248201527f51524c54726164653a205175616e74756d20656e74726f707920616c726561646044820152651e481d5cd95960d21b6064820152608490fd5b60001981146107765760010190565b805468010000000000000000811015610f0257612cce91600182018155612890565b819291549060031b91821b91600019901b1916179055565b60ff60025416612cf257565b60405163d93c066560e01b8152600490fd5b600260005414612d15576002600055565b604051633ee5aeb560e01b8152600490fd5b15612d2e57565b60405162461bcd60e51b815260206004820152601e60248201527f51524c54726164653a20547261646520646f6573206e6f7420657869737400006044820152606490fd5b60405190612d80826126cf565b600060808382815260606020820152826040820152826060820152015256fe68e79a7bf1e0bc45d0a330c573bc367f9cf464fd326078812f301165fbda4ef1a2646970667358221220c6338bf34915d3f5ba3b7d48b3082827bf713ecad032f2dda514d6f230bef1e064736f6c634300081400332f8788117e7eff1d82e926ec794901d17c78024a50270940304540a733656f0d",
  "linkReferences": {},
  "deployedLinkReferences": {}
}