{
  "_format": "hh-sol-artifact-1",
  "contractName": "MockQuantumOracle",
  "sourceName": "contracts/MockQuantumOracle.sol",
  "abi": [
    {
      "anonymous": false,
      "inputs": [
        {
          "indexed": false,
          "internalType": "bytes32",
          "name": "entropy",
          "type": "bytes32"
        },
        {
          "indexed": false,
          "internalType": "uint256",
          "name": "timestamp",
          "type": "uint256"
        }
      ],
      "name": "QuantumEntropyGenerated",
      "type": "event"
    },
    {
      "inputs": [],
      "name": "generateQuantumEntropy",
      "outputs": [
        {
          "internalType": "bytes32",
          "name": "",
          "type": "bytes32"
        }
      ],
      "stateMutability": "nonpayable",
      "type": "function"
    },
    {
      "inputs": [],
      "name": "getLatestEntropy",
      "outputs": [
        {
          "internalType": "bytes32",
          "name": "",
          "type": "bytes32"
        }
      ],
      "stateMutability": "view",
      "type": "function"
    }
  ],
  "bytecode": "0x6080806040523461001657610199908161001c8239f35b600080fdfe6080604090808252600436101561001557600080fd5b600090813560e01c90816303bba21d1461009f57506344e800bc1461003957600080fd5b3461009c578060031936011261009c578054825160208101914283524485830152606082015260608152608081019281841067ffffffffffffffff851117610088575082602094525190208152f35b634e487b7160e01b81526041600452602490fd5b80fd5b9050823461015f578260031936011261015f5782546000199081811461014b5760010190818555430143811161014b576020840191428352448486015260608501524060808401523360601b60a08401526094835260c083019383851067ffffffffffffffff861117610088575081847fb85486f4075c22155246288058985d1bb396f6d234c830699db32986d6163ae2926020968352855190209485825260e042910152a151908152f35b634e487b7160e01b85526011600452602485fd5b8280fdfea26469706673582212206848e9c6557940d6fcb8052bf65de061b3a4cd05f4d313ede2485ca4abef4f5d64736f6c63430008140033",
  "linkReferences": {},
  "deployedLinkReferences": {}
}